:020000040800F2
:1000000000000320AD0B0008E9090008F109000811
:10001000F9090008010A0008090A000800000000A8
:1000200000000000000000000000000071D900087E
:10003000110A000800000000C1DB00083DA600080E
:10004000050C0008050C0008050C0008050C00084C
:10005000050C0008050C0008050C0008050C00083C
:10006000050C0008050C0008050C0008210A000812
:10007000050C0008050C0008050C0008050C00081C
:10008000050C0008050C0008350A0008050C0008DE
:10009000490A0008050C0008050C0008050C0008BA
:1000A000050C00085D0A0008050C0008050C000896
:1000B000710A0008050C0008050C0008050C000872
:1000C000050C0008050C0008050C0008050C0008CC
:1000D000050C0008050C0008050C0008050C0008BC
:1000E000050C0008050C0008050C0008050C0008AC
:1000F000050C0008050C0008050C0008050C00089C
:10010000050C0008050C0008050C0008050C00088B
:10011000050C0008050C0008050C0008050C00087B
:10012000050C0008050C0008050C0008050C00086B
:0C013000050C0008050C0008050C000878
:1001400010B5054C237833B9044B13B10448AFF311
:1001500000800123237010BD60010020000000001A
:10016000C4F5000808B5034B1BB103490348AFF3BE
:10017000008008BD0000000064010020C4F50008F4
:1001800001F0FF01102A2BDB10F0070F08D010F848
:10019000013B013A8B422DD010F0070F42B3F6D14C
:1001A000F0B441EA012141EA014122F007047FF065
:1001B00000070023F0E80256083C85EA010586EABC
:1001C000010685FA47F5A3FA87F586FA47F6A5FAF8
:1001D00087F68EB9EED1F0BC01F0FF0102F0070204
:1001E00032B110F8013B013A83EA010313B1F8D1AF
:1001F0000020704701387047002D06BF3546033890
:10020000073815F0010F07D1013015F4807F02BFC8
:10021000013015F4C03F0130F0BC0138704700BF19
:1002200080B485B000AF78604FF0B0439A6C4FF067
:10023000B0417B6813438B644FF0B0439A6C7B688A
:100240001340FB60FB6800BF1437BD465DF8047BBC
:10025000704780B485B000AF78604FF0B043DA6C7F
:100260004FF0B0417B681343CB644FF0B043DA6C7E
:100270007B681340FB60FB6800BF1437BD465DF828
:10028000047B704780B500AF00F0BEFC00F064F85E
:1002900000F0CCF800F0ACF900F098F900F0E4F8C8
:1002A00000F046F91D4B1B780133DAB21B4B1A7074
:1002B00001221B491B4801F027F8184B1B7801331A
:1002C000DAB2164B1A70184805F0C2FF03461A46F8
:1002D000164B1A700AF0CCF915480AF07CFB03465D
:1002E000144A1360144A042101200AF082FC0346D8
:1002F000124A1360124A002112480AF003FA034618
:10030000114A1360114A002111480AF0FBF9034613
:10031000104A13600AF0D0F900BFFDE79E020020EA
:100320009C0200207C0100204002002008000020E8
:1003300000F7000898020020E8F600089402002068
:10034000A0F60008890600088C020020C4F6000808
:10035000990600089002002080B59AB000AF07F11E
:1003600020034822002118460EF050FC3B1D0022BD
:100370001A605A609A60DA601A615A619A612A4B6F
:100380001B6823F4C063284A43F400731360264BB0
:100390001B6803F4C0633B603B6862233B624FF41D
:1003A0008073FB620123FB630123BB6440233B6337
:1003B00000233B6460237B640223FB6401233B65D1
:1003C00000237B652023BB654FF40033FB654FF0B2
:1003D00000537B664FF000733B6607F1200318461D
:1003E00004F088FC0346002B01D000F093F96F2342
:1003F0007B600323BB600023FB6000233B61002381
:100400007B618023BB610023FB613B1D03211846F8
:1004100004F0E4FF0346002B01D000F07BF900BF9D
:100420006837BD4680BD00BF0004005880B594B059
:1004300000AF3B465022002118460EF0E7FB4FF478
:1004400000533B600023BB641023FB643B4618460B
:1004500005F01FFC0346002B01D000F05BF900BF44
:100460005037BD4680BD000080B586B000AF3B462A
:1004700000221A605A609A60DA601A615A61294B48
:10048000294A1A60274B00225A60264B00229A60A4
:10049000244B0022DA60234B00221A61214B0422F4
:1004A0005A61204B00221A761E4B01225A761D4BB0
:1004B0000122DA611B4B002283F82020194B002215
:1004C0009A62184B0022DA62164B012283F8302020
:1004D000144B00225A63134B002283F83820114832
:1004E00000F0C6FD0346002B01D000F013F90F4BBE
:1004F0003B6006237B600623BB607F23FB600423F5
:100500003B6100237B613B461946064801F05EF9DA
:100510000346002B01D000F0FDF800BF1837BD46A0
:1005200080BD00BF7C010020000004502000F014BA
:1005300080B588B000AF07F1100300221A605A603E
:100540009A60DA603B1D00221A605A609A601D4B67
:100550004FF080421A601B4B00225A60194B002258
:100560009A60184B184ADA60164B00221A61154B34
:1005700080229A61134805F013FE0346002B01D038
:1005800000F0C8F84FF480533B6107F1100319469F
:100590000C4805F0B2FF0346002B01D000F0BAF87A
:1005A00020237B600023FB603B1D1946054806F0B5
:1005B0009BF90346002B01D000F0ACF800BF2037B8
:1005C000BD4680BD40020020FF0F270080B500AF70
:1005D0000420FFF725FE0120FFF722FE002205215F
:1005E0000B2001F0B1FE0B2001F0C8FE00BF80BD62
:1005F00080B586B000AF3B1D00221A605A609A6039
:10060000DA601A610420FFF724FE0120FFF721FEC3
:100610000220FFF71EFE002238214FF0904002F02A
:100620009FFA38237B600123BB600023FB6000231B
:100630003B613B1D19464FF0904002F021F900BF8D
:100640001837BD4680BD000080B584B000AF78602B
:1006500039600C4B1B684FF0FF3118460AF041FA25
:100660003B689BB2194678680DF01CFE0346FB60A0
:10067000044B1B6818460AF07FFA00BF1037BD46CE
:1006800080BD00BF9802002080B582B000AF7860C6
:100690000DF04AFD0AF0C8F880B588B000AF786068
:1006A0004FF0FF32002101200AF014F9084B1B889B
:1006B0001A4607F10C03074918460EF085FA07F1B0
:1006C0000C0314211846FFF7BFFF00BFE8E700BF87
:1006D0009C0200200CF6000880B582B000AF786064
:1006E0007B681B68094A934201D100F0ADFA7B6830
:1006F0001B68B3F1804F05D1054B1B6801211846DB
:100700000AF09AF800BF0837BD4680BD002C0140B2
:100710009002002080B400AF72B600BF00BFFDE7BA
:1007200080B485B000AF78604FF0B043DA6C4FF022
:10073000B0417B681343CB644FF0B043DA6C7B6805
:100740001340FB60FB6800BF1437BD465DF8047BB7
:10075000704780B485B000AF78604FF0B0439A6DB9
:100760004FF0B0417B6813438B654FF0B0439A6DF7
:100770007B681340FB60FB6800BF1437BD465DF823
:10078000047B704780B500AF00220F216FF001009D
:1007900001F0DAFD00BF80BD80B59CB000AF78608D
:1007A00007F15C0300221A605A609A60DA601A61ED
:1007B00007F10C035022002118460EF027FA7B683F
:1007C0001B68364A934264D14FF48063FB60182360
:1007D0003B614FF400337B614FF00073BB614FF01E
:1007E0000053FB614FF080533B624FF08053BB647A
:1007F00007F10C03184605F04CFA0346002B01D014
:10080000FFF788FF4FF40050FFF78AFF0120FFF742
:1008100087FF0123FB6503233B6600237B6607F10B
:100820005C0319464FF0904002F02AF81C4B1D4A19
:100830001A601B4B05225A60194B00229A60184B14
:100840000022DA60164B80221A61154B4FF4807239
:100850005A61134B4FF480629A61114B2022DA6186
:100860000F4B00221A620E4801F096FD0346002B42
:1008700001D0FFF74FFF7B68094ADA64084A7B68BA
:10088000936200220521122001F05EFD122001F08A
:1008900075FD00BF7037BD4680BD00BF000004502D
:1008A000E00100200800024080B582B000AF78600F
:1008B0007B681B68B3F1804F0AD10120FFF749FF25
:1008C000002205211C2001F03FFD1C2001F056FDF7
:1008D00000BF0837BD4680BD80B485B000AF7860EA
:1008E0004FF0B0431A6E4FF0B0417B6813430B6674
:1008F0004FF0B0431A6E7B681340FB60FB6800BF8B
:100900001437BD465DF8047B7047000080B58EB09B
:1009100000AF786000233B630023FB62002387F86D
:10092000373000227968192001F00EFD192001F0FE
:1009300025FD4FF40060FFF7CFFF07F10C0207F130
:1009400010031146184604F021FF04F009FF386334
:100950003B6B214AA2FB03239B0C013BFB621F4B19
:100960001F4A1A601D4B40F2E732DA601B4AFB6AED
:1009700053601A4B00221A61184B00229A601748E4
:1009800005F00EFC034687F8373097F83730002B18
:100990001BD1124805F05CFC034687F8373097F806
:1009A0003730002B11D1192001F0E8FC7B680F2BA8
:1009B00008D800227968192001F0C6FC094A7B6832
:1009C000136002E0012387F8373097F83730184674
:1009D0003837BD4680BD00BF83DE1B43A002002028
:1009E000002C01401000002080B400AF00BFFDE7E4
:1009F00080B400AF00BFFDE780B400AF00BFFDE7EB
:100A000080B400AF00BFFDE780B400AF00BFFDE7DA
:100A100080B400AF00BFBD465DF8047B70470000A6
:100A200080B500AF024801F0DAFD00BF80BD00BF15
:100A3000E001002080B500AF024800F0E9FC00BFF3
:100A400080BD00BF7C01002080B500AF024802F0ED
:100A50008FF900BF80BD00BFBCA5002080B500AFEE
:100A6000024805F043FC00BF80BD00BFA00200208B
:100A700080B500AF024805F039FC00BF80BD00BF63
:100A80004002002080B586B000AF7860144A154B54
:100A9000D31A7B617B693B61134B1B68002B02D12E
:100AA000114B124A1A60104B1A687B6813443A695A
:100AB0009A4207D20EF010F903460C221A604FF04A
:100AC000FF3309E0084B1B68FB60074B1A687B6823
:100AD0001344054A1360FB6818461837BD4680BDAD
:100AE0000000032000040000EC02002000AC002005
:100AF00080B400AF244BD3F88830234A43F470030A
:100B0000C2F888304FF0B0431B684FF0B04243F05A
:100B1000010313604FF0B0434FF4E0229A604FF0AE
:100B2000B0431A684FF0B041184B13400B604FF0C0
:100B3000B043D3F894304FF0B04223F00503C2F82D
:100B400094304FF0B043D3F898304FF0B04223F0D8
:100B50000103C2F898304FF0B0430D4ADA604FF00D
:100B6000B0430B4A1A614FF0B0431B684FF0B042DC
:100B700023F4802313604FF0B04300229A6100BF3A
:100B8000BD465DF8047B704700ED00E0FBFEF6FA21
:100B900000100422D458C4500433C4188C42F9D332
:100BA0007047036004308842FBD370470C48854689
:100BB000FFF79EFF0B480C490C4A0023FFF7EDFF9F
:100BC0000B480C490C4A0023FFF7E7FF0B480C4980
:100BD0000023FFF7E8FF0EF085F8FFF753FBFEE771
:100BE000000003200800002060010020F4F7000846
:100BF00000000320000003204CF9000860010020E1
:100C000000AC0020FEE7000080B582B000AF0023FA
:100C1000FB710C4B1B680B4A43F480731360032079
:100C200001F087FB0F20FFF771FE0346002B02D077
:100C30000123FB7101E0FFF7A5FDFB79184608379A
:100C4000BD4680BD0040005880B400AF064B1B7805
:100C50001A46064B1B681344044A136000BFBD4686
:100C60005DF8047B704700BF14000020F0020020F4
:100C700080B400AF034B1B681846BD465DF8047B8B
:100C8000704700BFF002002080B400AF034B1B6828
:100C90001846BD465DF8047B704700BF1000002079
:100CA00080B483B000AF786039607B689B6823F4C0
:100CB0007C123B681A437B689A6000BF0C37BD46C4
:100CC0005DF8047B704780B483B000AF7860396012
:100CD0007B689B6823F0E0723B681A437B689A60EC
:100CE00000BF0C37BD465DF8047B704780B483B00D
:100CF00000AF78607B689B6803F0E07318460C37A0
:100D0000BD465DF8047B704780B487B000AFF860E3
:100D1000B9607A603B60FB6860331A46BB689B0031
:100D200013447B617B691A68084B13407A6802F0B0
:100D3000F8413A680A43134343F000427B691A6062
:100D400000BF1C37BD465DF8047B704700F0FF0311
:100D500080B485B000AF786039607B6860331A4634
:100D60003B689B001344FB60FB681B6803F0F8437F
:100D700018461437BD465DF8047B704780B487B0D1
:100D800000AFF860B9607A60FB6860331A46BB68F0
:100D90009B0013447B617B691B6823F000427B68E6
:100DA0001A437B691A6000BF1C37BD465DF8047B9F
:100DB000704780B483B000AF78607B68DB6803F471
:100DC0004063002B01D1012300E0002318460C37BB
:100DD000BD465DF8047B704780B487B000AFF86013
:100DE000B9607A60FB6830331A46BB681B0A9B0007
:100DF00003F00C0313447B617B691A68BB6803F042
:100E00001F031F2101FA03F3DB431A407B689B0E8B
:100E100003F01F01BB6803F01F0301FA03F31A4339
:100E20007B691A6000BF1C37BD465DF8047B7047C4
:100E300080B483B000AF78607B68DB6803F00303A5
:100E400018460C37BD465DF8047B704780B483B00C
:100E500000AF78607B68DB6C03F0C003002B01D12E
:100E6000012300E0002318460C37BD465DF8047BE3
:100E7000704780B487B000AFF860B9607A60FB68F3
:100E800014331A46BB685B0E9B0003F00403134443
:100E90007B617B691A68BB681B0D03F01F03072188
:100EA00001FA03F3DB431A40BB681B0D03F01F0379
:100EB000796801FA03F31A437B691A6000BF1C3793
:100EC000BD465DF8047B704780B485B000AFF86024
:100ED000B9607A60FB68D3F8B020BB68C3F3120333
:100EE000DB431A407B6803F018030849D940BB680C
:100EF0000B40C3F312031A43FB68C3F8B02000BFD2
:100F00001437BD465DF8047B704700BFFFFF070044
:100F100080B483B000AF78607B689B6823F0204387
:100F200023F03F037A68936000BF0C37BD465DF83D
:100F3000047B704780B483B000AF78607B689B68A7
:100F400003F00053B3F1005F01D1012300E000235F
:100F500018460C37BD465DF8047B704780B483B0FB
:100F600000AF78607B689B6823F0104323F03F0359
:100F700043F080527B689A6000BF0C37BD465DF835
:100F8000047B704780B483B000AF78607B689B6857
:100F900003F08053B3F1805F01D1012300E000230F
:100FA00018460C37BD465DF8047B704780B483B0AB
:100FB00000AF78607B689B6823F0004323F03F0319
:100FC00043F001027B689A6000BF0C37BD465DF8B4
:100FD000047B704780B483B000AF78607B689B6807
:100FE00003F00103012B01D1012300E00023184687
:100FF0000C37BD465DF8047B704780B483B000AF0A
:1010000078607B689B6823F0004323F03F0343F044
:1010100004027B689A6000BF0C37BD465DF8047B14
:10102000704780B483B000AF78607B689B6803F042
:101030000403042B01D1012300E0002318460C37E0
:10104000BD465DF8047B704780B483B000AF786024
:101050007B689B6803F00803082B01D1012300E0A3
:10106000002318460C37BD465DF8047B704700002E
:1010700080B588B000AF78600023FB770023BB61A8
:101080000023BB607B68002B01D101232EE17B682C
:101090001B69002B7B685B6D002B09D17868FFF71B
:1010A0007BFB7B6800229A657B68002283F85020D6
:1010B0007B681B681846FFF73DFF0346002B04D0F2
:1010C0007B681B681846FFF723FF7B681B68184680
:1010D000FFF758FF0346002B15D17B681B681846A5
:1010E000FFF73CFF834B1B689B09834AA2FB03234A
:1010F0009B0901335B00BB6002E0BB68013BBB6046
:10110000BB68002BF9D17B681B681846FFF73AFFD4
:101110000346002B0DD17B685B6D43F010027B68AA
:101120005A657B689B6D43F001027B689A650123D9
:10113000FB777B681B681846FFF773FF78617B6855
:101140005B6D03F01003002B40F0C7807B69002B20
:1011500040F0C3807B685B6D23F4817343F002022F
:101160007B685A657B681B681846FFF733FF0346A8
:10117000002B0BD16148FFF72DFF0346002B05D153
:101180007B685B6819465E48FFF78AFD7B685B7E7B
:101190005A037B685B6B1A437B68DB681A437B6886
:1011A0009B681A437B6893F820301B041343BA6989
:1011B0001343BB617B6893F82030012B06D17B6819
:1011C0005B6A013B5B04BA691343BB617B689B6A42
:1011D000002B09D07B689B6A03F470727B68DB6A22
:1011E0001343BA691343BB617B681B68DA68454BDC
:1011F00013407A681268B9690B43D3607B681B6837
:101200001846FFF70EFF38617B681B681846FFF72A
:101210001BFFF8603B69002B3DD1FB68002B3AD1E6
:101220007B681B7E9A037B6893F830305B00134326
:10123000BB617B681B68DB6823F4804323F00203F7
:101240007A681268B9690B43D3607B6893F83830C9
:10125000012B18D17B681B681B6923F4FF6323F003
:1012600004037A68D16B7A68126C11437A68526C05
:1012700011437A68926C0A431A437B681B6842F0F8
:1012800001021A6107E07B681B681A697B681B68AA
:1012900022F001021A617B681B69012B0CD17B686B
:1012A0001B681B6B23F00F017B68DB695A1E7B6890
:1012B0001B680A431A6307E07B681B681A6B7B682C
:1012C0001B6822F00F021A637B685B6D23F0030337
:1012D00043F001027B685A6507E07B685B6D43F071
:1012E00010027B685A650123FB77FB7F1846203785
:1012F000BD4680BD0C000020632D3E05000004505B
:101300000003045007C0F0FF80B586B000AFF8605E
:10131000B9607A60FB681B681846FFF782FE0346D7
:10132000002B67D1FB6893F85030012B01D10223C9
:1013300063E0FB68012283F85020F86800F00CFE9F
:101340000346FB75FB7D002B4FD1FB685B6D23F4DF
:10135000706323F0010343F48072FB685A65FB68F5
:101360005B6D03F48053002B06D0FB689B6D23F06C
:101370000602FB689A6502E0FB6800229A65FB683A
:10138000DB6C204ADA62FB68DB6C1F4A1A63FB687D
:10139000DB6C1E4A5A63FB681B681C221A60FB68E0
:1013A000002283F85020FB681B685A68FB681B68A2
:1013B00042F010025A60FB681B68DA68FB681B6821
:1013C00042F00102DA60FB68D86CFB681B684033AE
:1013D0001946BA687B6801F087F80346FB75FB681D
:1013E0001B681846FFF709FE06E0FB68002283F839
:1013F000502001E00223FB75FB7D18461837BD46DF
:1014000080BD00BF4D2000082521000841210008B3
:1014100080B588B000AF78600023FB617B681B68F3
:101420001B68BB617B681B685B687B61BB6903F001
:101430000203002B17D07B6903F00203002B12D0AC
:101440007B685B6D03F01003002B05D17B685B6D3F
:1014500043F400627B685A65786800F0B3FE7B68ED
:101460001B6802221A60BB6903F00403002B04D03E
:101470007B6903F00403002B09D1BB6903F0080367
:10148000002B5DD07B6903F00803002B58D07B68EC
:101490005B6D03F01003002B05D17B685B6D43F49B
:1014A00000727B685A657B681B681846FFF781FCF1
:1014B0000346002B3DD07B681B68DB6803F40053B8
:1014C000B3F5005F35D07B681B681B6803F0080329
:1014D000082B2ED17B681B681846FFF7A2FD034638
:1014E000002B1AD17B681B685A687B681B6822F046
:1014F0000C025A607B685B6D23F480727B685A65CE
:101500007B685B6D03F48053002B12D17B685B6DAD
:1015100043F001027B685A650BE07B685B6D43F02A
:1015200010027B685A657B689B6D43F001027B6803
:101530009A65786800F022F97B681B680C221A60B3
:10154000BB6903F02003002B04D07B6903F0200368
:10155000002B09D1BB6903F04003002B74D07B69D9
:1015600003F04003002B6FD07B685B6D03F010032A
:10157000002B05D17B685B6D43F400527B685A6594
:101580007B681B681846FFF761FC38617B681B6845
:101590001846FFF70EFCF8607B681B68DB68BB60D1
:1015A0003B69002B49D0BB6803F00073002B07D0C8
:1015B000FB68002B41D0BB6803F40053002B3CD1E7
:1015C0007B681B681B6803F04003402B35D17B68A8
:1015D0001B68DB6803F40013002B2ED17B681B68AB
:1015E0001846FFF731FD0346002B1AD17B681B68B4
:1015F0005A687B681B6822F060025A607B685B6DEA
:1016000023F480527B685A657B685B6D03F48073BA
:10161000002B12D17B685B6D43F001027B685A6539
:101620000BE07B685B6D43F010027B685A657B685A
:101630009B6D43F001027B689A65786800F09AFD23
:101640007B681B6860221A60BB6903F08003002B73
:1016500011D07B6903F08003002B0CD07B685B6D9D
:1016600043F480327B685A65786800F09BF87B68A9
:101670001B6880221A60BB6903F48073002B12D0B0
:101680007B6903F48073002B0DD07B685B6D43F4A2
:1016900000327B685A65786800F080FD7B681B68C3
:1016A0004FF480721A60BB6903F40073002B12D0F0
:1016B0007B6903F40073002B0DD07B685B6D43F4F2
:1016C00080227B685A65786800F072FD7B681B6831
:1016D0004FF400721A60BB6903F01003002B2BD08B
:1016E0007B6903F01003002B26D07B685B6B002B1B
:1016F00002D10123FB6109E07B681B681846FFF7F4
:1017000097FB0346002B01D00123FB61FB69012BF2
:101710000ED17B685B6D43F480627B685A657B68A1
:101720009B6D43F002027B689A65786800F044F88C
:101730007B681B6810221A60BB6903F48063002B6E
:1017400018D07B6903F48063002B13D07B685B6D3A
:1017500043F480427B685A657B689B6D43F00802C6
:101760007B689A657B681B684FF480621A607868B2
:1017700000F00AFD00BF2037BD4680BD80B483B0B5
:1017800000AF786000BF0C37BD465DF8047B704742
:1017900080B483B000AF786000BF0C37BD465DF801
:1017A000047B704780B483B000AF786000BF0C3713
:1017B000BD465DF8047B704780B483B000AF7860AD
:1017C00000BF0C37BD465DF8047B704780B5B6B0EE
:1017D00000AF78603960002387F8D7300023FB60C2
:1017E0007B6893F85030012B01D102239FE37B6883
:1017F000012283F850207B681B681846FFF711FC14
:101800000346002B40F084837B6818683B68596866
:101810003B681B681A46FFF7DFFA7B681B681846AF
:10182000FFF7FFFBC7F8D0007B681B681846FFF77F
:101830000BFCC7F8CC00D7F8D030002B40F0A681C5
:10184000D7F8CC30002B40F0A1817B6818683B684A
:1018500019683B689B681A46FFF70BFB3B685A699F
:101860007B681B68DB68DB0803F003035B0002FA9C
:1018700003F3C7F8C8303B681B69042B0AD07B68A8
:1018800018683B6819693B681A68D7F8C830FFF7D1
:101890003BFA7BE17B681B6800211846FFF758FA8A
:1018A0000346C3F31203002B0AD17B681B68002197
:1018B0001846FFF74DFA03469B0E03F01F021EE089
:1018C0007B681B6800211846FFF742FA0346C7F8F9
:1018D000BC30D7F8BC3093FAA3F3C7F8C030D7F8C0
:1018E000C030C7F8B830D7F8B830002B01D120236A
:1018F00004E0D7F8B830B3FA83F3DBB21A463B689A
:101900001B68C3F31203002B05D13B681B689B0EB9
:1019100003F01F0318E03B681B68C7F8B030D7F826
:10192000B03093FAA3F3C7F8AC30D7F8AC30C7F8AF
:10193000B430D7F8B430002B01D1202304E0D7F81D
:10194000B430B3FA83F3DBB29A4206D17B681B68EA
:10195000002200211846FFF711FA7B681B6801215D
:101960001846FFF7F5F90346C3F31203002B0AD11B
:101970007B681B6801211846FFF7EAF903469B0EB6
:1019800003F01F021EE07B681B6801211846FFF769
:10199000DFF90346C7F8A430D7F8A43093FAA3F3CD
:1019A000C7F8A030D7F8A030C7F8A830D7F8A830CB
:1019B000002B01D1202304E0D7F8A830B3FA83F339
:1019C000DBB21A463B681B68C3F31203002B05D138
:1019D0003B681B689B0E03F01F0318E03B681B6805
:1019E000C7F89830D7F8983093FAA3F3C7F8943033
:1019F000D7F89430C7F89C30D7F89C30002B01D131
:101A0000202304E0D7F89C30B3FA83F3DBB29A4288
:101A100006D17B681B68002201211846FFF7AEF94A
:101A20007B681B6802211846FFF792F90346C3F34F
:101A30001203002B0AD17B681B6802211846FFF7AE
:101A400087F903469B0E03F01F021EE07B681B68AC
:101A500002211846FFF77CF90346C7F88C30D7F807
:101A60008C3093FAA3F3C7F88830D7F88830C7F8DA
:101A70009030D7F89030002B01D1202304E0D7F824
:101A80009030B3FA83F3DBB21A463B681B68C3F3AA
:101A90001203002B05D13B681B689B0E03F01F034C
:101AA00016E03B681B68C7F88030D7F8803093FA9F
:101AB000A3F3FB67FB6FC7F88430D7F88430002BA3
:101AC00001D1202304E0D7F88430B3FA83F3DBB2EA
:101AD0009A4206D17B681B68002202211846FFF754
:101AE0004DF97B681B6803211846FFF731F903465F
:101AF000C3F31203002B0AD17B681B68032118462D
:101B0000FFF726F903469B0E03F01F0217E07B68E0
:101B10001B6803211846FFF71BF903467B677B6FA1
:101B200093FAA3F33B673B6FBB67BB6F002B01D1FD
:101B3000202303E0BB6FB3FA83F3DBB21A463B68A2
:101B40001B68C3F31203002B05D13B681B689B0E77
:101B500003F01F0311E03B681B68BB66BB6E93FA82
:101B6000A3F37B667B6EFB66FB6E002B01D120230B
:101B700003E0FB6EB3FA83F3DBB29A4206D17B68D3
:101B80001B68002203211846FFF7F8F87B681B68E2
:101B90001846FFF71FFA0346002B40F0C2817B680E
:101BA00018683B6819683B68DB681A46FFF78CF9D0
:101BB0003B68DB688E4A934240F030817B6818684E
:101BC0003B681B68C3F31203002B0BD13B681B68F7
:101BD0009B0E013303F01F03092B94BF0123002345
:101BE000DBB219E03B681B68FB65FB6D93FAA3F35E
:101BF000BB65BB6D3B663B6E002B01D1202303E030
:101C00003B6EB3FA83F3DBB2013303F01F03092BFE
:101C100094BF01230023DBB2002B79D03B681B6803
:101C2000C3F31203002B07D13B681B689B0E0133E3
:101C30009B0603F0F84215E03B681B683B653B6D73
:101C400093FAA3F3FB64FB6C7B657B6D002B01D1E6
:101C5000202303E07B6DB3FA83F3DBB201339B06F1
:101C600003F0F8423B681B68C3F31203002B09D151
:101C70003B681B689B0E013303F01F03012101FA2F
:101C800003F317E03B681B687B647B6C93FAA3F358
:101C90003B643B6CBB64BB6C002B01D1202303E095
:101CA000BB6CB3FA83F3DBB2013303F01F030121F2
:101CB00001FA03F342EA03013B681B68C3F3120312
:101CC000002B0AD13B681B689B0E013303F01F02F7
:101CD00013465B0013441B0518E03B681B68BB639D
:101CE000BB6B93FAA3F37B637B6BFB63FB6B002BF8
:101CF00001D1202303E0FB6BB3FA83F3DBB20133A2
:101D000003F01F0213465B0013441B050B4380E0E6
:101D10003B681B68C3F31203002B07D13B681B68A9
:101D20009B0E01339B0603F0F84215E03B681B68ED
:101D3000FB62FB6A93FAA3F3BB62BB6A3B633B6B38
:101D4000002B01D1202303E03B6BB3FA83F3DBB21A
:101D500001339B0603F0F8423B681B68C3F3120390
:101D6000002B09D13B681B689B0E013303F01F0356
:101D7000012101FA03F317E03B681B683B623B6AF1
:101D800093FAA3F3FB61FB697B627B6A002B01D1B1
:101D9000202303E07B6AB3FA83F3DBB2013303F061
:101DA0001F03012101FA03F342EA03013B681B68A8
:101DB000C3F31203002B0DD13B681B689B0E01334C
:101DC00003F01F0213465B0013441E3B1B0543F048
:101DD00000731DE03B681B687B617B6993FAA3F38A
:101DE0003B613B69BB61BB69002B03D1202305E04C
:101DF00000007F40BB69B3FA83F3DBB2013303F029
:101E00001F0213465B0013441E3B1B0543F0007387
:101E10000B433A6892681946FFF72BF83B681A683B
:101E2000454B1340002B7CD04448FEF75FFFC7F8BA
:101E3000C4004348FFF7CEF80346002B5ED13B6851
:101E40001B68404A934227D1D7F8C43003F40003FB
:101E5000002B21D17B681B68394A934261D1D7F8A6
:101E6000C43043F4000319463448FEF72CFF364BC8
:101E70001B689B09354AA2FB03239B095A1C134686
:101E80005B0013449B00FB6002E0FB68013BFB60CE
:101E9000FB68002BF9D144E03B681B682C4A934255
:101EA00013D1D7F8C43003F08073002B0DD17B68B9
:101EB0001B68234A934234D1D7F8C43043F080736F
:101EC00019461E48FEF7FFFE2BE03B681B68214ABF
:101ED000934226D1D7F8C43003F48003002B20D1DD
:101EE0007B681B68164A93421BD1D7F8C43043F471
:101EF000800319461148FEF7E6FE12E07B685B6D31
:101F000043F020027B685A65012387F8D73008E048
:101F10007B685B6D43F020027B685A65012387F87C
:101F2000D7307B68002283F8502097F8D7301846C6
:101F3000D837BD4680BD00BF0000088000030450B4
:101F400000000450000052C70C000020632D3E0525
:101F5000000084CB0100008080B584B000AF7860C1
:101F60000023BB607B681B681846FFF733F8034605
:101F7000002B5ED17B681B689A68304B1340002BA6
:101F80000DD07B685B6D43F010027B685A657B68FF
:101F90009B6D43F001027B689A6501234AE07B68F0
:101FA0001B681846FFF702F82548FEF79FFE034618
:101FB00003F40003002B0FD0224B1B689B09224A1D
:101FC000A2FB03239B090133BB6002E0BB68013B1A
:101FD000BB60BB68002BF9D1FEF74AFEF86021E038
:101FE0007B681B681846FEF7F5FF0346002B04D1FB
:101FF0007B681B681846FEF7D9FFFEF739FE0246DC
:10200000FB68D31A022B0DD97B685B6D43F010027D
:102010007B685A657B689B6D43F001027B689A651B
:10202000012307E07B681B681B6803F00103012B99
:10203000D6D1002318461037BD4680BD3F00008032
:10204000000304500C000020632D3E0580B584B0D1
:1020500000AF78607B689B6AFB60FB685B6D03F098
:102060005003002B4BD1FB685B6D43F40072FB689F
:102070005A65FB681B681B6803F00803002B21D01E
:10208000FB681B681846FEF794FE0346002B32D00F
:10209000FB681B68DB6803F40053002B2BD1FB6843
:1020A0005B6D23F48072FB685A65FB685B6D03F41B
:1020B0008053002B1FD1FB685B6D43F00102FB686E
:1020C0005A6518E0FB681B68DB6803F00203002B0D
:1020D00011D1FB685B6D23F48072FB685A65FB6865
:1020E0005B6D03F48053002B05D1FB685B6D43F0FF
:1020F0000102FB685A65F868FFF740FB0EE0FB68D9
:102100005B6D03F01003002B03D0F868FFF754FB5E
:1021100004E0FB68DB6C5B6B7868984700BF1037A6
:10212000BD4680BD80B584B000AF78607B689B6A97
:10213000FB60F868FFF72CFB00BF1037BD4680BD81
:1021400080B584B000AF78607B689B6AFB60FB68F9
:102150005B6D43F04002FB685A65FB689B6D43F082
:102160000402FB689A65F868FFF726FB00BF10378A
:10217000BD4680BD80B483B000AF786000BF0C372F
:10218000BD465DF8047B704780B483B000AF7860D3
:1021900000BF0C37BD465DF8047B704780B483B048
:1021A00000AF786000BF0C37BD465DF8047B704718
:1021B00080B483B000AF786000BF0C37BD465DF8D7
:1021C000047B704780B483B000AF786000BF0C37E9
:1021D000BD465DF8047B704780B485B000AF786081
:1021E0007B6803F00703FB600C4BDB68BB60BA68DD
:1021F0004FF6FF031340BB60FB681A02BB68134332
:1022000043F0BF6343F40033BB60044ABB68D36050
:1022100000BF1437BD465DF8047B704700ED00E059
:1022200080B400AF044BDB681B0A03F007031846B9
:10223000BD465DF8047B704700ED00E080B483B0DC
:1022400000AF0346FB7197F90730002B0BDBFB79DE
:1022500003F01F02074997F907305B09012000FAD4
:1022600002F241F8232000BF0C37BD465DF8047B25
:10227000704700BF00E100E080B483B000AF0346C8
:102280003960FB7197F90730002B0ADB3B68DAB243
:102290000C4997F907301201D2B20B4483F800239E
:1022A0000AE03B68DAB20849FB7903F00F03043B0C
:1022B0001201D2B20B441A7600BF0C37BD465DF84E
:1022C000047B704700E100E000ED00E080B489B0DD
:1022D00000AFF860B9607A60FB6803F00703FB6148
:1022E000FB69C3F10703042B28BF0423BB61FB690F
:1022F0000433062B02D9FB69033B00E000237B611A
:102300004FF0FF32BB6902FA03F3DA43BB681A40AD
:102310007B699A404FF0FF317B6901FA03F3D9439F
:102320007B680B40134318462437BD465DF8047B99
:10233000704780B582B000AF78607868FFF74CFFD7
:1023400000BF0837BD4680BD80B586B000AF0346EC
:10235000B9607A60FB73FFF763FF78617A68B968E8
:102360007869FFF7B3FF024697F90F301146184618
:10237000FFF782FF00BF1837BD4680BD80B582B031
:1023800000AF0346FB7197F907301846FFF756FF79
:1023900000BF0837BD4680BD80B584B000AF78600F
:1023A0007B68002B01D101238EE07B681B681A46F5
:1023B000474B9A420FD87B681B681A46454B13441B
:1023C000454AA2FB03231B099A007B685A647B6879
:1023D000424A1A640EE07B681B681A46404B13445D
:1023E0003D4AA2FB03231B099A007B685A647B6861
:1023F0003C4A1A647B68022283F825207B681B68AC
:102400001B68FB60FB6823F4FF4323F07003FB6051
:102410007B689A687B68DB681A437B681B691A4390
:102420007B685B691A437B689B691A437B68DB693D
:102430001A437B681B6A1343FA681343FB607B688B
:102440001B68FA681A60786800F0B6F97B689B68C8
:10245000B3F5804F02D17B6800225A607B685A68CE
:102460007B689B6C02F03F021A607B68DB6C7A68C9
:10247000126D5A607B685B68002B10D07B685B68CC
:10248000042B0CD8786800F0D5F97B685B6D0022CE
:102490001A607B689B6D7A68D26D5A6008E07B6831
:1024A00000225A657B6800229A657B680022DA6503
:1024B0007B680022DA637B68012283F825207B6831
:1024C000002283F82420002318461037BD4680BD23
:1024D00007040240F8FFFDBFCDCCCCCC0000024089
:1024E000F8FBFDBF0004024080B586B000AFF86085
:1024F000B9607A603B600023FB75FB6893F8243079
:10250000012B01D1022366E0FB68012283F824201D
:10251000FB6893F82530DBB2012B55D1FB68022212
:1025200083F82520FB680022DA63FB681B681A68C1
:10253000FB681B6822F001021A603B687A68B96880
:10254000F86800F0FBF8FB681B6B002B08D0FB68F9
:102550001B681A68FB681B6842F00E021A600FE0E5
:10256000FB681B681A68FB681B6822F004021A608B
:10257000FB681B681A68FB681B6842F00A021A6055
:10258000FB689B6C1B6803F48033002B07D0FB684F
:102590009B6C1A68FB689B6C42F480721A60FB6843
:1025A0005B6D002B07D0FB685B6D1A68FB685B6D89
:1025B00042F480721A60FB681B681A68FB681B682B
:1025C00042F001021A6005E0FB68002283F8242033
:1025D0000223FB75FB7D18461837BD4680BD80B5CC
:1025E00084B000AF78607B681B6C1B68FB607B6805
:1025F0001B681B68BB607B685B6C03F01C030422D8
:102600009A40FB681340002B26D0BB6803F00403FC
:10261000002B21D07B681B681B6803F02003002B74
:1026200007D17B681B681A687B681B6822F004026C
:102630001A607B685B6C03F01C027B681B6C0421D6
:1026400001FA02F25A607B681B6B002B71D07B6829
:102650001B6B786898476CE07B685B6C03F01C032D
:1026600002229A40FB681340002B2ED0BB6803F077
:102670000203002B29D07B681B681B6803F0200332
:10268000002B0BD17B681B681A687B681B6822F0E3
:102690000A021A607B68012283F825207B685B6C44
:1026A00003F01C027B681B6C022101FA02F25A60E3
:1026B0007B68002283F824207B68DB6A002B38D0FB
:1026C0007B68DB6A7868984733E07B685B6C03F073
:1026D0001C0308229A40FB681340002B2AD0BB68D9
:1026E00003F00803002B25D07B681B681A687B6801
:1026F0001B6822F00E021A607B685B6C03F01C0200
:102700007B681B6C012101FA02F25A607B6801228E
:10271000DA637B68012283F825207B68002283F836
:1027200024207B685B6B002B04D07B685B6B786834
:10273000984700BF00BF1037BD4680BD80B485B04C
:1027400000AFF860B9607A603B60FB68DB6CFA68E8
:10275000126D5A60FB685B6D002B04D0FB689B6DAB
:10276000FA68D26D5A60FB685B6C03F01C02FB6870
:102770001B6C012101FA02F25A60FB681B683A687F
:102780005A60FB689B68102B08D1FB681B687A684D
:102790009A60FB681B68BA68DA6007E0FB681B6830
:1027A000BA689A60FB681B687A68DA6000BF143701
:1027B000BD465DF8047B704780B485B000AF78609B
:1027C0007B681B681A46174B9A420AD87B685B6C79
:1027D0009B089B0003F1804303F502337A689364FE
:1027E00007E07B685B6C9B089A000F4B13447A6888
:1027F00093647B681B68DBB2083B0C4AA2FB032393
:102800001B09FB607B680A4ADA64FB6803F01F035C
:1028100001229A407B681A6500BF1437BD465DF8F7
:10282000047B7047070402401C080240CDCCCCCC8E
:102830008008024080B485B000AF78607B685B6838
:1028400003F03F03FB60FA680B4B13449B001A46EE
:102850007B685A657B68094A9A65FB68013B03F00F
:10286000030301229A407B68DA6500BF1437BD4636
:102870005DF8047B704700BF3F82001040090240B2
:1028800080B487B000AF7860396000237B614CE191
:102890003B681A6801217B6901FA03F31340FB606E
:1028A000FB68002B00F03E813B685B6803F003038C
:1028B000012B05D03B685B6803F00303022B30D18A
:1028C0007B689B683B617B695B00032202FA03F330
:1028D000DB433A6913403B613B68DA687B695B0024
:1028E00002FA03F33A6913433B617B683A699A60E1
:1028F0007B685B683B6101227B6902FA03F3DB437F
:102900003A6913403B613B685B681B0903F00102B5
:102910007B6902FA03F33A6913433B617B683A69C6
:102920005A603B685B6803F00303032B17D07B6896
:10293000DB683B617B695B00032202FA03F3DB4344
:102940003A6913403B613B689A687B695B0002FA15
:1029500003F33A6913433B617B683A69DA603B6889
:102960005B6803F00303022B23D17B69DA087B68E1
:10297000083253F822303B617B6903F007039B0068
:102980000F2202FA03F3DB433A6913403B613B68D1
:102990001A697B6903F007039B0002FA03F33A69A3
:1029A00013433B617B69DA087B680832396943F875
:1029B00022107B681B683B617B695B00032202FA83
:1029C00003F3DB433A6913403B613B685B6803F008
:1029D00003027B695B0002FA03F33A6913433B612C
:1029E0007B683A691A603B685B6803F44033002BEC
:1029F00000F09880544A7B699B08023352F82330D8
:102A00003B617B6903F003039B000F2202FA03F38F
:102A1000DB433A6913403B617B68B3F1904F19D0B7
:102A20007B684A4A934213D07B68494A93420DD04F
:102A30007B68484A934207D07B68474A934201D15A
:102A4000042308E0072306E0032304E0022302E056
:102A5000012300E000237A6902F003029200934010
:102A60003A6913433B6138497B699B0802333A69F1
:102A700041F82320394B1B683B61FB68DB433A6913
:102A800013403B613B685B6803F48013002B03D069
:102A90003A69FB6813433B61304A3B6913602F4B33
:102AA0005B683B61FB68DB433A6913403B613B6811
:102AB0005B6803F40013002B03D03A69FB681343EF
:102AC0003B61264A3B695360244BD3F880303B611D
:102AD000FB68DB433A6913403B613B685B6803F486
:102AE0008033002B03D03A69FB6813433B611B4AD8
:102AF0003B69C2F88030194BD3F884303B61FB68E6
:102B0000DB433A6913403B613B685B6803F4003385
:102B1000002B03D03A69FB6813433B610F4A3B69C2
:102B2000C2F884307B6901337B613B681A687B693A
:102B300022FA03F3002B7FF4ABAE00BF00BF1C37BB
:102B4000BD465DF8047B704700000140000400486A
:102B500000080048000C0048001000480008005819
:102B600080B483B000AF78600B467B8013467B70E7
:102B70007B78002B03D07A887B689A6102E07A88A0
:102B80007B689A6200BF0C37BD465DF8047B7047D6
:102B900080B584B000AF78607B68002B01D1012341
:102BA000C0E07B6893F89132DBB2002B06D17B68E2
:102BB000002283F8902278680BF0EEFC7B680322F9
:102BC00083F891227B681B68184603F022FF0023DC
:102BD000FB733EE0FA7B796813469B001344DB00ED
:102BE0000B44113301221A70FA7B796813469B005B
:102BF0001344DB000B441033FA7B1A70FA7B7968BC
:102C000013469B001344DB000B44133300221A705D
:102C1000FA7B796813469B001344DB000B44203396
:102C200000221A60FA7B796813469B001344DB008C
:102C30000B44243300221A60FB7B79685A1C13462C
:102C40009B001344DB000B4400221A60FB7B013322
:102C5000FB737B681B79FA7B9A42BBD30023FB731F
:102C600044E0FA7B796813469B001344DB000B4475
:102C700003F2511300221A70FA7B796813469B0005
:102C80001344DB000B4403F5A873FA7B1A70FA7B3C
:102C9000796813469B001344DB000B4403F2531383
:102CA00000221A70FA7B796813469B001344DB00FC
:102CB0000B4403F5B07300221A60FA7B796813465F
:102CC0009B001344DB000B4403F5B27300221A602F
:102CD000FA7B796813469B001344DB000B4403F531
:102CE000B47300221A60FB7B0133FB737B681B7992
:102CF000FA7B9A42B5D37B6818687B68043393E803
:102D0000060003F0A1FE7B6800221A737B68012293
:102D100083F891227B689B7A012B02D1786801F0BD
:102D20000EFC002318461037BD4680BD80B582B02A
:102D300000AF78607B6893F89032012B01D10223B9
:102D400012E07B68012283F890227B681B6818469A
:102D500003F048FE7B681B68184605F025FC7B687D
:102D6000002283F89022002318460837BD4680BD14
:102D700080B584B000AF78607B681B68184605F0AA
:102D80002AFCF860FB6803F40043002B03D078684A
:102D900000F006FB10E1FB6803F48063002B13D006
:102DA0007B681B68B3F844309AB27B681B6822F4D6
:102DB000806292B2A3F8442078680BF090FC002166
:102DC000786800F0FCF8F7E0FB6803F48043002B20
:102DD0000CD07B681B68B3F844309AB27B681B68E0
:102DE00022F4804292B2A3F84420E5E0FB6803F4A9
:102DF0000053002B0CD07B681B68B3F844309AB2A8
:102E00007B681B6822F4005292B2A3F84420D3E0FE
:102E1000FB6803F48053002B34D07B681B68B3F845
:102E200040309AB27B681B6822F0040292B2A3F889
:102E300040207B681B68B3F840309AB27B681B68FF
:102E400022F0080292B2A3F840207B6893F8C832BF
:102E5000012B07D17B68002283F8C8220021786803
:102E60000BF032FE78680BF073FC7B681B68B3F8DC
:102E700044309AB27B681B6822F4805292B2A3F865
:102E8000442099E0FB6803F40063002B27D07B68A3
:102E90001B68B3F840309AB27B681B6842F00802A6
:102EA00092B2A3F840207B681B68B3F844309AB212
:102EB0007B681B6822F4006292B2A3F844207B680E
:102EC0001B68B3F840309AB27B681B6842F004027A
:102ED00092B2A3F8402078680BF020FC6CE0FB680D
:102EE00003F08003002B40D07B681B68B3F84430AC
:102EF0009AB27B681B6822F0800292B2A3F8442049
:102F00007B6893F8C832002B2BD17B681B68B3F821
:102F100040309AB27B681B6842F0040292B2A3F878
:102F200040207B681B68B3F840309AB27B681B680E
:102F300042F0080292B2A3F840207B68012283F895
:102F4000C8227B681B68B3F854309BB29B0803F01F
:102F50003C027B68C3F8CC22012178680BF0B4FDF9
:102F60002AE078680BF0DAFB26E0FB6803F40073D4
:102F7000002B0FD07B681B68B3F844309AB27B6893
:102F80001B6822F4007292B2A3F8442078680BF018
:102F900098FB11E0FB6803F48073002B0CD07B6876
:102FA0001B68B3F844309AB27B681B6822F48072C5
:102FB00092B2A3F8442000BF1037BD4680BD80B553
:102FC00082B000AF78600B46FB707B6893F890325C
:102FD000012B01D1022312E07B68012283F89022A9
:102FE0007B68FA781A737B681B68FA781146184672
:102FF00005F0C6FA7B68002283F890220023184669
:103000000837BD4680BD80B584B000AF7860084603
:1030100011461A460346FB700B463B801346BB70B5
:103020000023FB7297F90330002B0EDAFB7803F0D4
:10303000070213469B001344DB0010337A681344E5
:10304000FB60FB6801225A700EE0FB7803F0070278
:1030500013469B001344DB0003F5A8737A681344FE
:10306000FB60FB6800225A70FB7803F00703DAB2BA
:10307000FB681A703B88C3F30A02FB681A61FB689D
:10308000BA78DA70BB78022B02D1FB6800221A7181
:103090007B6893F89032012B01D102230EE07B680C
:1030A000012283F890227B681B68F968184603F0B8
:1030B000E9FC7B68002283F89022FB7A18461037DF
:1030C000BD4680BD80B584B000AF78600B46FB7014
:1030D00097F90330002B0EDAFB7803F00702134652
:1030E0009B001344DB0010337A681344FB60FB68D9
:1030F00001225A700EE0FB7803F0070213469B0092
:103100001344DB0003F5A8737A681344FB60FB6883
:1031100000225A70FB7803F00703DAB2FB681A70DA
:103120007B6893F89032012B01D102230EE07B687B
:10313000012283F890227B681B68F968184604F026
:1031400089F97B68002283F8902200231846103703
:10315000BD4680BD80B586B000AFF8607A603B6048
:103160000B46FB72FB7A03F0070213469B001344E5
:10317000DB0003F5A873FA6813447B617B697A6806
:103180005A617B693A689A617B690022DA617B69DE
:1031900000225A70FB7A03F00703DAB27B691A70D7
:1031A000FB681B687969184604F041FB0023184648
:1031B0001837BD4680BD80B483B000AF78600B4641
:1031C000FB70FB7803F00702796813469B001344F9
:1031D000DB000B4403F5B6731B6818460C37BD467D
:1031E0005DF8047B704780B586B000AFF8607A6008
:1031F0003B600B46FB72FB7A03F0070213469B0011
:103200001344DB001033FA6813447B617B697A68EE
:103210005A617B693A689A617B69012283F82420AC
:103220007B693A681A627B690022DA617B69012254
:103230005A70FB7A03F00703DAB27B691A70FB68F5
:103240001B687969184604F0F2FA0023184618370B
:10325000BD4680BD80B584B000AF78600B46FB7082
:10326000FB7803F007037A681279934201D90123AE
:103270003EE097F90330002B0EDAFB7803F00702EB
:1032800013469B001344DB0010337A681344FB6041
:10329000FB6801225A700CE0FA7813469B00134435
:1032A000DB0003F5A8737A681344FB60FB68002217
:1032B0005A70FB6801229A70FB7803F00703DAB2B8
:1032C000FB681A707B6893F89032012B01D10223BE
:1032D0000EE07B68012283F890227B681B68F96806
:1032E000184605F053F87B68002283F890220023EB
:1032F00018461037BD4680BD80B584B000AF7860F9
:103300000B46FB70FB7803F00F037A681279934247
:1033100001D9012340E097F90330002B0EDAFB7846
:1033200003F0070213469B001344DB0010337A6856
:103330001344FB60FB6801225A700EE0FB7803F037
:10334000070213469B001344DB0003F5A8737A6859
:103350001344FB60FB6800225A70FB6800229A70DD
:10336000FB7803F00703DAB2FB681A707B6893F806
:103370009032012B01D102230EE07B68012283F8F9
:1033800090227B681B68F968184605F050F87B6846
:10339000002283F89022002318461037BD4680BDD6
:1033A00080B592B000AF786033E37B681B68B3F8F8
:1033B00044307B877B8FDBB203F00F0387F8393013
:1033C00097F83930002B40F008817B8F03F0100311
:1033D000002B4CD17B681B681B889BB223F4E14314
:1033E00023F070033B817B681A683B896FEA434393
:1033F0006FEA53439BB213807B6810333B647B6856
:103400001B68B3F850309BB21A463B6C1B78DB004C
:1034100013447A681268134403F202431B88C3F30F
:1034200009023B6CDA613B6C5A693B6CDB691A44FC
:103430003B6C5A61002178680BF029F97B681B7B93
:10344000DBB2002B00F0E5823B6C9B69002B40F067
:10345000E0827B681B7BDBB263F07F03DAB27B68C0
:103460001B68A3F84C207B6800221A73D1E27B68AA
:1034700003F5A8733B647B681B681B88FB86FB8E87
:1034800003F40063002B32D07B681B68B3F8503024
:103490009BB21A463B6C1B78DB0013447A681268B7
:1034A000134403F206431B88C3F309023B6CDA6141
:1034B0007B6818687B6803F526713B6CDA883B6C87
:1034C000DB699BB205F0DAF87B681B681B889AB24F
:1034D00040F68F7313407B817B681B687A8942F0CA
:1034E000800292B21A8078680BF0A4F891E2B7F9E2
:1034F0003630002B80F28D827B681B681B889AB265
:1035000040F68F731340FB817B681B68FA8942F099
:10351000800292B21A807B681B68B3F850309BB26D
:103520001A463B6C1B78DB0013447A68126813441C
:1035300003F206431B88C3F309023B6CDA613B6C60
:10354000DB69002B19D03B6C5B69002B15D07B68C5
:1035500018683B6C59693B6CDA883B6CDB699BB241
:1035600005F08CF83B6C5A693B6CDB691A443B6C88
:103570005A61002178680BF06FF87B681B681B8824
:10358000FB86FB8E03F40063002B40F04282FB8E2F
:1035900003F44053B3F5405F00F03B827B681B6847
:1035A0001B889BB223F4804323F07003BB81BB894B
:1035B00083F48053BB81BB8983F40053BB817B6858
:1035C0001A68BB8943F07F4343F47F0343F400430D
:1035D00043F080039BB213801BE27B681B681A4692
:1035E00097F839309B0013441B88FB86B7F93630B7
:1035F000002B80F2F1807B681B681A4697F83930FF
:103600009B0013441B889AB240F68F731340BB860D
:103610007B681B681A4697F839309B001344BA8EB2
:1036200042F0800292B21A8097F8392013469B002C
:103630001344DB0003F5A8737A6813443B643B6CC6
:103640001B7B002B23D17B681B68B3F850309BB2E7
:103650001A463B6C1B78DB0013447A6812681344EB
:1036600003F206431B88C3F30903A7F84630B7F8F3
:103670004630002B00F08B807B6818683B6C5969E2
:103680003B6CDA88B7F8463004F0F8FF7FE03B6C1B
:10369000DB78022B09D1FB8E1A46396C786800F072
:1036A000C6F90346A7F8463071E07B681B681A46E6
:1036B0003B6C1B789B0013441B889BB223F4E043B4
:1036C00023F07003BB877B681B681A463B6C1B7832
:1036D0009B001A44BB8F43F07F4343F47F0343F4C2
:1036E000004343F0C0039BB213807B681B681A46FB
:1036F0003B6C1B789B0013441B889BB203F48043F4
:10370000002B22D07B681B68B3F850309BB21A465E
:103710003B6C1B78DB0013447A681268134403F295
:1037200002431B88C3F30903A7F84630B7F84630B5
:10373000002B2CD07B6818683B6C59693B6C1A894C
:10374000B7F8463004F09AFF21E07B681B68B3F8B5
:1037500050309BB21A463B6C1B78DB0013447A68EE
:103760001268134403F206431B88C3F30903A7F846
:103770004630B7F84630002B09D07B6818683B6CA0
:1037800059693B6C5A89B7F8463004F077FF3B6CB7
:10379000DA69B7F846301A443B6CDA613B6C5A6917
:1037A000B7F846301A443B6C5A613B6C9B69002B5E
:1037B00005D0B7F846203B6C1B699A4206D23B6C99
:1037C0001B78194678680AF047FF05E07B681B689C
:1037D000396C184604F02BF8FB8E03F08003002BA5
:1037E00000F0178197F8392013469B001344DB0043
:1037F00010337A6813443B647B681B681A4697F859
:1038000039309B0013441B889BB223F4E14323F01F
:103810007003FB877B681B681A4697F839309B005A
:103820001A44FB8F6FEA43436FEA53439BB2138002
:103830003B6CDB78012B40F0A1803B6C00229A614D
:103840003B6C1B7B002B00F09280FB8E03F040034F
:10385000002B46D03B6C5B78002B26D17B681B6825
:103860007B617B681B68B3F850309BB21A467B695A
:1038700013447B613B6C1B78DA007B69134403F2D1
:1038800002433B613B691B889BB2C3F309039AB2B5
:103890003B691A803B691B889BB26FEA43436FEA1E
:1038A00053439AB23B691A8061E03B6C5B78012B11
:1038B0005DD17B681B68FB617B681B68B3F8503087
:1038C0009BB21A46FB691344FB613B6C1B78DA0020
:1038D000FB69134403F20243BB61BB6900221A80F7
:1038E00045E07B681B68FB623B6C5B78002B26D154
:1038F0007B681B687B627B681B68B3F850309BB2A7
:103900001A467B6A13447B623B6C1B78DA007B6A45
:10391000134403F206433B623B6A1B889BB2C3F32A
:1039200009039AB23B6A1A803B6A1B889BB26FEA12
:1039300043436FEA53439AB23B6A1A8017E03B6CE9
:103940005B78012B13D17B681B68B3F850309BB2B6
:103950001A46FB6A1344FB623B6C1B78DA00FB6A75
:10396000134403F20643BB62BB6A00221A803B6C1D
:103970001B78194678680AF08AFE4AE0FB8E03F449
:103980008073002B3FD17B681B68B3F850309BB22B
:103990001A463B6C1B78DB0013447A6812681344A8
:1039A00003F202431B88C3F309037B863B6C9A69CD
:1039B0007B8E9A4206D93B6C9A697B8ED21A3B6CFD
:1039C0009A6102E03B6C00229A613B6C9B69002B80
:1039D00006D13B6C1B78194678680AF058FE18E04F
:1039E0003B6C5A697B8E1A443B6C5A613B6CDA69BA
:1039F0007B8E1A443B6CDA617B681B68396C184615
:103A000003F015FF05E0FB8E1A46396C786800F06C
:103A100017F97B681B68B3F844309BB21BB2002BCC
:103A2000FFF6C3AC002318464837BD4680BD80B5BD
:103A300088B000AFF860B9601346FB80FB8803F4E0
:103A40008043002B7CD0FB681B68B3F850309BB2DE
:103A50001A46BB681B78DB001344FA6812681344EB
:103A600003F202431B88C3F309037B83BB689A6993
:103A70007B8B9A4206D3BB689A697B8BD21ABB6850
:103A80009A6102E0BB6800229A61BB689B69002BC7
:103A900023D1FB681B681A46BB681B789B00134444
:103AA0001B889BB223F4804323F070033B833B8B42
:103AB00083F400533B83FB681B681A46BB681B7882
:103AC0009B001A443B8B43F07F4343F47F0343F452
:103AD000004343F080039BB21380FB8803F0400354
:103AE000002B1FD0FB681B681A46BB681B789B0025
:103AF00013441B889BB223F4E04323F07003FB8242
:103B0000FB681B681A46BB681B789B001A44FB8A3B
:103B100043F07F4343F47F0343F4004343F0C00387
:103B20009BB213807B8B002B00F08580FB681868AC
:103B3000BB685969BB681A897B8B04F09FFD7AE0EA
:103B4000FB681B68B3F850309BB21A46BB681B7801
:103B5000DB001344FA681268134403F206431B881F
:103B6000C3F309037B83BB689A697B8B9A4206D3B4
:103B7000BB689A697B8BD21ABB689A6102E0BB680A
:103B800000229A61BB689B69002B23D1FB681B68EC
:103B90001A46BB681B789B0013441B889BB223F416
:103BA000804323F07003FB83FB8B83F40053FB8380
:103BB000FB681B681A46BB681B789B001A44FB8B8A
:103BC00043F07F4343F47F0343F4004343F0800317
:103BD0009BB21380FB8803F04003002B1FD1FB68CE
:103BE0001B681A46BB681B789B0013441B889BB25A
:103BF00023F4E04323F07003BB83FB681B681A4681
:103C0000BB681B789B001A44BB8B43F07F4343F493
:103C10007F0343F4004343F0C0039BB213807B8BCC
:103C2000002B08D0FB681868BB685969BB685A89C3
:103C30007B8B04F023FD7B8B18462037BD4680BD6F
:103C400080B5A6B000AFF860B9601346FB80FB8872
:103C500003F04003002B00F0F781FB681B68B3F80A
:103C600050309BB21A46BB681B78DB001344FA68DD
:103C70001268134403F202431B88C3F30903A7F835
:103C80009630BB689A69B7F896309A4207D9BB68F4
:103C90009A69B7F89630D21ABB689A6102E0BB689D
:103CA00000229A61BB689B69002B40F0E180BB68F1
:103CB0005B78002B26D1FB681B683B63FB681B68A5
:103CC000B3F850309BB21A463B6B13443B63BB685E
:103CD0001B78DA003B6B134403F20243FB62FB6A7E
:103CE0001B889BB2C3F309039AB2FB6A1A80FB6A72
:103CF0001B889BB26FEA43436FEA53439AB2FB6A55
:103D00001A801AE0BB685B78012B16D1FB681B6830
:103D1000BB63FB681B68B3F850309BB21A46BB6BA1
:103D20001344BB63BB681B78DA00BB6B134403F21C
:103D300002437B637B6B00221A80FB681B68BB62BB
:103D4000BB685B78002B26D1FB681B683B62FB6875
:103D50001B68B3F850309BB21A463B6A13443B626F
:103D6000BB681B78DA003B6A134403F20643FB612D
:103D7000FB691B889BB2C3F309039AB2FB691A80E3
:103D8000FB691B889BB26FEA43436FEA53439AB2C5
:103D9000FB691A8017E0BB685B78012B13D1FB68C5
:103DA0001B68B3F850309BB21A46BB6A1344BB621F
:103DB000BB681B78DA00BB6A134403F206437B62DC
:103DC0007B6A00221A80BB68DB78022B23D1FB6858
:103DD0001B681A46BB681B789B0013441B889BB268
:103DE00023F4E04323F040037B837B8B83F02003A9
:103DF0007B83FB681B681A46BB681B789B001A44D0
:103E00007B8B43F07F4343F47F0343F4004343F051
:103E100080039BB21380BB681B781946F8680AF0D0
:103E200036FCFB8803F48043002B1FD0FB681B6823
:103E30001A46BB681B789B0013441B889BB223F473
:103E4000E04323F070033B83FB681B681A46BB68A2
:103E50001B789B001A443B8B43F07F4343F47F0362
:103E600043F4404343F080039BB2138000231FE3DD
:103E7000FB8803F48043002B21D0FB681B681A46A3
:103E8000BB681B789B0013441B889BB223F4E04360
:103E900023F07003A7F84E30FB681B681A46BB6816
:103EA0001B789B001A44B7F84E3043F07F4343F42D
:103EB0007F0343F4404343F080039BB21380BB680D
:103EC00093F82430012B40F0CA82BB685A69B7F8D6
:103ED00096301A44BB685A61BB68DA69B7F8963005
:103EE0001A44BB68DA61BB681A6ABB681B699A42EC
:103EF00009D3BB681B69BB65BB681A6ABB6DD21A64
:103F0000BB681A6215E0BB681B6A002B07D1B7F8C3
:103F10009630BB65BB68002283F8242009E0BB68AB
:103F2000002283F82420BB681B6ABB65BB680022A3
:103F30001A62BB685B78002B5FD1FB681B683B642F
:103F4000FB681B68B3F850309BB21A463B6C1344B5
:103F50003B64BB681B78DA003B6C134403F20243FA
:103F6000FB63FB6B1B889BB2C3F309039AB2FB6B29
:103F70001A80BB6D002B0AD1FB6B1B889BB26FEACA
:103F800043436FEA53439AB2FB6B1A8051E0BB6D17
:103F90003E2B16D8BB6D5B083B65BB6D03F0010380
:103FA000002B02D03B6D01333B65FB6B1B889AB243
:103FB0003B6D9BB29B029BB213439AB2FB6B1A8080
:103FC00037E0BB6D5B093B65BB6D03F01F03002B46
:103FD00002D13B6D013B3B65FB6B1B889AB23B6D8D
:103FE0009BB29B029BB213439BB26FEA43436FEABF
:103FF00053439AB2FB6B1A801BE0BB685B78012BC2
:1040000017D1FB681B68BB64FB681B68B3F85030B2
:104010009BB21A46BB6C1344BB64BB681B78DA00C6
:10402000BB6C134403F202437B64BB6D9AB27B6C9E
:104030001A80FB681868BB685969BB681A89BB6D30
:104040009BB204F0D8FA0AE2FB681B68B3F8503060
:104050009BB21A46BB681B78DB001344FA681268EF
:10406000134403F206431B88C3F30903A7F89630F1
:10407000BB689A69B7F896309A4207D3BB689A69C9
:10408000B7F89630D21ABB689A6102E0BB6800228A
:104090009A61BB689B69002B40F0F680BB685B7837
:1040A000002B26D1FB681B687B67FB681B68B3F895
:1040B00050309BB21A467B6F13447B67BB681B78FA
:1040C000DA007B6F134403F202433B673B6F1B88AC
:1040D0009BB2C3F309039AB23B6F1A803B6F1B88F4
:1040E0009BB26FEA43436FEA53439AB23B6F1A8025
:1040F0001AE0BB685B78012B16D1FB681B68FB6775
:10410000FB681B68B3F850309BB21A46FB6F134430
:10411000FB67BB681B78DA00FB6F134403F20243B2
:10412000BB67BB6F00221A80FB681B68C7F884302E
:10413000BB685B78002B2FD1FB681B68C7F88C30FD
:10414000FB681B68B3F850309BB21A46D7F88C3026
:104150001344C7F88C30BB681B78DA00D7F88C3072
:10416000134403F20643C7F88830D7F888301B8819
:104170009BB2C3F309039AB2D7F888301A80D7F8F4
:1041800088301B889BB26FEA43436FEA53439AB26D
:10419000D7F888301A801CE0BB685B78012B18D1F7
:1041A000FB681B68B3F850309BB21A46D7F88430CE
:1041B0001344C7F88430BB681B78DA00D7F8843022
:1041C000134403F20643C7F88030D7F8803000224A
:1041D0001A80BB68DB78022B27D1FB681B681A4664
:1041E000BB681B789B0013441B889BB223F4E043FD
:1041F00023F04003A7F89430B7F8943083F02003FD
:10420000A7F89430FB681B681A46BB681B789B00B4
:104210001A44B7F8943043F07F4343F47F0343F4E8
:10422000004343F080039BB21380BB681B781946A0
:10423000F8680AF02CFAFB8803F48043002B21D1A4
:10424000FB681B681A46BB681B789B0013441B88DD
:104250009BB223F4E04323F07003A7F89230FB688D
:104260001B681A46BB681B789B001A44B7F892304B
:1042700043F07F4343F47F0343F4404343F0800320
:104280009BB21380002313E1FB8803F48043002BCF
:1042900021D1FB681B681A46BB681B789B0013443E
:1042A0001B889BB223F4E04323F07003A7F8563039
:1042B000FB681B681A46BB681B789B001A44B7F85A
:1042C000563043F07F4343F47F0343F4404343F0CD
:1042D00080039BB21380BB6893F82430012B40F01D
:1042E000BE80BB685A69B7F896301A44BB685A61F9
:1042F000BB68DA69B7F896301A44BB68DA61BB6804
:104300001A6ABB681B699A4209D3BB681B69BB6503
:10431000BB681A6ABB6DD21ABB681A6215E0BB682B
:104320001B6A002B07D1B7F89630BB65BB6800222B
:1043300083F8242009E0BB681B6ABB65BB680022C8
:104340001A62BB68002283F82420FB681B68FB65A7
:10435000BB685B78002B5FD1FB681B68BB66FB68A2
:104360001B68B3F850309BB21A46BB6E1344BB6651
:10437000BB681B78DA00BB6E134403F206437B660E
:104380007B6E1B889BB2C3F309039AB27B6E1A80C3
:10439000BB6D002B0AD17B6E1B889BB26FEA434337
:1043A0006FEA53439AB27B6E1A804EE0BB6D3E2B90
:1043B00016D8BB6D5B083B66BB6D03F00103002B99
:1043C00002D03B6E01333B667B6E1B889AB23B6E1C
:1043D0009BB29B029BB213439AB27B6E1A8034E06D
:1043E000BB6D5B093B66BB6D03F01F03002B02D165
:1043F0003B6E013B3B667B6E1B889AB23B6E9BB269
:104400009B029BB213439BB26FEA43436FEA534351
:104410009AB27B6E1A8018E0BB685B78012B14D1CE
:10442000FB681B68B3F850309BB21A46FB6D13440F
:10443000FB65BB681B78DA00FB6D134403F206438F
:10444000FB66BB6D9AB2FB6E1A80FB681868BB688E
:104450005969BB685A89BB6D9BB204F0CCF8FB6804
:104460001B681A46BB681B789B0013441B889BB2D1
:1044700023F4E04323F04003FB82FB8A83F0100324
:10448000FB82FB8A83F02003FB82FB681B681A46D1
:10449000BB681B789B001A44FB8A43F07F4343F4BC
:1044A0007F0343F4004343F080039BB21380002357
:1044B00018469837BD4680BD80B487B000AFF8601D
:1044C0007B600B467B8113463B817B8903F0800335
:1044D0009BB2002B0BD07B8903F0070213469B0095
:1044E0001344DB001033FA6813447B6109E07A89D6
:1044F00013469B001344DB0003F5A873FA681344CA
:104500007B613B89002B07D17B6900221A737B6892
:104510009AB27B69DA800BE07B6901221A737B68AF
:104520009AB27B691A817B681B0C9AB27B695A81AB
:10453000002318461C37BD465DF8047B704780B4E5
:1045400085B000AF78607B681B68FB607B680122E8
:10455000C3F8D0227B68002283F8C822FB68B3F836
:1045600054309BB243F001039AB2FB68A3F8542085
:10457000FB68B3F854309BB243F002039AB2FB6875
:10458000A3F85420002318461437BD465DF8047B79
:104590007047000080B400AF054B1B68044A43F429
:1045A0008073136000BFBD465DF8047B704700BF99
:1045B0000004005880B400AF044B1B6803F4C063D0
:1045C0001846BD465DF8047B704700BF00040058E4
:1045D00080B400AF054B5B68044A43F480635360CA
:1045E00000BFBD465DF8047B704700BF0004005863
:1045F00080B400AF4FF0B0431B6803F48013B3F5F1
:10460000801F01D1012300E000231846BD465DF85C
:10461000047B704780B400AF4FF0B0431B684FF08D
:10462000B04243F48033136000BFBD465DF8047BA5
:10463000704780B400AF4FF0B0431B684FF0B042FA
:1046400023F48033136000BFBD465DF8047B7047E0
:1046500080B400AF4FF0B0431B6803F40033B3F5F0
:10466000003F01D1012300E000231846BD465DF85C
:10467000047B704780B400AF4FF0B0431B684FF02D
:10468000B04243F48073136000BFBD465DF8047B05
:10469000704780B400AF4FF0B0431B684FF0B0429A
:1046A00023F48073136000BFBD465DF8047B704740
:1046B00080B400AF4FF0B0431B6803F48063B3F5E0
:1046C000806F01D1012300E000231846BD465DF84C
:1046D000047B704780B483B000AF78604FF0B04384
:1046E0005B6823F0FE427B681B064FF0B04113432A
:1046F0004B6000BF0C37BD465DF8047B704780B44B
:1047000000AF4FF0B043D3F898304FF0B04243F0D1
:104710000103C2F8983000BFBD465DF8047B7047C6
:1047200080B400AF4FF0B043D3F898304FF0B042B0
:1047300023F00103C2F8983000BFBD465DF8047B4A
:10474000704780B400AF4FF0B043D3F8983003F017
:104750000203022B01D1012300E000231846BD46CD
:104760005DF8047B704780B400AF4FF0B043D3F8DE
:1047700090304FF0B04243F00103C2F8903000BFD8
:10478000BD465DF8047B704780B400AF4FF0B04386
:10479000D3F890304FF0B04223F00103C2F89030CC
:1047A00000BFBD465DF8047B704780B400AF4FF09A
:1047B000B043D3F890304FF0B04243F00403C2F856
:1047C000903000BFBD465DF8047B704780B400AFF9
:1047D0004FF0B043D3F890304FF0B04223F00403D1
:1047E000C2F8903000BFBD465DF8047B704780B4CE
:1047F00000AF4FF0B043D3F8903003F00203022B28
:1048000001D1012300E000231846BD465DF8047B7A
:10481000704780B400AF4FF0B043D3F894304FF0FE
:10482000B04243F00103C2F8943000BFBD465DF8CA
:10483000047B704780B400AF4FF0B043D3F894309E
:104840004FF0B04223F00103C2F8943000BFBD46E0
:104850005DF8047B704780B400AF4FF0B043D3F8ED
:10486000943003F00203022B01D1012300E0002366
:104870001846BD465DF8047B704780B400AF4FF02A
:10488000B043D3F894304FF0B04243F00403C2F881
:10489000943000BFBD465DF8047B704780B400AF24
:1048A0004FF0B043D3F894304FF0B04223F00403FC
:1048B000C2F8943000BFBD465DF8047B704780B4F9
:1048C00000AF4FF0B043D3F8943003F00803082B47
:1048D00001D1012300E000231846BD465DF8047BAA
:1048E000704780B483B000AF78604FF0B043D3F826
:1048F000943023F470627B681B024FF0B041134385
:10490000C1F8943000BF0C37BD465DF8047B70479A
:1049100080B400AF4FF0B0431B684FF0B04243F09B
:104920000103136000BFBD465DF8047B704780B48F
:1049300000AF4FF0B0431B684FF0B04223F00103CB
:10494000136000BFBD465DF8047B704780B400AFC4
:104950004FF0B0431B6803F00203022B01D1012387
:1049600000E000231846BD465DF8047B704780B424
:1049700083B000AF78604FF0B0431B6823F0F002C3
:104980004FF0B0417B6813430B6000BF0C37BD464E
:104990005DF8047B704780B483B000AF4FF0B04344
:1049A0001B6803F0F0037B607B68B02B01D9B02358
:1049B0007B607B6818460C37BD465DF8047B70470A
:1049C00080B483B000AF78604FF0B0435B6823F4ED
:1049D0007F427B681B024FF0B04113434B6000BF26
:1049E0000C37BD465DF8047B704780B483B000AFE0
:1049F00078604FF0B0439B6823F003024FF0B04162
:104A00007B6813438B6000BF0C37BD465DF8047BA9
:104A1000704780B400AF4FF0B0439B6803F00C03C5
:104A20001846BD465DF8047B704780B483B000AF84
:104A300078604FF0B0439B6823F0F0024FF0B04134
:104A40007B6813438B6000BF0C37BD465DF8047B69
:104A5000704780B483B000AF78604FF0B043D3F8B4
:104A6000083123F0F0024FF0B0417B681343C1F8E6
:104A7000083100BF0C37BD465DF8047B704780B439
:104A800083B000AF78604FF0B043D3F8083123F023
:104A90000F027B681B094FF0B0411343C1F8083186
:104AA00000BF0C37BD465DF8047B704780B483B00F
:104AB00000AF78604FF0B0439B6823F4E0624FF0A2
:104AC000B0417B6813438B6000BF0C37BD465DF877
:104AD000047B704780B483B000AF78604FF0B04380
:104AE0009B6823F460524FF0B0417B6813438B60A6
:104AF00000BF0C37BD465DF8047B704780B400AF43
:104B00004FF0B0439B6803F0F0031846BD465DF8D4
:104B1000047B704780B400AF4FF0B043D3F8083146
:104B200003F0F0031846BD465DF8047B704780B47F
:104B300000AF4FF0B043D3F808311B0103F0F0038E
:104B40001846BD465DF8047B704780B400AF4FF057
:104B5000B0439B6803F4E0631846BD465DF8047BF0
:104B6000704780B400AF4FF0B0439B6803F46053CC
:104B70001846BD465DF8047B704780B400AF4FF027
:104B8000B0431B684FF0B04243F08073136000BF26
:104B9000BD465DF8047B704780B400AF4FF0B04372
:104BA0001B684FF0B04223F08073136000BFBD4616
:104BB0005DF8047B704780B400AF4FF0B0431B68D2
:104BC00003F00073B3F1007F01D1012300E0002363
:104BD0001846BD465DF8047B704780B400AF4FF0C7
:104BE000B043DB681B0A03F07F031846BD465DF83F
:104BF000047B704780B400AF4FF0B043DB6803F034
:104C000060431846BD465DF8047B704780B400AF32
:104C10004FF0B043DB6803F070031846BD465DF803
:104C2000047B704780B400AF4FF0B043DB6803F003
:104C300003031846BD465DF8047B704780B400AF9F
:104C40004FF0B0439B6803F48033B3F5803F01D14C
:104C5000012300E000231846BD465DF8047B704741
:104C600080B400AF4FF0B043D3F8083103F4003301
:104C7000B3F5003F01D1012300E000231846BD46F3
:104C80005DF8047B704780B400AF4FF0B043D3F8B9
:104C9000083103F48033B3F5803F01D1012300E0F4
:104CA00000231846BD465DF8047B704780B400AF12
:104CB0004FF0B0439B6803F40033B3F5003F01D1DC
:104CC000012300E000231846BD465DF8047B7047D1
:104CD00080B400AF4FF0B0439B6803F48023B3F57A
:104CE000802F01D1012300E000231846BD465DF866
:104CF000047B704790B58DB000AF78607B68002B67
:104D000001D1012363E37B681B6803F02003002BC0
:104D100000F08D80FFF77DFEF862FFF783FFB86239
:104D2000FB6A002B05D0FB6A0C2B47D1BB6A012B19
:104D300044D17B68DB69002B01D1012347E37B6809
:104D40005C6AFFF728FE03469C4214D97B685B6AC5
:104D5000184600F04DFD0346002B01D0012336E339
:104D60007B685B6A1846FFF702FE7B681B6A184681
:104D7000FFF726FE13E07B685B6A1846FFF7F7FD36
:104D80007B681B6A1846FFF71BFE7B685B6A184648
:104D900000F02EFD0346002B01D0012317E300F0A5
:104DA000CBFC0346A44A1360A44B1B681846FBF7D0
:104DB000ADFD0346002B39D0012308E37B68DB6996
:104DC000002B1ED0FFF7A4FDFBF752FF786208E02E
:104DD000FBF74EFF02467B6AD31A022B01D903234D
:104DE000F5E2FFF7B3FD0346002BF1D07B685B6A69
:104DF0001846FFF7BCFD7B681B6A1846FFF7E0FD0D
:104E000015E0FFF794FDFBF733FF786208E0FBF74E
:104E10002FFF02467B6AD31A022B01D90323D6E265
:104E2000FFF794FD0346002BF1D100E000BF7B6843
:104E30001B6803F00103002B47D0FFF7EAFD38623F
:104E4000FFF7F0FEF8613B6A082B05D03B6A0C2B9C
:104E500008D1FB69032B05D17B685B68002B34D13B
:104E60000123B4E27B685B68B3F5803F02D1FFF7B2
:104E7000D1FB01E0FFF7DDFB7B685B68002B12D004
:104E8000FBF7F6FE786208E0FBF7F2FE02467B6A6B
:104E9000D31A642B01D9032399E2FFF7D9FB034608
:104EA000002BF1D011E0FBF7E3FE786208E0FBF79E
:104EB000DFFE02467B6AD31A642B01D9032386E204
:104EC000FFF7C6FB0346002BF1D17B681B6803F09C
:104ED0000203002B4CD0FFF79CFDB861FFF7A2FE48
:104EE0007861BB69042B05D0BB690C2B0ED17B69A3
:104EF000022B0BD17B68DB68002B01D1012366E21A
:104F00007B681B691846FFF7E5FB31E07B68DB68CF
:104F1000002B19D0FFF7AEFBFBF7AAFE786208E082
:104F2000FBF7A6FE02467B6AD31A022B01D90323A4
:104F30004DE2FFF7BDFB0346002BF1D07B681B69F8
:104F40001846FFF7C7FB13E0FFF7A3FBFBF790FE44
:104F5000786208E0FBF78CFE02467B6AD31A022BCC
:104F600001D9032333E2FFF7A3FB0346002BF1D162
:104F70007B681B6803F00803002B06D17B681B6865
:104F800003F01003002B00F0A3807B685B69002B0B
:104F900076D07B681B6803F01003002B46D0FFF728
:104FA0005AFC0346002B13D1FFF733FCFBF760FEDE
:104FB000786208E0FBF75CFE02467B6AD31A022B9C
:104FC00001D9032303E2FFF746FC0346002BF1D08F
:104FD000FFF753FCFBF74CFE786208E0FBF748FE56
:104FE00002467B6AD31A032B01D90323EFE1FFF7B3
:104FF00066FC0346002BF1D07B689B691846FFF7DF
:1050000070FCFFF717FCFBF733FE786208E0FBF754
:105010002FFE02467B6AD31A022B01D90323D6E165
:10502000FFF719FC0346002BF1D151E0FFF7F1FB2C
:10503000FBF71EFE78620CE00C0000201000002040
:10504000FBF716FE02467B6AD31A022B01D9032313
:10505000BDE1FFF700FC0346002BF1D0FFF71EFC7B
:1050600008E0FBF705FE02467B6AD31A032B01D941
:105070000323ACE1FFF723FC0346002BF1D127E02B
:10508000FFF70CFCFBF7F4FD786208E0FBF7F0FD9E
:1050900002467B6AD31A032B01D9032397E1FFF75A
:1050A0000EFC0346002BF1D1FFF7C4FBFBF7E0FD3C
:1050B000786208E0FBF7DCFD02467B6AD31A022B1C
:1050C00001D9032383E1FFF7C6FB0346002BF1D18F
:1050D0007B681B6803F00403002B5BD0A74B1B68A5
:1050E00003F48073002B14D1FFF754FAFBF7C0FDD3
:1050F000786208E0FBF7BCFD02467B6AD31A022BFC
:1051000001D9032363E19D4B1B6803F48073002BDB
:10511000F0D07B689B68012B02D1FFF724FB0CE0E9
:105120007B689B68052B04D1FFF73FFBFFF71BFB58
:1051300003E0FFF729FBFFF749FB7B689B68002B27
:1051400014D0FBF795FD78620AE0FBF791FD02466B
:105150007B6AD31A41F28832934201D9032336E1A4
:10516000FFF745FB0346002BEFD013E0FBF780FD74
:1051700078620AE0FBF77CFD02467B6AD31A41F2B3
:105180008832934201D9032321E1FFF730FB034624
:10519000002BEFD17B681B6803F04003002B2CD061
:1051A0007B689B6A002B14D0FFF7A9FAFBF760FD20
:1051B000786208E0FBF75CFD02467B6AD31A022B9B
:1051C00001D9032303E1FFF7BCFA0346002BF1D01A
:1051D00013E0FFF7A5FAFBF74BFD786208E0FBF759
:1051E00047FD02467B6AD31A022B01D90323EEE066
:1051F000FFF7A7FA0346002BF1D17B68DB6A002B8F
:1052000000F0E480FFF705FC38614FF0B043DB6845
:10521000FB607B68DB6A022B40F0B480FB6803F024
:1052200003027B681B6B9A4223D1FB6803F0700278
:105230007B685B6B9A421CD1FB681B0A03F07F0200
:105240007B689B6B9A4214D1FB6803F478127B68ED
:10525000DB6B9A420DD1FB6803F060627B681B6CCC
:105260009A4206D1FB6803F060427B685B6C9A420D
:105270005DD03B690C2B58D04FF0B0431B6803F056
:105280008063002B01D00123A1E0FFF785FCFBF731
:10529000EFFC786208E0FBF7EBFC02467B6AD31A6E
:1052A000022B01D9032392E04FF0B0431B6803F0B7
:1052B0000073002BEFD14FF0B043DA68304B13404E
:1052C0007A68116B7A68526B11437A68926B12029A
:1052D00011437A68D26B11437A68126C11437A6871
:1052E000526C0A434FF0B0411343CB60FFF745FCCB
:1052F0004FF0B043DB684FF0B04243F08053D360CF
:10530000FBF7B6FC786208E0FBF7B2FC02467B6A6A
:10531000D31A022B01D9032359E04FF0B0431B6885
:1053200003F00073002BEFD050E001234FE04FF06B
:10533000B0431B6803F00073002B47D1FFF71DFC3F
:105340004FF0B043DB684FF0B04243F08053D3607E
:10535000FBF78EFC786208E0FBF78AFC02467B6A6A
:10536000D31A022B01D9032331E04FF0B0431B685D
:1053700003F00073002BEFD028E000BF00040058BA
:105380008C80C1113B690C2B1ED0FFF705FCFBF78D
:105390006FFC786208E0FBF76BFC02467B6AD31A6D
:1053A000022B01D9032312E04FF0B0431B6803F036
:1053B0000073002BEFD14FF0B043DA684FF0B041EB
:1053C000054B1340CB6001E0012300E000231846A9
:1053D0003437BD4690BD00BFFCFFFEEE80B584B003
:1053E00000AF786039607B68002B01D101232DE18B
:1053F000984B1B6803F007033A689A421BD9954BF8
:105400001B6823F0070293493B6813430B60FBF7CB
:105410002FFCF86008E0FBF72BFC0246FB68D31A70
:10542000022B01D9032311E18A4B1B6803F0070308
:105430003A689A42EFD17B681B6803F00203002BA5
:1054400016D07B689B681846FFF7EFFAFBF710FC55
:10545000F86008E0FBF70CFC0246FB68D31A022B4D
:1054600001D90323F2E0FFF7E9FB0346002BF1D05B
:105470007B681B6803F02003002B16D07B685B69F8
:105480001846FFF7E6FAFBF7F3FBF86008E0FBF7D6
:10549000EFFB0246FB68D31A022B01D90323D5E0A8
:1054A000FFF7DEFB0346002BF1D07B681B6803F09F
:1054B0004003002B16D07B689B691846FFF7DFFA84
:1054C000FBF7D6FBF86008E0FBF7D2FB0246FB686F
:1054D000D31A022B01D90323B8E0FFF7D4FB03460C
:1054E000002BF1D07B681B6803F00403002B16D05F
:1054F0007B68DB681846FFF7D9FAFBF7B9FBF86061
:1055000008E0FBF7B5FB0246FB68D31A022B01D972
:1055100003239BE0FFF7CAFB0346002BF1D07B6817
:105520001B6803F00803002B17D07B681B69DB00A6
:105530001846FFF7CFFAFBF79BFBF86008E0FBF794
:1055400097FB0246FB68D31A022B01D903237DE0A7
:10555000FFF7BEFB0346002BF1D07B681B6803F00E
:105560000103002B43D07B685B68022B06D1FFF759
:105570006FF80346002B1ED1012367E07B685B6850
:10558000032B06D1FFF717FB0346002B13D1012392
:105590005CE07B685B68002B06D1FFF7D7F9034618
:1055A000002B08D1012351E0FFF782F80346002BBE
:1055B00001D101234AE07B685B681846FFF715FAC2
:1055C000FBF756FBF8600AE0FBF752FB0246FB686C
:1055D000D31A41F28832934201D9032336E0FFF710
:1055E00018FA02467B685B689B009A42ECD1194B23
:1055F0001B6803F007033A689A421BD2154B1B68DD
:1056000023F0070213493B6813430B60FBF730FBA1
:10561000F86008E0FBF72CFB0246FB68D31A022B6C
:1056200001D9032312E00B4B1B6803F007033A6810
:105630009A42EFD100F080F80346074A1360FBF767
:1056400023FB03461846FBF761F90346184610375B
:10565000BD4680BD004000580C00002090B585B0CC
:1056600000AFFFF7D6F978607B68002B0AD1FFF70F
:1056700092F903461B0903F00F032B4A52F823301B
:10568000FB604BE07B68042B02D1284BFB6045E0BC
:105690007B68082B0AD1FEF7ABFF0346012B02D132
:1056A000234BFB603AE0234BFB6037E0FFF7BAFA8D
:1056B00038603B68022B03D03B68032B03D00DE01E
:1056C0001A4BBB6015E0FEF793FF0346012B02D196
:1056D000174BBB600DE0174BBB600AE0FFF75BF9AF
:1056E00003461B0903F00F030F4A52F82330BB6037
:1056F00000BFFFF772FA0246BB6803FB02F4FFF734
:1057000085FA03461B090133B4FBF3F4FFF772FA81
:1057100003465B0F0133B4FBF3F3FB60FB681846F1
:105720001437BD4690BD00BF70F700080024F40098
:1057300000093D0000127A0098B500AFFFF78EFF18
:105740000446FFF7DBF903461B0903F00F03034A86
:1057500052F82330B4FBF3F3184698BD10F7000855
:1057600098B500AFFFF7E8FF0446FFF7FAF90346E4
:10577000DB0A03F00703044A52F8233003F01F0347
:1057800024FA03F3184698BD50F7000880B582B09C
:1057900000AF786039607B686F221A60FFF739F9D3
:1057A00002467B685A60FFF7A9F902467B689A6057
:1057B000FFF7CBF902467B68DA60FFF7D2F90246C1
:1057C0007B681A61FFF7A6F902467B685A61FFF70A
:1057D000AEF902467B689A61044B1B6803F007022E
:1057E0003B681A6000BF0837BD4680BD00400058C6
:1057F00090B585B000AF78607B68B02B03D9154BAE
:10580000DB6AFB6007E07B681B0903F00F03114AAA
:1058100052F82330FB60FFF78AF903461B0903F0B7
:105820000F030D4A52F82330FA68B2FBF3F3BB6062
:10583000BB680A4AA2FB03239C0CFEF7BBFE03468F
:105840001946204600F00CF8034618461437BD46AA
:1058500090BD00BF70F7000810F7000883DE1B43FF
:1058600090B593B000AF78603960374B07F12804EA
:105870000FCB84E80F00354A07F11C0307CA83E801
:105880000700334B07F10C040FCB84E80F00002313
:105890007B643B68B3F5007F1AD100233B6413E0BF
:1058A0003B6C9B0048333B4453F8203C7A689A4257
:1058B00007D83B6C9B0048333B4453F83C3C7B642B
:1058C00020E03B6C01333B643B6C032BE8D919E0CF
:1058D0000023FB6313E0FB6B9B0048333B4453F80E
:1058E0002C3C7A689A4207D8FB6B9B0048333B44B8
:1058F00053F83C3C7B6405E0FB6B0133FB63FB6BC3
:10590000022BE8D9134B1B6823F0070211497B6C6B
:1059100013430B60FBF7ACF9B86308E0FBF7A8F999
:105920000246BB6BD31A022B01D9032307E0094BB4
:105930001B6803F007037A6C9A42EFD100231846E4
:105940004C37BD4690BD00BF14F6000824F6000891
:1059500030F600080040005880B400AF4FF0B0436C
:10596000D3F8903003F00103012B01D1012300E0B3
:1059700000231846BD465DF8047B704780B400AF35
:105980004FF0B043D3F8903003F00203022B01D163
:10599000012300E000231846BD465DF8047B7047F4
:1059A00080B483B000AF78604FF0B043D3F8943048
:1059B00023F440424FF0B0417B681343C1F8943068
:1059C00000BF0C37BD465DF8047B704780B483B0E0
:1059D00000AF78604FF0B0435B6A23F003024FF0F2
:1059E000B0417B6813434B6200BF0C37BD465DF886
:1059F000047B704780B483B000AF78604FF0B04351
:105A00005B6A23F030024FF0B0417B6813434B6276
:105A100000BF0C37BD465DF8047B704780B483B08F
:105A200000AF78604FF0B043D3F8883023F0030222
:105A30004FF0B0417B681343C1F8883000BF0C378A
:105A4000BD465DF8047B704780B483B000AF7860DA
:105A50004FF0B043D3F8883023F440624FF0B041A8
:105A60007B681343C1F8883000BF0C37BD465DF832
:105A7000047B704780B483B000AF78604FF0B043D0
:105A8000D3F888207B681B0903F47F23DB431A408B
:105A90007B681B0103F47F234FF0B0411343C1F82F
:105AA000883000BF0C37BD465DF8047B704780B47A
:105AB00083B000AF78604FF0B043D3F888207B68A4
:105AC0001B0C1B04DB431A407B681B044FF0B041E6
:105AD0001343C1F8883000BF0C37BD465DF8047B26
