:020000040800F2
:100000000000032021060008870400088F04000870
:10001000970400089F040008A704000800000000DF
:10002000000000000000000000000000AF04000815
:10003000BD04000800000000CB040008D90400083B
:100040007906000879060008790600087906000894
:100050007906000879060008790600087906000884
:100060007906000879060008790600087906000874
:100070007906000879060008790600087906000864
:100080007906000879060008790600087906000854
:10009000E5040008790600087906000879060008DA
:1000A0007906000879060008790600087906000834
:1000B0007906000879060008790600087906000824
:1000C0007906000879060008790600087906000814
:1000D0007906000879060008790600087906000804
:1000E00079060008790600087906000879060008F4
:1000F00079060008790600087906000879060008E4
:1001000079060008790600087906000879060008D3
:1001100079060008790600087906000879060008C3
:1001200079060008790600087906000879060008B3
:0C0130007906000879060008790600082E
:1001400010B5054C237833B9044B13B10448AFF311
:1001500000800123237010BD580100200000000022
:100160009C92000808B5034B1BB103490348AFF349
:10017000008008BD000000005C0100209C92000887
:1001800001F0FF01102A2BDB10F0070F08D010F848
:10019000013B013A8B422DD010F0070F42B3F6D14C
:1001A000F0B441EA012141EA014122F007047FF065
:1001B00000070023F0E80256083C85EA010586EABC
:1001C000010685FA47F5A3FA87F586FA47F6A5FAF8
:1001D00087F68EB9EED1F0BC01F0FF0102F0070204
:1001E00032B110F8013B013A83EA010313B1F8D1AF
:1001F0000020704701387047002D06BF3546033890
:10020000073815F0010F07D1013015F4807F02BFC8
:10021000013015F4C03F0130F0BC0138704700BF19
:1002200080B483B000AF78604FF0B043D3F8903023
:1002300023F018024FF0B0417B681343C1F89030AF
:1002400000BF0C37BD465DF8047B704780B485B0B5
:1002500000AF78604FF0B043DA6C4FF0B0417B688C
:100260001343CB644FF0B043DA6C7B681340FB6000
:10027000FB6800BF1437BD465DF8047B7047000083
:1002800080B500AF00F0FAF900F038F800F0A6F8F9
:1002900000F0C1F807F002FE20214FF0904000F07E
:1002A0002FFD134B1B780133DAB2114B1A7010215A
:1002B0004FF0904000F024FD0D4B1B780133DAB273
:1002C0000B4B1A7008214FF0904000F019FD084BBD
:1002D00000221A700749084808F040FB142106481C
:1002E00007F09AFE642000F04FFA00BFD4E700BF89
:1002F00074010020B49200087801002080B59AB003
:1003000000AF07F1200348220021184608F048FBFF
:100310003B1D00221A605A609A60DA601A615A61C5
:100320009A6102F009FA1020FFF77AFF2A4B1B6846
:1003300023F4C063284A43F400731360264B1B6800
:1003400003F4C0633B603B6826233B620123BB622E
:100350004FF48073FB620123FB6340233B63002364
:100360003B6460237B640223FB6401233B65002321
:100370007B651823BB654FF40033FB654FF00053DA
:100380007B664FF000733B6607F12003184602F0CE
:100390005FFD0346002B01D000F068F86F237B60FF
:1003A0000323BB600023FB6000233B6100237B61D0
:1003B0008023BB610023FB613B1D0221184603F033
:1003C000BBF80346002B01D000F050F803F04CFEC0
:1003D00000BF6837BD4680BD0004005880B594B0AA
:1003E00000AF3B4650220021184608F0D9FA4FF4DE
:1003F00000533B600023BB641023FB643B4618465C
:1004000003F0BCFC0346002B01D000F02FF800BF26
:100410005037BD4680BD80B586B000AF3B1D002281
:100420001A605A609A60DA601A610420FFF70EFFC2
:100430000120FFF70BFF0220FFF708FF0022382101
:100440004FF0904000F044FC38237B600123BB60F8
:100450000023FB6000233B613B1D19464FF0904099
:1004600000F0C6FA00BF1837BD4680BD80B400AFAB
:1004700072B600BF00BFFDE780B400AF00BFBD464D
:100480005DF8047B704780B400AF00BFFDE780B427
:1004900000AF00BFFDE780B400AF00BFFDE780B450
:1004A00000AF00BFFDE780B400AF00BFFDE780B440
:1004B00000AF00BFBD465DF8047B704780B400AF5D
:1004C00000BFBD465DF8047B704780B400AF00BF3D
:1004D000BD465DF8047B704780B500AF00F028F999
:1004E00000BF80BD80B500AF024800F013FD00BF23
:1004F00080BD00BF7416002080B586B000AF786064
:10050000144A154BD31A7B617B693B61134B1B6803
:10051000002B02D1114B124A1A60104B1A687B68EB
:1005200013443A699A4207D208F042FA03460C2271
:100530001A604FF0FF3309E0084B1B68FB60074B64
:100540001A687B681344054A1360FB68184618371D
:10055000BD4680BD00000320000400008C01002087
:10056000B81C002080B400AF244BD3F88830234A55
:1005700043F47003C2F888304FF0B0431B684FF06B
:10058000B04243F0010313604FF0B0434FF4E02258
:100590009A604FF0B0431A684FF0B041184B1340C7
:1005A0000B604FF0B043D3F894304FF0B04223F0DB
:1005B0000503C2F894304FF0B043D3F898304FF0B1
:1005C000B04223F00103C2F898304FF0B0430D4A17
:1005D000DA604FF0B0430B4A1A614FF0B0431B682A
:1005E0004FF0B04223F4802313604FF0B043002259
:1005F0009A6100BFBD465DF8047B704700ED00E0E6
:10060000FBFEF6FA00100422D458C4500433C41878
:100610008C42F9D37047036004308842FBD37047A3
:100620000C488546FFF79EFF0B480C490C4A0023F7
:10063000FFF7EDFF0B480C490C4A0023FFF7E7FFDB
:100640000B480C490023FFF7E8FF08F0B7F9FFF764
:1006500017FEFEE7000003200800002058010020DC
:1006600000940008000003200000032050950008BB
:1006700058010020B81C0020FEE7000080B582B0C1
:1006800000AF0023FB710C4B1B680B4A43F48073D3
:100690001360032000F06CF90F2000F00FF8034600
:1006A000002B02D00123FB7101E0FFF7E5FEFB798F
:1006B00018460837BD4680BD0040005880B584B05C
:1006C00000AF78600023FB73174B1B78002B24D0FE
:1006D00003F0E0F80246144B1B7819464FF47A7386
:1006E000B3FBF1F3B2FBF3F3184600F074F90346E1
:1006F000002B0FD17B680F2B09D8002279684FF0AF
:10070000FF3000F040F9094A7B68136007E00123DD
:10071000FB7304E00123FB7301E00123FB73FB7B0C
:1007200018461037BD4680BD100000200C00002088
:1007300080B400AF064B1B781A46064B1B68134467
:10074000044A136000BFBD465DF8047B704700BFDC
:10075000100000209001002080B400AF034B1B6804
:100760001846BD465DF8047B704700BF900100202D
:1007700080B400AF034B1B681846BD465DF8047B90
:10078000704700BF0C00002080B584B000AF7860D7
:10079000FFF7E2FFB8607B68FB60FB68B3F1FF3FE7
:1007A00005D00A4B1B781A46FB681344FB6000BF58
:1007B000FFF7D2FF0246BB68D31AFA689A42F7D80D
:1007C00000BF00BF1037BD4680BD00BF1000002035
:1007D00080B485B000AF78607B6803F00703FB60EE
:1007E0000C4BDB68BB60BA684FF6FF031340BB607D
:1007F000FB681A02BB68134343F0BF6343F4003342
:10080000BB60044ABB68D36000BF1437BD465DF8C7
:10081000047B704700ED00E080B400AF044BDB6860
:100820001B0A03F007031846BD465DF8047B7047BA
:1008300000ED00E080B483B000AF0346FB7197F990
:100840000730002B0BDBFB7903F01F02074997F9F8
:1008500007305B09012000FA02F241F8232000BFB3
:100860000C37BD465DF8047B704700BF00E100E037
:1008700080B483B000AF03463960FB7197F907304D
:10088000002B0ADB3B68DAB20C4997F907301201FA
:10089000D2B20B4483F800230AE03B68DAB208497D
:1008A000FB7903F00F03043B1201D2B20B441A761A
:1008B00000BF0C37BD465DF8047B704700E100E0E7
:1008C00000ED00E080B489B000AFF860B9607A60F4
:1008D000FB6803F00703FB61FB69C3F10703042B0B
:1008E00028BF0423BB61FB690433062B02D9FB69D3
:1008F000033B00E000237B614FF0FF32BB6902FA4B
:1009000003F3DA43BB681A407B699A404FF0FF312A
:100910007B6901FA03F3D9437B680B401343184604
:100920002437BD465DF8047B7047000080B582B077
:1009300000AF78607B68013BB3F1807F01D3012376
:100940000FE00A4A7B68013B53600F214FF0FF30F4
:10095000FFF78EFF054B00229A60044B07221A60B6
:10096000002318460837BD4680BD00BF10E000E0F8
:1009700080B582B000AF78607868FFF729FF00BFCC
:100980000837BD4680BD80B586B000AF0346B9606C
:100990007A60FB73FFF740FF78617A68B96878691D
:1009A000FFF790FF024697F90F3011461846FFF700
:1009B0005FFF00BF1837BD4680BD80B582B000AF75
:1009C0000346FB7197F907301846FFF733FF00BF66
:1009D0000837BD4680BD80B582B000AF78607868CA
:1009E000FFF7A4FF034618460837BD4680BD000048
:1009F00080B487B000AF7860396000237B614CE140
:100A00003B681A6801217B6901FA03F31340FB601C
:100A1000FB68002B00F03E813B685B6803F003033A
:100A2000012B05D03B685B6803F00303022B30D138
:100A30007B689B683B617B695B00032202FA03F3DE
:100A4000DB433A6913403B613B68DA687B695B00D2
:100A500002FA03F33A6913433B617B683A699A608F
:100A60007B685B683B6101227B6902FA03F3DB432D
:100A70003A6913403B613B685B681B0903F0010264
:100A80007B6902FA03F33A6913433B617B683A6975
:100A90005A603B685B6803F00303032B17D07B6845
:100AA000DB683B617B695B00032202FA03F3DB43F3
:100AB0003A6913403B613B689A687B695B0002FAC4
:100AC00003F33A6913433B617B683A69DA603B6838
:100AD0005B6803F00303022B23D17B69DA087B6890
:100AE000083253F822303B617B6903F007039B0017
:100AF0000F2202FA03F3DB433A6913403B613B6880
:100B00001A697B6903F007039B0002FA03F33A6951
:100B100013433B617B69DA087B680832396943F823
:100B200022107B681B683B617B695B00032202FA31
:100B300003F3DB433A6913403B613B685B6803F0B6
:100B400003027B695B0002FA03F33A6913433B61DA
:100B50007B683A691A603B685B6803F44033002B9A
:100B600000F09880544A7B699B08023352F8233086
:100B70003B617B6903F003039B000F2202FA03F33E
:100B8000DB433A6913403B617B68B3F1904F19D066
:100B90007B684A4A934213D07B68494A93420DD0FE
:100BA0007B68484A934207D07B68474A934201D109
:100BB000042308E0072306E0032304E0022302E005
:100BC000012300E000237A6902F0030292009340BF
:100BD0003A6913433B6138497B699B0802333A69A0
:100BE00041F82320394B1B683B61FB68DB433A69C2
:100BF00013403B613B685B6803F48013002B03D018
:100C00003A69FB6813433B61304A3B6913602F4BE1
:100C10005B683B61FB68DB433A6913403B613B68BF
:100C20005B6803F40013002B03D03A69FB6813439D
:100C30003B61264A3B695360244BD3F880303B61CB
:100C4000FB68DB433A6913403B613B685B6803F434
:100C50008033002B03D03A69FB6813433B611B4A86
:100C60003B69C2F88030194BD3F884303B61FB6894
:100C7000DB433A6913403B613B685B6803F4003334
:100C8000002B03D03A69FB6813433B610F4A3B6971
:100C9000C2F884307B6901337B613B681A687B69E9
:100CA00022FA03F3002B7FF4ABAE00BF00BF1C376A
:100CB000BD465DF8047B7047000001400004004819
:100CC00000080048000C00480010004800080058C8
:100CD00080B483B000AF78600B467B8013467B7096
:100CE0007B78002B03D07A887B689A6102E07A884F
:100CF0007B689A6200BF0C37BD465DF8047B704785
:100D000080B485B000AF78600B467B807B685B6900
:100D1000FB607A88FB6813401A04FB68D9437B8820
:100D20000B401A437B689A6100BF1437BD465DF8DB
:100D3000047B704780B584B000AF78607B68002B7F
:100D400001D10123C0E07B6893F89132DBB2002B24
:100D500006D17B68002283F89022786807F0D6FAE3
:100D60007B68032283F891227B681B68184603F096
:100D7000A9FA0023FB733EE0FA7B796813469B00D7
:100D80001344DB000B44113301221A70FA7B79689B
:100D900013469B001344DB000B441033FA7B1A709C
:100DA000FA7B796813469B001344DB000B44133332
:100DB00000221A70FA7B796813469B001344DB000B
:100DC0000B44203300221A60FA7B796813469B009B
:100DD0001344DB000B44243300221A60FB7B796848
:100DE0005A1C13469B001344DB000B4400221A607C
:100DF000FB7B0133FB737B681B79FA7B9A42BBD385
:100E00000023FB7344E0FA7B796813469B0013448C
:100E1000DB000B4403F2511300221A70FA7B79684D
:100E200013469B001344DB000B4403F5A873FA7BC5
:100E30001A70FA7B796813469B001344DB000B445D
:100E400003F2531300221A70FA7B796813469B0051
:100E50001344DB000B4403F5B07300221A60FA7BE5
:100E6000796813469B001344DB000B4403F5B2730F
:100E700000221A60FA7B796813469B001344DB005A
:100E80000B4403F5B47300221A60FB7B0133FB7340
:100E90007B681B79FA7B9A42B5D37B6818687B68BC
:100EA000043393E8060003F028FA7B6800221A73E3
:100EB0007B68012283F891227B689B7A012B02D107
:100EC000786801F00EFC002318461037BD4680BD3F
:100ED00080B582B000AF78607B6893F89032012BC8
:100EE00001D1022312E07B68012283F890227B6803
:100EF0001B68184603F0CFF97B681B68184604F09E
:100F0000ADFF7B68002283F8902200231846083743
:100F1000BD4680BD80B584B000AF78607B681B683B
:100F2000184604F0B2FFF860FB6803F40043002B9E
:100F300003D0786800F006FB10E1FB6803F48063DF
:100F4000002B13D07B681B68B3F844309AB27B68DF
:100F50001B6822F4806292B2A3F84420786807F0FC
:100F600088FA0021786800F0FCF8F7E0FB6803F4E9
:100F70008043002B0CD07B681B68B3F844309AB2D6
:100F80007B681B6822F4804292B2A3F84420E5E01B
:100F9000FB6803F40053002B0CD07B681B68B3F88C
:100FA00044309AB27B681B6822F4005292B2A3F8D4
:100FB0004420D3E0FB6803F48053002B34D07B68DB
:100FC0001B68B3F840309AB27B681B6822F00402B9
:100FD00092B2A3F840207B681B68B3F840309AB205
:100FE0007B681B6822F0080292B2A3F840207B685D
:100FF00093F8C832012B07D17B68002283F8C822FE
:101000000021786807F02AFC786807F06BFA7B68A3
:101010001B68B3F844309AB27B681B6822F4805294
:1010200092B2A3F8442099E0FB6803F40063002B1C
:1010300027D07B681B68B3F840309AB27B681B6886
:1010400042F0080292B2A3F840207B681B68B3F814
:1010500044309AB27B681B6822F4006292B2A3F813
:1010600044207B681B68B3F840309AB27B681B68E9
:1010700042F0040292B2A3F84020786807F018FA10
:101080006CE0FB6803F08003002B40D07B681B689A
:10109000B3F844309AB27B681B6822F0800292B2A7
:1010A000A3F844207B6893F8C832002B2BD17B68CF
:1010B0001B68B3F840309AB27B681B6842F00402A8
:1010C00092B2A3F840207B681B68B3F840309AB214
:1010D0007B681B6842F0080292B2A3F840207B684C
:1010E000012283F8C8227B681B68B3F854309BB296
:1010F0009B0803F03C027B68C3F8CC22012178688E
:1011000007F0ACFB2AE0786807F0D2F926E0FB682C
:1011100003F40073002B0FD07B681B68B3F84430D6
:101120009AB27B681B6822F4007292B2A3F8442042
:10113000786807F090F911E0FB6803F48073002BE6
:101140000CD07B681B68B3F844309AB27B681B688C
:1011500022F4807292B2A3F8442000BF1037BD463B
:1011600080BD80B582B000AF78600B46FB707B68B5
:1011700093F89032012B01D1022312E07B68012207
:1011800083F890227B68FA781A737B681B68FA7878
:101190001146184604F04EFE7B68002283F8902228
:1011A000002318460837BD4680BD80B584B000AF27
:1011B0007860084611461A460346FB700B463B8092
:1011C0001346BB700023FB7297F90330002B0EDA35
:1011D000FB7803F0070213469B001344DB00103337
:1011E0007A681344FB60FB6801225A700EE0FB78BA
:1011F00003F0070213469B001344DB0003F5A873BA
:101200007A681344FB60FB6800225A70FB7803F095
:101210000703DAB2FB681A703B88C3F30A02FB6863
:101220001A61FB68BA78DA70BB78022B02D1FB68CE
:1012300000221A717B6893F89032012B01D10223AE
:101240000EE07B68012283F890227B681B68F968B6
:10125000184603F071F87B68002283F89022FB7A2D
:1012600018461037BD4680BD80B584B000AF7860A9
:101270000B46FB7097F90330002B0EDAFB7803F076
:10128000070213469B001344DB0010337A681344B3
:10129000FB60FB6801225A700EE0FB7803F0070246
:1012A00013469B001344DB0003F5A8737A681344CC
:1012B000FB60FB6800225A70FB7803F00703DAB288
:1012C000FB681A707B6893F89032012B01D10223DE
:1012D0000EE07B68012283F890227B681B68F96826
:1012E000184603F011FD7B68002283F8902200234A
:1012F00018461037BD4680BD80B586B000AFF86097
:101300007A603B600B46FB72FB7A03F007021346E0
:101310009B001344DB0003F5A873FA6813447B6158
:101320007B697A685A617B693A689A617B690022B5
:10133000DA617B6900225A70FB7A03F00703DAB2A4
:101340007B691A70FB681B687969184603F0C9FE4F
:10135000002318461837BD4680BD80B483B000AF67
:1013600078600B46FB70FB7803F007027968134640
:101370009B001344DB000B4403F5B6731B6818464F
:101380000C37BD465DF8047B704780B586B000AF72
:10139000F8607A603B600B46FB72FB7A03F0070251
:1013A00013469B001344DB001033FA6813447B613F
:1013B0007B697A685A617B693A689A617B69012224
:1013C00083F824207B693A681A627B690022DA611B
:1013D0007B6901225A70FB7A03F00703DAB27B695A
:1013E0001A70FB681B687969184603F07AFE0023BF
:1013F00018461837BD4680BD80B584B000AF786010
:101400000B46FB70FB7803F007037A68127993426E
:1014100001D901233EE097F90330002B0EDAFB7867
:1014200003F0070213469B001344DB0010337A6875
:101430001344FB60FB6801225A700CE0FA781346F3
:101440009B001344DB0003F5A8737A681344FB6028
:10145000FB6800225A70FB6801229A70FB7803F047
:101460000703DAB2FB681A707B6893F89032012B9D
:1014700001D102230EE07B68012283F890227B6871
:101480001B68F968184604F0DBFB7B68002283F8D0
:101490009022002318461037BD4680BD80B584B029
:1014A00000AF78600B46FB70FB7803F00F037A689F
:1014B0001279934201D9012340E097F90330002BC0
:1014C0000EDAFB7803F0070213469B001344DB009F
:1014D00010337A681344FB60FB6801225A700EE0F7
:1014E000FB7803F0070213469B001344DB0003F56F
:1014F000A8737A681344FB60FB6800225A70FB688B
:1015000000229A70FB7803F00703DAB2FB681A70C6
:101510007B6893F89032012B01D102230EE07B68A7
:10152000012283F890227B681B68F968184604F052
:10153000D8FB7B68002283F89022002318461037DE
:10154000BD4680BD80B592B000AF786033E37B6864
:101550001B68B3F844307B877B8FDBB203F00F034B
:1015600087F8393097F83930002B40F008817B8FAD
:1015700003F01003002B4CD17B681B681B889BB2C7
:1015800023F4E14323F070033B817B681A683B89B5
:101590006FEA43436FEA53439BB213807B68103377
:1015A0003B647B681B68B3F850309BB21A463B6CB7
:1015B0001B78DB0013447A681268134403F2024379
:1015C0001B88C3F309023B6CDA613B6C5A693B6CC4
:1015D000DB691A443B6C5A610021786806F021FFF0
:1015E0007B681B7BDBB2002B00F0E5823B6C9B69C8
:1015F000002B40F0E0827B681B7BDBB263F07F0353
:10160000DAB27B681B68A3F84C207B6800221A734F
:10161000D1E27B6803F5A8733B647B681B681B8879
:10162000FB86FB8E03F40063002B32D07B681B68C3
:10163000B3F850309BB21A463B6C1B78DB00134466
:101640007A681268134403F206431B88C3F3090245
:101650003B6CDA617B6818687B6803F526713B6C2C
:10166000DA883B6CDB699BB204F062FC7B681B6828
:101670001B889AB240F68F7313407B817B681B688E
:101680007A8942F0800292B21A80786806F09CFE55
:1016900091E2B7F93630002B80F28D827B681B68AF
:1016A0001B889AB240F68F731340FB817B681B68DE
:1016B000FA8942F0800292B21A807B681B68B3F804
:1016C00050309BB21A463B6C1B78DB0013447A689F
:1016D0001268134403F206431B88C3F309023B6CF0
:1016E000DA613B6CDB69002B19D03B6C5B69002B2A
:1016F00015D07B6818683B6C59693B6CDA883B6C89
:10170000DB699BB204F014FC3B6C5A693B6CDB69EF
:101710001A443B6C5A610021786806F067FE7B68CA
:101720001B681B88FB86FB8E03F40063002B40F0D4
:101730004282FB8E03F44053B3F5405F00F03B82DE
:101740007B681B681B889BB223F4804323F07003E3
:10175000BB81BB8983F48053BB81BB8983F4005375
:10176000BB817B681A68BB8943F07F4343F47F03E6
:1017700043F4004343F080039BB213801BE27B6879
:101780001B681A4697F839309B0013441B88FB8668
:10179000B7F93630002B80F2F1807B681B681A465F
:1017A00097F839309B0013441B889AB240F68F7328
:1017B0001340BB867B681B681A4697F839309B003C
:1017C0001344BA8E42F0800292B21A8097F8392000
:1017D00013469B001344DB0003F5A8737A68134497
:1017E0003B643B6C1B7B002B23D17B681B68B3F8ED
:1017F00050309BB21A463B6C1B78DB0013447A686E
:101800001268134403F206431B88C3F30903A7F8C5
:101810004630B7F84630002B00F08B807B681868A4
:101820003B6C59693B6CDA88B7F8463004F080FBB2
:101830007FE03B6CDB78022B09D1FB8E1A46396CBA
:10184000786800F0C6F90346A7F8463071E07B6877
:101850001B681A463B6C1B789B0013441B889BB289
:1018600023F4E04323F07003BB877B681B681A46B0
:101870003B6C1B789B001A44BB8F43F07F4343F4BF
:101880007F0343F4004343F0C0039BB213807B68A3
:101890001B681A463B6C1B789B0013441B889BB249
:1018A00003F48043002B22D07B681B68B3F85030D0
:1018B0009BB21A463B6C1B78DB0013447A681268B3
:1018C000134403F202431B88C3F30903A7F846300D
:1018D000B7F84630002B2CD07B6818683B6C5969F0
:1018E0003B6C1A89B7F8463004F022FB21E07B6894
:1018F0001B68B3F850309BB21A463B6C1B78DB0078
:1019000013447A681268134403F206431B88C3F336
:101910000903A7F84630B7F84630002B09D07B689A
:1019200018683B6C59693B6C5A89B7F8463004F02B
:10193000FFFA3B6CDA69B7F846301A443B6CDA615F
:101940003B6C5A69B7F846301A443B6C5A613B6CA1
:101950009B69002B05D0B7F846203B6C1B699A4267
:1019600006D23B6C1B781946786806F03FFD05E00F
:101970007B681B68396C184603F0B3FBFB8E03F0E1
:101980008003002B00F0178197F8392013469B0045
:101990001344DB0010337A6813443B647B681B6894
:1019A0001A4697F839309B0013441B889BB223F4E6
:1019B000E14323F07003FB877B681B681A4697F8A6
:1019C00039309B001A44FB8F6FEA43436FEA53435D
:1019D0009BB213803B6CDB78012B40F0A1803B6C09
:1019E00000229A613B6C1B7B002B00F09280FB8EE7
:1019F00003F04003002B46D03B6C5B78002B26D1D4
:101A00007B681B687B617B681B68B3F850309BB2B6
:101A10001A467B6913447B613B6C1B78DA007B6957
:101A2000134403F202433B613B691B889BB2C3F33F
:101A300009039AB23B691A803B691B889BB26FEA23
:101A400043436FEA53439AB23B691A8061E03B6CAF
:101A50005B78012B5DD17B681B68FB617B681B6831
:101A6000B3F850309BB21A46FB691344FB613B6CE0
:101A70001B78DA00FB69134403F20243BB61BB69C4
:101A800000221A8045E07B681B68FB623B6C5B7838
:101A9000002B26D17B681B687B627B681B68B3F8D0
:101AA00050309BB21A467B6A13447B623B6C1B78B6
:101AB000DA007B6A134403F206433B623B6A1B88ED
:101AC0009BB2C3F309039AB23B6A1A803B6A1B8834
:101AD0009BB26FEA43436FEA53439AB23B6A1A8060
:101AE00017E03B6C5B78012B13D17B681B68B3F864
:101AF00050309BB21A46FB6A1344FB623B6C1B7866
:101B0000DA00FB6A134403F20643BB62BB6A00229D
:101B10001A803B6C1B781946786806F082FC4AE014
:101B2000FB8E03F48073002B3FD17B681B68B3F8F6
:101B300050309BB21A463B6C1B78DB0013447A682A
:101B40001268134403F202431B88C3F309037B8624
:101B50003B6C9A697B8E9A4206D93B6C9A697B8E64
:101B6000D21A3B6C9A6102E03B6C00229A613B6C9A
:101B70009B69002B06D13B6C1B781946786806F0F0
:101B800050FC18E03B6C5A697B8E1A443B6C5A61DE
:101B90003B6CDA697B8E1A443B6CDA617B681B68AC
:101BA000396C184603F09DFA05E0FB8E1A46396C35
:101BB000786800F017F97B681B68B3F844309BB273
:101BC0001BB2002BFFF6C3AC002318464837BD46B6
:101BD00080BD80B588B000AFF860B9601346FB8067
:101BE000FB8803F48043002B7CD0FB681B68B3F8B0
:101BF00050309BB21A46BB681B78DB001344FA686E
:101C00001268134403F202431B88C3F309037B8366
:101C1000BB689A697B8B9A4206D3BB689A697B8BB7
:101C2000D21ABB689A6102E0BB6800229A61BB6865
:101C30009B69002B23D1FB681B681A46BB681B7885
:101C40009B0013441B889BB223F4804323F0700352
:101C50003B833B8B83F400533B83FB681B681A4632
:101C6000BB681B789B001A443B8B43F07F4343F4D3
:101C70007F0343F4004343F080039BB21380FB884F
:101C800003F04003002B1FD0FB681B681A46BB689B
:101C90001B789B0013441B889BB223F4E04323F082
:101CA0007003FB82FB681B681A46BB681B789B00AD
:101CB0001A44FB8A43F07F4343F47F0343F4004319
:101CC00043F0C0039BB213807B8B002B00F0858018
:101CD000FB681868BB685969BB681A897B8B04F07C
:101CE00027F97AE0FB681B68B3F850309BB21A46BC
:101CF000BB681B78DB001344FA681268134403F2D4
:101D000006431B88C3F309037B83BB689A697B8BFB
:101D10009A4206D3BB689A697B8BD21ABB689A61D8
:101D200002E0BB6800229A61BB689B69002B23D14B
:101D3000FB681B681A46BB681B789B0013441B8812
:101D40009BB223F4804323F07003FB83FB8B83F46B
:101D50000053FB83FB681B681A46BB681B789B001B
:101D60001A44FB8B43F07F4343F47F0343F4004367
:101D700043F080039BB21380FB8803F04003002BE9
:101D80001FD1FB681B681A46BB681B789B00134475
:101D90001B889BB223F4E04323F07003BB83FB68F2
:101DA0001B681A46BB681B789B001A44BB8B43F028
:101DB0007F4343F47F0343F4004343F0C0039BB2EB
:101DC00013807B8B002B08D0FB681868BB685969AF
:101DD000BB685A897B8B04F0ABF87B8B18462037A5
:101DE000BD4680BD80B5A6B000AFF860B9601346AF
:101DF000FB80FB8803F04003002B00F0F781FB68B9
:101E00001B68B3F850309BB21A46BB681B78DB00E6
:101E10001344FA681268134403F202431B88C3F3A5
:101E20000903A7F89630BB689A69B7F896309A42CA
:101E300007D9BB689A69B7F89630D21ABB689A611D
:101E400002E0BB6800229A61BB689B69002B40F0EE
:101E5000E180BB685B78002B26D1FB681B683B6385
:101E6000FB681B68B3F850309BB21A463B6B1344B7
:101E70003B63BB681B78DA003B6B134403F20243FD
:101E8000FB62FB6A1B889BB2C3F309039AB2FB6A2D
:101E90001A80FB6A1B889BB26FEA43436FEA534385
:101EA0009AB2FB6A1A801AE0BB685B78012B16D1E4
:101EB000FB681B68BB63FB681B68B3F850309BB2C0
:101EC0001A46BB6B1344BB63BB681B78DA00BB6B61
:101ED000134403F202437B637B6B00221A80FB688E
:101EE0001B68BB62BB685B78002B26D1FB681B6854
:101EF0003B62FB681B68B3F850309BB21A463B6AE2
:101F000013443B62BB681B78DA003B6A134403F25C
:101F10000643FB61FB691B889BB2C3F309039AB2BA
:101F2000FB691A80FB691B889BB26FEA43436FEA27
:101F300053439AB2FB691A8017E0BB685B78012BA8
:101F400013D1FB681B68B3F850309BB21A46BB6ACA
:101F50001344BB62BB681B78DA00BB6A134403F20C
:101F600006437B627B6A00221A80BB68DB78022B07
:101F700023D1FB681B681A46BB681B789B0013447F
:101F80001B889BB223F4E04323F040037B837B8BCD
:101F900083F020037B83FB681B681A46BB681B78B1
:101FA0009B001A447B8B43F07F4343F47F0343F44D
:101FB000004343F080039BB21380BB681B78194633
:101FC000F86806F02EFAFB8803F48043002B1FD03C
:101FD000FB681B681A46BB681B789B0013441B8870
:101FE0009BB223F4E04323F070033B83FB681B6840
:101FF0001A46BB681B789B001A443B8B43F07F4317
:1020000043F47F0343F4404343F080039BB21380C7
:1020100000231FE3FB8803F48043002B21D0FB68DF
:102020001B681A46BB681B789B0013441B889BB235
:1020300023F4E04323F07003A7F84E30FB681B68DD
:102040001A46BB681B789B001A44B7F84E3043F021
:102050007F4343F47F0343F4404343F080039BB248
:102060001380BB6893F82430012B40F0CA82BB6810
:102070005A69B7F896301A44BB685A61BB68DA6986
:10208000B7F896301A44BB68DA61BB681A6ABB6855
:102090001B699A4209D3BB681B69BB65BB681A6A96
:1020A000BB6DD21ABB681A6215E0BB681B6A002BB5
:1020B00007D1B7F89630BB65BB68002283F82420AF
:1020C00009E0BB68002283F82420BB681B6ABB655B
:1020D000BB6800221A62BB685B78002B5FD1FB688B
:1020E0001B683B64FB681B68B3F850309BB21A4610
:1020F0003B6C13443B64BB681B78DA003B6C1344B5
:1021000003F20243FB63FB6B1B889BB2C3F309031F
:102110009AB2FB6B1A80BB6D002B0AD1FB6B1B883C
:102120009BB26FEA43436FEA53439AB2FB6B1A8048
:1021300051E0BB6D3E2B16D8BB6D5B083B65BB6D9C
:1021400003F00103002B02D03B6D01333B65FB6BB9
:102150001B889AB23B6D9BB29B029BB213439AB20F
:10216000FB6B1A8037E0BB6D5B093B65BB6D03F011
:102170001F03002B02D13B6D013B3B65FB6B1B88B2
:102180009AB23B6D9BB29B029BB213439BB26FEA28
:1021900043436FEA53439AB2FB6B1A801BE0BB6860
:1021A0005B78012B17D1FB681B68BB64FB681B685D
:1021B000B3F850309BB21A46BB6C1344BB64BB6887
:1021C0001B78DA00BB6C134403F202437B64BB6DE3
:1021D0009AB27B6C1A80FB681868BB685969BB6847
:1021E0001A89BB6D9BB203F060FE0AE2FB681B68B4
:1021F000B3F850309BB21A46BB681B78DB0013441F
:10220000FA681268134403F206431B88C3F30903F8
:10221000A7F89630BB689A69B7F896309A4207D308
:10222000BB689A69B7F89630D21ABB689A6102E027
:10223000BB6800229A61BB689B69002B40F0F68066
:10224000BB685B78002B26D1FB681B687B67FB684B
:102250001B68B3F850309BB21A467B6F13447B6700
:10226000BB681B78DA007B6F134403F202433B67C1
:102270003B6F1B889BB2C3F309039AB23B6F1A8072
:102280003B6F1B889BB26FEA43436FEA53439AB29A
:102290003B6F1A801AE0BB685B78012B16D1FB6894
:1022A0001B68FB67FB681B68B3F850309BB21A468B
:1022B000FB6F1344FB67BB681B78DA00FB6F1344AA
:1022C00003F20243BB67BB6F00221A80FB681B68E6
:1022D000C7F88430BB685B78002B2FD1FB681B6884
:1022E000C7F88C30FB681B68B3F850309BB21A46B5
:1022F000D7F88C301344C7F88C30BB681B78DA00F1
:10230000D7F88C30134403F20643C7F88830D7F867
:1023100088301B889BB2C3F309039AB2D7F8883080
:102320001A80D7F888301B889BB26FEA43436FEA64
:1023300053439AB2D7F888301A801CE0BB685B78A8
:10234000012B18D1FB681B68B3F850309BB21A46BA
:10235000D7F884301344C7F88430BB681B78DA00A0
:10236000D7F88430134403F20643C7F88030D7F817
:10237000803000221A80BB68DB78022B27D1FB68F3
:102380001B681A46BB681B789B0013441B889BB2D2
:1023900023F4E04323F04003A7F89430B7F89430D7
:1023A00083F02003A7F89430FB681B681A46BB68CB
:1023B0001B789B001A44B7F8943043F07F4343F4F2
:1023C0007F0343F4004343F080039BB21380BB6858
:1023D0001B781946F86806F024F8FB8803F480435C
:1023E000002B21D1FB681B681A46BB681B789B0039
:1023F00013441B889BB223F4E04323F07003A7F837
:102400009230FB681B681A46BB681B789B001A4415
:10241000B7F8923043F07F4343F47F0343F44043E3
:1024200043F080039BB21380002313E1FB8803F485
:102430008043002B21D1FB681B681A46BB681B78C0
:102440009B0013441B889BB223F4E04323F07003EA
:10245000A7F85630FB681B681A46BB681B789B00C0
:102460001A44B7F8563043F07F4343F47F0343F4F4
:10247000404343F080039BB21380BB6893F8243041
:10248000012B40F0BE80BB685A69B7F896301A44F9
:10249000BB685A61BB68DA69B7F896301A44BB6802
:1024A000DA61BB681A6ABB681B699A4209D3BB68C8
:1024B0001B69BB65BB681A6ABB6DD21ABB681A621E
:1024C00015E0BB681B6A002B07D1B7F89630BB65D7
:1024D000BB68002283F8242009E0BB681B6ABB6547
:1024E000BB6800221A62BB68002283F82420FB68C4
:1024F0001B68FB65BB685B78002B5FD1FB681B68C2
:10250000BB66FB681B68B3F850309BB21A46BB6EC3
:102510001344BB66BB681B78DA00BB6E134403F23E
:1025200006437B667B6E1B889BB2C3F309039AB29A
:102530007B6E1A80BB6D002B0AD17B6E1B889BB211
:102540006FEA43436FEA53439AB27B6E1A804EE0C0
:10255000BB6D3E2B16D8BB6D5B083B66BB6D03F0B5
:102560000103002B02D03B6E01333B667B6E1B8860
:102570009AB23B6E9BB29B029BB213439AB27B6EA4
:102580001A8034E0BB6D5B093B66BB6D03F01F0333
:10259000002B02D13B6E013B3B667B6E1B889AB2DF
:1025A0003B6E9BB29B029BB213439BB26FEA4343C9
:1025B0006FEA53439AB27B6E1A8018E0BB685B786F
:1025C000012B14D1FB681B68B3F850309BB21A463C
:1025D000FB6D1344FB65BB681B78DA00FB6D13448D
:1025E00003F20643FB66BB6D9AB2FB6E1A80FB6872
:1025F0001868BB685969BB685A89BB6D9BB203F008
:1026000054FCFB681B681A46BB681B789B0013448C
:102610001B889BB223F4E04323F04003FB82FB8A38
:1026200083F01003FB82FB8A83F02003FB82FB68AC
:102630001B681A46BB681B789B001A44FB8A43F050
:102640007F4343F47F0343F4004343F080039BB292
:102650001380002318469837BD4680BD80B487B0EC
:1026600000AFF8607B600B467B8113463B817B8922
:1026700003F080039BB2002B0BD07B8903F0070291
:1026800013469B001344DB001033FA6813447B614C
:1026900009E07A8913469B001344DB0003F5A87315
:1026A000FA6813447B613B89002B07D17B690022C8
:1026B0001A737B689AB27B69DA800BE07B6901222E
:1026C0001A737B689AB27B691A817B681B0C9AB279
:1026D0007B695A81002318461C37BD465DF8047B90
:1026E000704780B485B000AF78607B681B68FB6082
:1026F0007B680122C3F8D0227B68002283F8C822BD
:10270000FB68B3F854309BB243F001039AB2FB6804
:10271000A3F85420FB68B3F854309BB243F0020393
:102720009AB2FB68A3F85420002318461437BD461C
:102730005DF8047B7047000080B400AF054B1B6858
:10274000044A43F48073136000BFBD465DF8047B08
:10275000704700BF0004005880B400AF044B1B68F2
:1027600003F4C0631846BD465DF8047B704700BFA4
:102770000004005880B400AF054B5B68044A43F482
:102780008063536000BFBD465DF8047B704700BFA7
:102790000004005880B400AF4FF0B0431B6803F44E
:1027A0008013B3F5801F01D1012300E000231846F8
:1027B000BD465DF8047B704780B400AF4FF0B04376
:1027C0001B684FF0B04243F48033136000BFBD4636
:1027D0005DF8047B704780B400AF4FF0B0431B68D6
:1027E0004FF0B04223F48033136000BFBD465DF864
:1027F000047B704780B400AF4FF0B0431B6803F414
:102800000033B3F5003F01D1012300E00023184657
:10281000BD465DF8047B704780B400AF4FF0B04315
:102820001B684FF0B04243F48073136000BFBD4695
:102830005DF8047B704780B400AF4FF0B0431B6875
:102840004FF0B04223F48073136000BFBD465DF8C3
:10285000047B704780B400AF4FF0B0431B6803F4B3
:102860008063B3F5806F01D1012300E00023184697
:10287000BD465DF8047B704780B483B000AF7860DC
:102880004FF0B0435B6823F0FE427B681B064FF0BD
:10289000B04113434B6000BF0C37BD465DF8047B6D
:1028A000704780B400AF4FF0B043D3F898304FF08A
:1028B000B04243F00103C2F8983000BFBD465DF856
:1028C000047B704780B400AF4FF0B043D3F898302A
:1028D0004FF0B04223F00103C2F8983000BFBD466C
:1028E0005DF8047B704780B400AF4FF0B043D3F87D
:1028F000983003F00203022B01D1012300E00023F2
:102900001846BD465DF8047B704780B400AF4FF0B9
:10291000B043D3F890304FF0B04243F00103C2F817
:10292000903000BFBD465DF8047B704780B400AFB7
:102930004FF0B043D3F890304FF0B04223F0010392
:10294000C2F8903000BFBD465DF8047B704780B48C
:1029500000AF4FF0B043D3F890304FF0B04243F0A7
:102960000403C2F8903000BFBD465DF8047B704799
:1029700080B400AF4FF0B043D3F890304FF0B04286
:1029800023F00403C2F8903000BFBD465DF8047B1D
:10299000704780B400AF4FF0B043D3F8903003F0ED
:1029A0000203022B01D1012300E000231846BD469B
:1029B0005DF8047B704780B400AF4FF0B043D3F8AC
:1029C00094304FF0B04243F00103C2F8943000BF9E
:1029D000BD465DF8047B704780B400AF4FF0B04354
:1029E000D3F894304FF0B04223F00103C2F8943092
:1029F00000BFBD465DF8047B704780B400AF4FF068
:102A0000B043D3F8943003F00203022B01D1012329
:102A100000E000231846BD465DF8047B704780B493
:102A200000AF4FF0B043D3F894304FF0B04243F0D2
:102A30000403C2F8943000BFBD465DF8047B7047C4
:102A400080B400AF4FF0B043D3F894304FF0B042B1
:102A500023F00403C2F8943000BFBD465DF8047B48
:102A6000704780B400AF4FF0B043D3F8943003F018
:102A70000803082B01D1012300E000231846BD46BE
:102A80005DF8047B704780B483B000AF78604FF08E
:102A9000B043D3F8943023F470627B681B024FF08C
:102AA000B0411343C1F8943000BF0C37BD465DF808
:102AB000047B704780B400AF4FF0B0431B684FF009
:102AC000B04243F00103136000BFBD465DF8047BD4
:102AD000704780B400AF4FF0B0431B684FF0B04276
:102AE00023F00103136000BFBD465DF8047B70470F
:102AF00080B400AF4FF0B0431B6803F00203022B19
:102B000001D1012300E000231846BD465DF8047B97
:102B1000704780B483B000AF78604FF0B0431B685B
:102B200023F0F0024FF0B0417B6813430B6000BF0D
:102B30000C37BD465DF8047B704780B483B000AFAE
:102B40004FF0B0431B6803F0F0037B607B68B02B51
:102B500001D9B0237B607B6818460C37BD465DF811
:102B6000047B704780B483B000AF78604FF0B0430F
:102B70005B6823F47F427B681B024FF0B041134334
:102B80004B6000BF0C37BD465DF8047B704780B4D6
:102B900083B000AF78604FF0B0439B6823F003022E
:102BA0004FF0B0417B6813438B6000BF0C37BD46CC
:102BB0005DF8047B704780B400AF4FF0B0439B6872
:102BC00003F00C031846BD465DF8047B704780B4E3
:102BD00083B000AF78604FF0B0439B6823F0F00201
:102BE0004FF0B0417B6813438B6000BF0C37BD468C
:102BF0005DF8047B704780B483B000AF78604FF01D
:102C0000B043D3F8083123F0F0024FF0B0417B68B5
:102C10001343C1F8083100BF0C37BD465DF8047B93
:102C2000704780B483B000AF78604FF0B043D3F802
:102C3000083123F00F027B681B094FF0B0411343AA
:102C4000C1F8083100BF0C37BD465DF8047B704702
:102C500080B483B000AF78604FF0B0439B6823F43A
:102C6000E0624FF0B0417B6813438B6000BF0C37CC
:102C7000BD465DF8047B704780B483B000AF7860D8
:102C80004FF0B0439B6823F460524FF0B0417B6833
:102C900013438B6000BF0C37BD465DF8047B704763
:102CA00080B400AF4FF0B0439B6803F0F0031846C8
:102CB000BD465DF8047B704780B400AF4FF0B04371
:102CC000D3F808311B0103F0F0031846BD465DF848
:102CD000047B704780B400AF4FF0B0431B684FF0E7
:102CE000B04243F08073136000BFBD465DF8047BC3
:102CF000704780B400AF4FF0B0431B684FF0B04254
:102D000023F08073136000BFBD465DF8047B7047FD
:102D100080B400AF4FF0B0431B6803F00073B3F111
:102D2000007F01D1012300E000231846BD465DF875
:102D3000047B704780B400AF4FF0B043DB681B0AE0
:102D400003F07F031846BD465DF8047B704780B4EE
:102D500000AF4FF0B043DB6803F060431846BD4658
:102D60005DF8047B704780B400AF4FF0B043DB6880
:102D700003F070031846BD465DF8047B704780B4CD
:102D800000AF4FF0B043DB6803F003031846BD46C5
:102D90005DF8047B704780B400AF4FF0B0439B6890
:102DA00003F48033B3F5803F01D1012300E0002319
:102DB0001846BD465DF8047B704780B400AF4FF005
:102DC000B043D3F8083103F40033B3F5003F01D129
:102DD000012300E000231846BD465DF8047B7047E0
:102DE00080B400AF4FF0B043D3F8083103F4803320
:102DF000B3F5803F01D1012300E000231846BD4612
:102E00005DF8047B704780B400AF4FF0B0439B681F
:102E100003F40033B3F5003F01D1012300E00023A8
:102E20001846BD465DF8047B704780B400AF4FF094
:102E3000B0439B6803F48023B3F5802F01D10123B5
:102E400000E000231846BD465DF8047B7047000093
:102E500090B58DB000AF78607B68002B01D1012365
:102E600063E37B681B6803F02003002B00F08D8078
:102E7000FFF7A1FEF862FFF782FFB862FB6A002B42
:102E800005D0FB6A0C2B47D1BB6A012B44D17B6870
:102E9000DB69002B01D1012347E37B685C6AFFF704
:102EA0004CFE03469C4214D97B685B6A184600F0CE
:102EB00005FD0346002B01D0012336E37B685B6AE6
:102EC0001846FFF726FE7B681B6A1846FFF74AFE86
:102ED00013E07B685B6A1846FFF71BFE7B681B6A82
:102EE0001846FFF73FFE7B685B6A184600F0E6FC79
:102EF0000346002B01D0012317E300F0CBFC03466F
:102F0000A44A1360A44B1B681846FDF7D7FB034681
:102F1000002B39D0012308E37B68DB69002B1ED02E
:102F2000FFF7C8FDFDF718FC786208E0FDF714FC18
:102F300002467B6AD31A022B01D90323F5E2FFF77D
:102F4000D7FD0346002BF1D07B685B6A1846FFF77C
:102F5000E0FD7B681B6A1846FFF704FE15E0FFF7EB
:102F6000B8FDFDF7F9FB786208E0FDF7F5FB0246D6
:102F70007B6AD31A022B01D90323D6E2FFF7B8FDEF
:102F80000346002BF1D100E000BF7B681B6803F013
:102F90000103002B47D0FFF70EFE3862FFF7EFFE6C
:102FA000F8613B6A082B05D03B6A0C2B08D1FB6902
:102FB000032B05D17B685B68002B34D10123B4E27D
:102FC0007B685B68B3F5803F02D1FFF7F5FB01E05A
:102FD000FFF701FC7B685B68002B12D0FDF7BCFBA0
:102FE000786208E0FDF7B8FB02467B6AD31A642BCF
:102FF00001D9032399E2FFF7FDFB0346002BF1D033
:1030000011E0FDF7A9FB786208E0FDF7A5FB024699
:103010007B6AD31A642B01D9032386E2FFF7EAFB0C
:103020000346002BF1D17B681B6803F00203002BE1
:103030004CD0FFF7C0FDB861FFF7A1FE7861BB6916
:10304000042B05D0BB690C2B0ED17B69022B0BD155
:103050007B68DB68002B01D1012366E27B681B697A
:103060001846FFF709FC31E07B68DB68002B19D0BC
:10307000FFF7D2FBFDF770FB786208E0FDF76CFB11
:1030800002467B6AD31A022B01D903234DE2FFF7D4
:10309000E1FB0346002BF1D07B681B691846FFF764
:1030A000EBFB13E0FFF7C7FBFDF756FB786208E088
:1030B000FDF752FB02467B6AD31A022B01D9032388
:1030C00033E2FFF7C7FB0346002BF1D17B681B6897
:1030D00003F00803002B06D17B681B6803F0100384
:1030E000002B00F0A3807B685B69002B76D07B68A7
:1030F0001B6803F01003002B46D0FFF77EFC03464D
:10310000002B13D1FFF757FCFDF726FB786208E090
:10311000FDF722FB02467B6AD31A022B01D9032357
:1031200003E2FFF76AFC0346002BF1D0FFF777FCC0
:10313000FDF712FB786208E0FDF70EFB02467B6AA2
:10314000D31A032B01D90323EFE1FFF78AFC0346CF
:10315000002BF1D07B689B691846FFF794FCFFF7C2
:103160003BFCFDF7F9FA786208E0FDF7F5FA024654
:103170007B6AD31A022B01D90323D6E1FFF73DFC6A
:103180000346002BF1D151E0FFF715FCFDF7E4FAFF
:1031900078620CE0080000200C000020FDF7DCFA4B
:1031A00002467B6AD31A022B01D90323BDE1FFF744
:1031B00024FC0346002BF1D0FFF742FC08E0FDF7AA
:1031C000CBFA02467B6AD31A032B01D90323ACE165
:1031D000FFF747FC0346002BF1D127E0FFF730FC57
:1031E000FDF7BAFA786208E0FDF7B6FA02467B6AA4
:1031F000D31A032B01D9032397E1FFF732FC0346CF
:10320000002BF1D1FFF7E8FBFDF7A6FA786208E0A2
:10321000FDF7A2FA02467B6AD31A022B01D90323D7
:1032200083E1FFF7EAFB0346002BF1D17B681B68C3
:1032300003F00403002B5BD0A74B1B6803F48073DF
:10324000002B14D1FFF778FAFDF786FA786208E0D0
:10325000FDF782FA02467B6AD31A022B01D90323B7
:1032600063E19D4B1B6803F48073002BF0D07B68F7
:103270009B68012B02D1FFF748FB0CE07B689B6841
:10328000052B04D1FFF763FBFFF73FFB03E0FFF7DC
:103290004DFBFFF76DFB7B689B68002B14D0FDF79F
:1032A0005BFA78620AE0FDF757FA02467B6AD31AA6
:1032B00041F28832934201D9032336E1FFF769FBDB
:1032C0000346002BEFD013E0FDF746FA78620AE0E0
:1032D000FDF742FA02467B6AD31A41F288329342E2
:1032E00001D9032321E1FFF754FB0346002BEFD163
:1032F0007B681B6803F04003002B2CD07B689B6A23
:10330000002B14D0FFF7CDFAFDF726FA786208E01B
:10331000FDF722FA02467B6AD31A022B01D9032356
:1033200003E1FFF7E0FA0346002BF1D013E0FFF7CB
:10333000C9FAFDF711FA786208E0FDF70DFA0246C6
:103340007B6AD31A022B01D90323EEE0FFF7CBFAF5
:103350000346002BF1D17B68DB6A002B00F0E48090
:10336000FFF729FC38614FF0B043DB68FB607B68F6
:10337000DB6A022B40F0B480FB6803F003027B6839
:103380001B6B9A4223D1FB6803F070027B685B6B76
:103390009A421CD1FB681B0A03F07F027B689B6B7F
:1033A0009A4214D1FB6803F478127B68DB6B9A4273
:1033B0000DD1FB6803F060627B681B6C9A4206D1FA
:1033C000FB6803F060427B685B6C9A425DD03B69AE
:1033D0000C2B58D04FF0B0431B6803F08063002BD8
:1033E00001D00123A1E0FFF784FCFDF7B5F9786275
:1033F00008E0FDF7B1F902467B6AD31A022B01D926
:10340000032392E04FF0B0431B6803F00073002BDE
:10341000EFD14FF0B043DA68304B13407A68116B4C
:103420007A68526B11437A68926B120211437A6880
:10343000D26B11437A68126C11437A68526C0A435A
:103440004FF0B0411343CB60FFF744FC4FF0B04363
:10345000DB684FF0B04243F08053D360FDF77CF956
:10346000786208E0FDF778F902467B6AD31A022BEE
:1034700001D9032359E04FF0B0431B6803F00073F8
:10348000002BEFD050E001234FE04FF0B0431B681A
:1034900003F00073002B47D1FFF71CFC4FF0B04343
:1034A000DB684FF0B04243F08053D360FDF754F92E
:1034B000786208E0FDF750F902467B6AD31A022BC6
:1034C00001D9032331E04FF0B0431B6803F00073D0
:1034D000002BEFD028E000BF000400588C80C11101
:1034E0003B690C2B1ED0FFF704FCFDF735F9786221
:1034F00008E0FDF731F902467B6AD31A022B01D9A5
:10350000032312E04FF0B0431B6803F00073002B5D
:10351000EFD14FF0B043DA684FF0B041054B1340A4
:10352000CB6001E0012300E0002318463437BD469C
:1035300090BD00BFFCFFFEEE80B584B000AF7860A8
:1035400039607B68002B01D101232DE1984B1B686A
:1035500003F007033A689A421BD9954B1B6823F086
:10356000070293493B6813430B60FDF7F5F8F860D9
:1035700008E0FDF7F1F80246FB68D31A022B01D9E7
:10358000032311E18A4B1B6803F007033A689A4250
:10359000EFD17B681B6803F00203002B16D07B6819
:1035A0009B681846FFF713FBFDF7D6F8F86008E0B4
:1035B000FDF7D2F80246FB68D31A022B01D9032388
:1035C000F2E0FFF7E8FB0346002BF1D07B681B68B5
:1035D00003F02003002B16D07B685B691846FFF7C9
:1035E0000AFBFDF7B9F8F86008E0FDF7B5F8024608
:1035F000FB68D31A022B01D90323D5E0FFF7DDFBCB
:103600000346002BF1D07B681B6803F04003002BBE
:1036100016D07B689B691846FFF703FBFDF79CF803
:10362000F86008E0FDF798F80246FB68D31A022B11
:1036300001D90323B8E0FFF7D3FB0346002BF1D0F9
:103640007B681B6803F00403002B16D07B68DB68E3
:103650001846FFF7FDFAFDF77FF8F86008E0FDF780
:103660007BF80246FB68D31A022B01D903239BE0A7
:10367000FFF7C9FB0346002BF1D07B681B6803F002
:103680000803002B17D07B681B69DB001846FFF787
:10369000F3FAFDF761F8F86008E0FDF75DF802461F
:1036A000FB68D31A022B01D903237DE0FFF7BDFB92
:1036B0000346002BF1D07B681B6803F00103002B4D
:1036C00043D07B685B68022B06D1FFF793F8034673
:1036D000002B1ED1012367E07B685B68032B06D1BA
:1036E000FFF716FB0346002B13D101235CE07B6838
:1036F0005B68002B06D1FFF7FBF90346002B08D1CE
:10370000012351E0FFF7A6F80346002B01D1012366
:103710004AE07B685B681846FFF739FAFDF71CF84A
:10372000F8600AE0FDF718F80246FB68D31A41F288
:103730008832934201D9032336E0FFF73CFA024670
:103740007B685B689B009A42ECD1194B1B6803F0C5
:1037500007033A689A421BD2154B1B6823F00702F5
:1037600013493B6813430B60FCF7F6FFF86008E071
:10377000FCF7F2FF0246FB68D31A022B01D90323A0
:1037800012E00B4B1B6803F007033A689A42EFD133
:1037900000F080F80346074A1360FCF7E9FF034690
:1037A0001846FCF78BFF034618461037BD4680BD10
:1037B000004000580800002090B585B000AFFFF72A
:1037C000FAF978607B68002B0AD1FFF7B6F9034657
:1037D0001B0903F00F032B4A52F82330FB604BE028
:1037E0007B68042B02D1284BFB6045E07B68082BEB
:1037F0000AD1FEF7CFFF0346012B02D1234BFB601A
:103800003AE0234BFB6037E0FFF7B9FA38603B68DA
:10381000022B03D03B68032B03D00DE01A4BBB6097
:1038200015E0FEF7B7FF0346012B02D1174BBB6033
:103830000DE0174BBB600AE0FFF77FF903461B0959
:1038400003F00F030F4A52F82330BB6000BFFFF7AD
:1038500071FA0246BB6803FB02F4FFF784FA0346E1
:103860001B090133B4FBF3F4FFF771FA03465B0F56
:103870000133B4FBF3F3FB60FB6818461437BD4615
:1038800090BD00BF7C9300080024F40000093D00B7
:1038900000127A0098B500AFFFF78EFF0446FFF7DD
:1038A000FFF903461B0903F00F03034A52F82330C4
:1038B000B4FBF3F3184698BD3C93000890B585B06F
:1038C00000AF78607B68B02B03D9154BDB6AFB60D7
:1038D00007E07B681B0903F00F03114A52F82330FD
:1038E000FB60FFF7E9F903461B0903F00F030D4ADC
:1038F00052F82330FA68B2FBF3F3BB60BB680A4AA4
:10390000A2FB03239C0CFEF727FF03461946204623
:1039100000F00CF8034618461437BD4690BD00BFB2
:103920007C9300083C93000883DE1B4390B593B062
:1039300000AF78603960374B07F128040FCB84E87B
:103940000F00354A07F11C0307CA83E80700334B11
:1039500007F10C040FCB84E80F0000237B643B6865
:10396000B3F5007F1AD100233B6413E03B6C9B004E
:1039700048333B4453F8203C7A689A4207D83B6C62
:103980009B0048333B4453F83C3C7B6420E03B6C59
:1039900001333B643B6C032BE8D919E00023FB6344
:1039A00013E0FB6B9B0048333B4453F82C3C7A6894
:1039B0009A4207D8FB6B9B0048333B4453F83C3C8E
:1039C0007B6405E0FB6B0133FB63FB6B022BE8D9E7
:1039D000134B1B6823F0070211497B6C13430B60E8
:1039E000FCF7BAFEB86308E0FCF7B6FE0246BB6B14
:1039F000D31A022B01D9032307E0094B1B6803F0FC
:103A000007037A6C9A42EFD1002318464C37BD4623
:103A100090BD00BFC8920008D8920008E492000848
:103A20000040005880B400AF4FF0B043D3F890305E
:103A300003F00103012B01D1012300E0002318460C
:103A4000BD465DF8047B704780B400AF4FF0B043D3
:103A5000D3F8903003F00203022B01D1012300E0E0
:103A600000231846BD465DF8047B704780B400AF64
:103A70004FF0B0431B684FF0B04243F004031360B3
:103A800000BFBD465DF8047B704780B483B000AFD3
:103A900078604FF0B043D3F8943023F440424FF0B5
:103AA000B0417B681343C1F8943000BF0C37BD466A
:103AB0005DF8047B704780B483B000AF78604FF04E
:103AC000B0435B6A23F003024FF0B0417B681343BD
:103AD0004B6200BF0C37BD465DF8047B704780B475
:103AE00083B000AF78604FF0B0435B6A23F03002E0
:103AF0004FF0B0417B6813434B6200BF0C37BD46AB
:103B00005DF8047B704780B483B000AF78604FF0FD
:103B1000B043D3F8883023F003024FF0B0417B6804
:103B20001343C1F8883000BF0C37BD465DF8047BF5
:103B3000704780B483B000AF78604FF0B043D3F8E3
:103B4000883023F440624FF0B0417B681343C1F8E2
:103B5000883000BF0C37BD465DF8047B704780B4E9
:103B600083B000AF78604FF0B043D3F888207B6813
:103B70001B0903F47F23DB431A407B681B0103F41A
:103B80007F234FF0B0411343C1F8883000BF0C379A
:103B9000BD465DF8047B704780B483B000AF7860A9
:103BA0004FF0B043D3F888207B681B0C1B04DB4329
:103BB0001A407B681B044FF0B0411343C1F88830B2
:103BC00000BF0C37BD465DF8047B704780B483B0FE
:103BD00000AF78604FF0B043D3F8883023F4400250
:103BE0004FF0B0417B681343C1F8883000BF0C37F9
:103BF000BD465DF8047B704780B483B000AF786049
:103C00004FF0B043D3F8883023F040424FF0B0413A
:103C10007B681343C1F8883000BF0C37BD465DF8A0
:103C2000047B704780B483B000AF78604FF0B0433E
:103C3000D3F8883023F040624FF0B0417B681343E3
:103C4000C1F8883000BF0C37BD465DF8047B704773
:103C500080B582B000AF78607868FFF7E3FF00BFFF
:103C60000837BD4680BD80B483B000AF78604FF0A8
:103C7000B043D3F8883023F040524FF0B0417B6816
:103C80001343C1F8883000BF0C37BD465DF8047B94
:103C9000704780B483B000AF78604FF0B043D3F882
:103CA000903023F440724FF0B0417B681343C1F869
:103CB000903000BF0C37BD465DF8047B704780B480
:103CC00000AF4FF0B043D3F8903003F44073184680
:103CD000BD465DF8047B704780B400AF4FF0B04341
:103CE000D3F890304FF0B04243F48033C2F89030B4
:103CF00000BFBD465DF8047B704780B400AF4FF055
:103D0000B043D3F890304FF0B04223F48033C2F880
:103D1000903000BFBD465DF8047B704780B400AFB3
:103D20004FF0B0431B684FF0B04243F08063136024
:103D300000BFBD465DF8047B704780B400AF4FF014
:103D4000B0431B684FF0B04223F08063136000BFA4
:103D5000BD465DF8047B704780B400AF4FF0B043C0
:103D60001B6803F00063B3F1006F01D1012300E091
:103D700000231846BD465DF8047B704780B588B0C7
:103D800000AF78600023FB770023BB777B681B685C
:103D900003F04003002B34D07B681B6BB3F5400F5E
:103DA00021D0B3F5400F1BD8B3F5000F1DD0B3F5EC
:103DB000000F15D8002B0BD0B3F5800F10D14FF0AA
:103DC000B043DB684FF0B04243F48033D3600DE082
:103DD0007B680433184600F04DF90346FB7705E095
:103DE0000123FB7702E000BF00E000BFFB7F002B58
:103DF00005D17B681B6B1846FFF7E8FE01E0FB7FEF
:103E0000BB777B681B6803F40063002B46D0FFF789
:103E100056FFB8617B681B6CBA699A423CD0FEF7CA
:103E20008BFCBB69002B05D17B681B6C1846FFF728
:103E300030FF2EE04FF0B043D3F890307B61FFF7B6
:103E40004BFFFFF75AFF7B6923F440727B681B6CC2
:103E500013437B614FF0B0427B69C2F89030FFF7AB
:103E6000E1FD0346012B14D1FCF776FC38610BE031
:103E7000FCF772FC02463B69D31A41F28832934246
:103E800002D90323FB7704E0FFF7DEFD0346012B95
:103E9000EED1FB7FBB7701E0FB7FBB777B681B68C4
:103EA00003F00103002B04D07B689B691846FFF7E1
:103EB0002AFE7B681B6803F00203002B04D07B689A
:103EC000DB691846FFF735FE7B681B6803F01003BB
:103ED000002B04D07B689B6A1846FFF75DFE7B6869
:103EE0001B6803F02003002B04D07B68DB6A1846B4
:103EF000FFF752FE7B681B6803F00403002B04D01D
:103F00007B681B6A1846FFF72AFE7B681B6803F074
:103F10000803002B04D07B685B6A1846FFF71FFE7E
:103F20007B681B6803F48073002B22D07B685B6B7B
:103F30001846FFF78DFE7B685B6BB3F1006F07D10E
:103F40004FF0B043DB684FF0B04243F08073D36072
:103F50007B685B6BB3F1806F0BD17B6804331846D1
:103F600000F0E3F80346FB77FB7F002B01D0FB7FDB
:103F7000BB777B681B6803F40073002B2BD07B6836
:103F80009B6BB3F1804F08D07B689B6BB3F1004F04
:103F900003D07B689B6B002B05D17B689B6B18461D
:103FA000FFF72AFE0AE07B689B6B23F08053FB60DF
:103FB0000020FFF721FEF868FFF734FE7B689B6B5B
:103FC000B3F1C05F07D14FF0B043DB684FF0B042B0
:103FD00043F08073D3607B681B6803F48063002B1D
:103FE00022D07B68DB6B1846FFF73DFE7B68DB6BFE
:103FF000B3F1005F07D14FF0B043DB684FF0B04240
:1040000043F48033D3607B68DB6BB3F1805F0BD10B
:104010007B680433184600F0E3F80346FB77FB7F28
:10402000002B01D0FB7FBB777B681B6803F48053B8
:10403000002B04D07B685B6C1846FFF726FD7B687D
:104040001B6803F40053002B09D07B68DB6C184617
:10405000FFF745FD7B689B6C1846FFF72CFDBB7F87
:1040600018462037BD4680BD80B500AFFFF7FEFC87
:1040700000BF80BD80B584B000AF78600023FB73C3
:10408000FFF75BFEFCF768FBB86009E0FCF764FB38
:104090000246BB68D31A022B02D90323FB7304E048
:1040A000FFF75AFE0346002BF0D1FB7B002B37D1E4
:1040B0004FF0B0431B6923F4FE427B681B681B0270
:1040C0004FF0B04113430B614FF0B0431B6923F431
:1040D00078127B685B684FF0B04113430B61FFF7C8
:1040E0001DFEFCF739FBB86009E0FCF735FB024622
:1040F000BB68D31A022B02D90323FB7304E0FFF73A
:104100002BFE0346012BF0D1FB7B002B08D14FF097
:10411000B0431A697B681B694FF0B04113430B61D0
:10412000FB7B18461037BD4680BD80B584B000AF1C
:1041300078600023FB73FFF700FEFCF70DFBB8600F
:1041400009E0FCF709FB0246BB68D31A022B02D92F
:104150000323FB7304E0FFF7FFFD0346002BF0D1C0
:10416000FB7B002B37D14FF0B0431B6923F4FE4299
:104170007B681B681B024FF0B04113430B614FF08B
:10418000B0431B6923F060627B689B684FF0B041CD
:1041900013430B61FFF7C2FDFCF7DEFAB86009E0DC
:1041A000FCF7DAFA0246BB68D31A022B02D90323C2
:1041B000FB7304E0FFF7D0FD0346012BF0D1FB7B3E
:1041C000002B08D14FF0B0431A697B681B694FF090
:1041D000B04113430B61FB7B18461037BD4680BDD1
:1041E00080B584B000AF78600023FB73FFF7A5FDB6
:1041F000FCF7B2FAB86009E0FCF7AEFA0246BB6819
:10420000D31A022B02D90323FB7304E0FFF7A4FDAA
:104210000346002BF0D1FB7B002B37D14FF0B0438E
:104220001B6923F4FE427B681B681B024FF0B04100
:1042300013430B614FF0B0431B6923F060427B686E
:10424000DB684FF0B04113430B61FFF767FDFCF7EC
:1042500083FAB86009E0FCF77FFA0246BB68D31A1C
:10426000022B02D90323FB7304E0FFF775FD03461D
:10427000012BF0D1FB7B002B08D14FF0B0431A6922
:104280007B681B694FF0B04113430B61FB7B184601
:104290001037BD4680BD80B485B000AF78607B68C4
:1042A0000022A3F844204BF68073FB60FB689AB2AF
:1042B0007B68A3F84020002318461437BD465DF8FC
:1042C000047B704780B485B000AF78604BF6807394
:1042D000FB607B68B3F840309AB2FB689BB2DB436B
:1042E0009BB213409AB27B68A3F840200023184683
:1042F0001437BD465DF8047B704780B485B000AFCD
:10430000F8603B1D83E80600FB680122A3F840200B
:10431000FB680022A3F84020FB680022A3F8442099
:10432000FB680022A3F85020002318461437BD462E
:104330005DF8047B7047000080B4A7B000AF7860E0
:104340003960002387F897307A683B681B789B00B8
:1043500013441B889BB223F4EC4323F07003A7F8AB
:1043600094303B68DB78032B1FD801A252F823F06E
:10437000814300089D430008B34300088F430008B1
:10438000B7F8943043F40073A7F8943012E0B7F80C
:10439000943043F4C063A7F894300BE0B7F894303E
:1043A00043F48063A7F8943004E0012387F8973042
:1043B00000E000BF7A683B681B789B001A44B7F89E
:1043C000943043F07F4343F47F0343F4004343F0CE
:1043D00080039BB213807A683B681B789B00134470
:1043E0001B889BB21BB223F4E04323F070031AB284
:1043F0003B681B781BB213431BB2A7F886307A6860
:104400003B681B789B001A44B7F8863043F07F4323
:1044100043F47F0343F4004343F080039BB21380D3
:104420003B681B7B002B40F080813B685B78002B56
:1044300000F084807B68BB617B68B3F850309BB22E
:104440001A46BB691344BB613B681B78DA00BB6941
:10445000134403F580637B613B68DB885B089BB298
:104460005B009AB27B691A807A683B681B789B0074
:1044700013441B887B827B8A03F04003002B1BD0F4
:104480007A683B681B789B0013441B889BB223F41B
:10449000E04323F070033B827A683B681B789B0003
:1044A0001A443B8A43F07F4343F47F0343F40043C1
:1044B00043F0C0039BB213803B68DB78012B20D014
:1044C0007A683B681B789B0013441B889BB223F4DB
:1044D000E04323F04003BB81BB8983F02003BB8111
:1044E0007A683B681B789B001A44BB8943F07F4382
:1044F00043F47F0343F4004343F080039BB21380F3
:10450000F9E37A683B681B789B0013441B889BB2D5
:1045100023F4E04323F04003FB817A683B681B7877
:104520009B001A44FB8943F07F4343F47F0343F429
:10453000004343F080039BB21380DCE37B683B6362
:104540007B68B3F850309BB21A463B6B13443B6315
:104550003B681B78DA003B6B134403F20443FB62B5
:104560003B68DB885B089BB25B009AB2FB6A1A80EF
:104570007B68BB627B68B3F850309BB21A46BB6A5B
:104580001344BB623B681B78DA00BB6A134403F236
:1045900006437B627B6A1B889BB2C3F309039AB212
:1045A0007B6A1A803B681B69002B0AD17B6A1B88D7
:1045B0009BB26FEA43436FEA53439AB27B6A1A8015
:1045C00041E03B681B693E2B1CD83B681B695B08BC
:1045D000C7F890303B681B6903F00103002B04D03F
:1045E000D7F890300133C7F890307B6A1B889AB2B5
:1045F000D7F890309BB29B029BB213439AB27B6A6E
:104600001A8020E03B681B695B09C7F890303B6863
:104610001B6903F01F03002B04D1D7F89030013B36
:10462000C7F890307B6A1B889AB2D7F890309BB25B
:104630009B029BB213439BB26FEA43436FEA53431F
:104640009AB27B6A1A807A683B681B789B00134495
:104650001B887B847B8C03F48043002B1BD07A68FF
:104660003B681B789B0013441B889BB223F4E043F8
:1046700023F070033B847A683B681B789B001A44E4
:104680003B8C43F07F4343F47F0343F4404343F0C8
:1046900080039BB213803B681B78002B24D17A687F
:1046A0003B681B789B0013441B889BB223F4804318
:1046B00023F07003BB83BB8B83F48053BB83BB8B22
:1046C00083F40053BB837A683B681B789B001A44D1
:1046D000BB8B43F07F4343F47F0343F4004343F039
:1046E00080039BB2138006E37A683B681B789B00CB
:1046F00013441B889BB223F4804323F07003FB8395
:10470000FB8B83F40053FB837A683B681B789B0028
:104710001A44FB8B43F07F4343F47F0343F400438D
:1047200043F080039BB21380E5E23B68DB78022B09
:104730001ED17A683B681B789B0013441B889BB290
:1047400023F4E04323F07003A7F882307A683B68D3
:104750001B789B001A44B7F8823043F07F4343F440
:104760007F0343F4014343F080039BB213801DE0B9
:104770007A683B681B789B0013441B889BB223F428
:10478000E24323F07003A7F884307A683B681B7813
:104790009B001A44B7F8843043F07F4343F47F030F
:1047A00043F4004343F080039BB213807B68FB67B4
:1047B0007B68B3F850309BB21A46FB6F1344FB671B
:1047C0003B681B78DA00FB6F134403F58063BB671B
:1047D0003B681B895B089BB25B009AB2BB6F1A8077
:1047E0007B687B677B68B3F850309BB21A467B6F5F
:1047F00013447B673B681B78DA007B6F134403F23A
:1048000004433B673B685B895B089BB25B009AB2E1
:104810003B6F1A803B685B78002B40F0AF817A6871
:104820003B681B789B0013441B88A7F86030B7F8DF
:10483000603003F48043002B1DD07A683B681B78FE
:104840009B0013441B889BB223F4E04323F07003C6
:10485000A7F85E307A683B681B789B001A44B7F86B
:104860005E3043F07F4343F47F0343F4404343F01F
:1048700080039BB213807A683B681B789B001344CB
:104880001B88A7F85C30B7F85C3003F04003002BBE
:104890001DD07A683B681B789B0013441B889BB231
:1048A00023F4E04323F07003A7F85A307A683B689A
:1048B0001B789B001A44B7F85A3043F07F4343F407
:1048C0007F0343F4004343F0C0039BB213803B6873
:1048D0005B78002B6BD17B68FB647B68B3F850304E
:1048E0009BB21A46FB6C1344FB643B681B78DA00EE
:1048F000FB6C134403F20243BB64BB6C1B889BB28A
:10490000C3F309039AB2BB6C1A803B681B69002B86
:104910000AD1BB6C1B889BB26FEA43436FEA5343D7
:104920009AB2BB6C1A805DE03B681B693E2B1CD8B9
:104930003B681B695B08C7F88C303B681B6903F058
:104940000103002B04D0D7F88C300133C7F88C302A
:10495000BB6C1B889AB2D7F88C309BB29B029BB27F
:1049600013439AB2BB6C1A803CE03B681B695B093D
:10497000C7F88C303B681B6903F01F03002B04D180
:10498000D7F88C30013BC7F88C30BB6C1B889AB2CF
:10499000D7F88C309BB29B029BB213439BB26FEA59
:1049A00043436FEA53439AB2BB6C1A801AE03B68E8
:1049B0005B78012B16D17B687B657B68B3F8503040
:1049C0009BB21A467B6D13447B653B681B78DA000B
:1049D0007B6D134403F202433B653B681B699AB24B
:1049E0003B6D1A807B687B643B685B78002B6BD1E6
:1049F0007B68FB637B68B3F850309BB21A46FB6B55
:104A00001344FB633B681B78DA00FB6B134403F22F
:104A10000643BB63BB6B1B889BB2C3F309039AB20B
:104A2000BB6B1A803B681B69002B0AD1BB6B1B88D0
:104A30009BB26FEA43436FEA53439AB2BB6B1A804F
:104A40005BE03B681B693E2B1CD83B681B695B081D
:104A5000C7F888303B681B6903F00103002B04D0C2
:104A6000D7F888300133C7F88830BB6B1B889AB2FF
:104A7000D7F888309BB29B029BB213439AB2BB6BB0
:104A80001A803AE03B681B695B09C7F888303B68CD
:104A90001B6903F01F03002B04D1D7F88830013BBA
:104AA000C7F88830BB6B1B889AB2D7F888309BB2A6
:104AB0009B029BB213439BB26FEA43436FEA53439B
:104AC0009AB2BB6B1A8018E03B685B78012B14D15B
:104AD0007B68B3F850309BB21A467B6C13447B64FE
:104AE0003B681B78DA007B6C134403F206433B649B
:104AF0003B681B699AB23B6C1A807A683B681B78EA
:104B00009B0013441B889BB223F4804323F0700363
:104B1000FB86FB8E83F48053FB86FB8E83F400536D
:104B2000FB867A683B681B789B001A44FB8E43F037
:104B30007F4343F47F0343F4004343F080039BB27D
:104B400013807A683B681B789B0013441B889BB2D8
:104B500023F4E04323F04003BB867A683B681B786C
:104B60009B001A44BB8E43F07F4343F47F0343F41E
:104B7000004343F080039BB21380BCE07A683B683B
:104B80001B789B0013441B88A7F86E30B7F86E3073
:104B900003F48043002B1DD07A683B681B789B0090
:104BA00013441B889BB223F4E04323F07003A7F85F
:104BB0006C307A683B681B789B001A44B7F86C30FD
:104BC00043F07F4343F47F0343F4404343F08003C7
:104BD0009BB213807A683B681B789B0013441B8848
:104BE000A7F86A30B7F86A3003F04003002B1DD0F5
:104BF0007A683B681B789B0013441B889BB223F4A4
:104C0000E04323F07003A7F868307A683B681B78AC
:104C10009B001A44B7F8683043F07F4343F47F03A6
:104C200043F4004343F0C0039BB213803B68DB783E
:104C3000012B24D07A683B681B789B0013441B88A7
:104C40009BB223F4E04323F04003A7F86430B7F8A5
:104C5000643083F02003A7F864307A683B681B78DF
:104C60009B001A44B7F8643043F07F4343F47F035A
:104C700043F4004343F080039BB213801DE07A6845
:104C80003B681B789B0013441B889BB223F4E043D2
:104C900023F04003A7F866307A683B681B789B00D6
:104CA0001A44B7F8663043F07F4343F47F0343F47C
:104CB000004343F080039BB213807A683B681B7803
:104CC0009B0013441B889BB223F4804323F07003A2
:104CD000A7F862307A683B681B789B001A44B7F8E3
:104CE000623043F07F4343F47F0343F4004343F0D7
:104CF00080039BB2138097F8973018469C37BD46C7
:104D00005DF8047B704700BF80B48DB000AF786061
:104D100039603B681B7B002B40F08E803B685B78E2
:104D2000002B44D07A683B681B789B0013441B8897
:104D3000BB81BB8903F04003002B1BD07A683B6822
:104D40001B789B0013441B889BB223F4E04323F0A1
:104D500070037B817A683B681B789B001A447B89CF
:104D600043F07F4343F47F0343F4004343F0C00325
:104D70009BB213807A683B681B789B0013441B88A6
:104D80009BB223F4E04323F040033B817A683B6805
:104D90001B789B001A443B8943F07F4343F47F0315
:104DA00043F4004343F080039BB2138092E17A689E
:104DB0003B681B789B0013441B887B827B8A03F42F
:104DC0008043002B1BD07A683B681B789B00134400
:104DD0001B889BB223F4E04323F070033B827A6884
:104DE0003B681B789B001A443B8A43F07F4343F4A3
:104DF0007F0343F4404343F080039BB213807A68FF
:104E00003B681B789B0013441B889BB223F48043B0
:104E100023F07003FB817A683B681B789B001A447F
:104E2000FB8943F07F4343F47F0343F4004343F0A3
:104E300080039BB213804DE13B685B78002B40F010
:104E4000A5807A683B681B789B0013441B883B84D1
:104E50003B8C03F48043002B1BD07A683B681B78A3
:104E60009B0013441B889BB223F4E04323F07003A0
:104E7000FB837A683B681B789B001A44FB8B43F0EA
:104E80007F4343F47F0343F4404343F080039BB2EA
:104E900013807A683B681B789B0013441B88BB8394
:104EA000BB8B03F04003002B1BD07A683B681B7858
:104EB0009B0013441B889BB223F4E04323F0700350
:104EC0007B837A683B681B789B001A447B8B43F09A
:104ED0007F4343F47F0343F4004343F0C0039BB29A
:104EE00013807A683B681B789B0013441B889BB235
:104EF00023F4E04323F070033B837A683B681B781C
:104F00009B001A443B8B43F07F4343F47F0343F4FD
:104F1000004343F0C0039BB213807A683B681B7860
:104F20009B0013441B889BB223F4804323F070033F
:104F3000FB827A683B681B789B001A44FB8A43F02B
:104F40007F4343F47F0343F4004343F080039BB269
:104F500013807A683B681B789B0013441B889BB2C4
:104F600023F4E04323F04003BB827A683B681B785C
:104F70009B001A44BB8A43F07F4343F47F0343F40E
:104F8000004343F080039BB21380A3E07A683B6840
:104F90001B789B0013441B88FB85FB8D03F4804327
:104FA000002B1BD07A683B681B789B0013441B883E
:104FB0009BB223F4E04323F07003BB857A683B681F
:104FC0001B789B001A44BB8D43F07F4343F47F035F
:104FD00043F4404343F080039BB213807A683B68FC
:104FE0001B789B0013441B887B857B8D03F040035B
:104FF000002B1BD07A683B681B789B0013441B88EE
:105000009BB223F4E04323F070033B857A683B684E
:105010001B789B001A443B8D43F07F4343F47F038E
:1050200043F4004343F0C0039BB213807A683B68AB
:105030001B789B0013441B889BB223F4E04323F0AE
:105040007003FB847A683B681B789B001A44FB8CD6
:1050500043F07F4343F47F0343F4404343F0800332
:105060009BB213807A683B681B789B0013441B88B3
:105070009BB223F4E04323F04003BB847A683B688F
:105080001B789B001A44BB8C43F07F4343F47F039F
:1050900043F4004343F080039BB213807A683B687B
:1050A0001B789B0013441B889BB223F4804323F09E
:1050B00070037B847A683B681B789B001A447B8C66
:1050C00043F07F4343F47F0343F4004343F0800302
:1050D0009BB21380002318463437BD465DF8047B2D
:1050E000704780B5ACB000AF786039603B685B78E2
:1050F000012B40F0CA843B689A693B681B699A425D
:1051000004D93B681B69C7F8AC3003E03B689B6976
:10511000C7F8AC303B681B7B002B22D13B68596938
:105120003B68DA88D7F8AC309BB2786800F0BDFEF7
:105130007B683B617B68B3F850309BB21A463B6991
:1051400013443B613B681B78DA003B69134403F26C
:105150000243FB60D7F8AC309AB2FB681A8000F0CB
:105160006FBC3B68DB78022B40F01E833B681A6AF9
:105170003B681B699A4240F2CF827A683B681B7891
:105180009B0013441B889BB223F4E04323F070037D
:10519000A7F856307A683B681B789B001A44B7F82A
:1051A000563043F07F4343F47F0343F4014343F01D
:1051B00080039BB213803B681A6AD7F8AC30D21ACE
:1051C0003B681A627A683B681B789B0013441B8813
:1051D0009BB203F04003002B00F04F817B683B63E0
:1051E0003B685B78002B6BD17B68BB627B68B3F854
:1051F00050309BB21A46BB6A1344BB623B681B78B3
:10520000DA00BB6A134403F206437B627B6A1B88A5
:105210009BB2C3F309039AB27B6A1A80D7F8AC3009
:10522000002B0AD17B6A1B889BB26FEA43436FEA6B
:1052300053439AB27B6A1A805BE0D7F8AC303E2BBE
:105240001CD8D7F8AC305B08C7F8A830D7F8AC301A
:1052500003F00103002B04D0D7F8A8300133C7F8BE
:10526000A8307B6A1B889AB2D7F8A8309BB29B0201
:105270009BB213439AB27B6A1A803AE0D7F8AC30FB
:105280005B09C7F8A830D7F8AC3003F01F03002B38
:1052900004D1D7F8A830013BC7F8A8307B6A1B8837
:1052A0009AB2D7F8A8309BB29B029BB213439BB231
:1052B0006FEA43436FEA53439AB27B6A1A8018E05D
:1052C0003B685B78012B14D17B68B3F850309BB2FC
:1052D0001A463B6B13443B633B681B78DA003B6B1D
:1052E000134403F20643FB62D7F8AC309AB2FB6A70
:1052F0001A803B685B89A7F876303B685969D7F814
:10530000AC309BB2B7F87620786800F0CEFD3B68F1
:105310005A69D7F8AC301A443B685A613B681A6A3C
:105320003B681B699A4207D93B681A6AD7F8AC30C8
:10533000D21A3B681A6206E03B681B6AC7F8AC30B9
:105340003B6800221A623B685B78002B6BD17B685C
:10535000BB617B68B3F850309BB21A46BB691344FB
:10536000BB613B681B78DA00BB69134403F202435C
:105370007B617B691B889BB2C3F309039AB27B698B
:105380001A80D7F8AC30002B0AD17B691B889BB2FE
:105390006FEA43436FEA53439AB27B691A805DE038
:1053A000D7F8AC303E2B1CD8D7F8AC305B08C7F828
:1053B000A430D7F8AC3003F00103002B04D0D7F8A9
:1053C000A4300133C7F8A4307B691B889AB2D7F8A0
:1053D000A4309BB29B029BB213439AB27B691A80A2
:1053E0003CE0D7F8AC305B09C7F8A430D7F8AC3054
:1053F00003F01F03002B04D1D7F8A430013BC7F8FA
:10540000A4307B691B889AB2D7F8A4309BB29B0268
:105410009BB213439BB26FEA43436FEA53439AB282
:105420007B691A801AE03B685B78012B16D17B6898
:105430003B627B68B3F850309BB21A463B6A134418
:105440003B623B681B78DA003B6A134403F2024379
:10545000FB61D7F8AC309AB2FB691A803B681B89B4
:10546000A7F876303B685969D7F8AC309BB2B7F8EB
:105470007620786800F019FDE2E23B685B78002B4B
:105480006BD17B68BB647B68B3F850309BB21A4623
:10549000BB6C1344BB643B681B78DA00BB6C1344E1
:1054A00003F202437B647B6C1B889BB2C3F309034A
:1054B0009AB27B6C1A80D7F8AC30002B0AD17B6C87
:1054C0001B889BB26FEA43436FEA53439AB27B6CEB
:1054D0001A805DE0D7F8AC303E2B1CD8D7F8AC3042
:1054E0005B08C7F8A030D7F8AC3003F00103002BFD
:1054F00004D0D7F8A0300133C7F8A0307B6C1B88EC
:105500009AB2D7F8A0309BB29B029BB213439AB2D7
:105510007B6C1A803CE0D7F8AC305B09C7F8A03050
:10552000D7F8AC3003F01F03002B04D1D7F8A0301C
:10553000013BC7F8A0307B6C1B889AB2D7F8A0302B
:105540009BB29B029BB213439BB26FEA43436FEA49
:1055500053439AB27B6C1A801AE03B685B78012B4C
:1055600016D17B683B657B68B3F850309BB21A4616
:105570003B6D13443B653B681B78DA003B6D13447D
:1055800003F20243FB64D7F8AC309AB2FB6C1A808A
:105590003B681B89A7F876303B685969D7F8AC306F
:1055A0009BB2B7F87620786800F07FFC3B685A69B8
:1055B000D7F8AC301A443B685A613B681A6A3B68BA
:1055C0001B699A4207D93B681A6AD7F8AC30D21ADD
:1055D0003B681A6206E03B681B6AC7F8AC303B6860
:1055E00000221A627B683B643B685B78002B6BD1BE
:1055F0007B68BB637B68B3F850309BB21A46BB6BC9
:105600001344BB633B681B78DA00BB6B134403F2A3
:1056100006437B637B6B1B889BB2C3F309039AB27F
:105620007B6B1A80D7F8AC30002B0AD17B6B1B88C0
:105630009BB26FEA43436FEA53439AB27B6B1A8083
:105640005BE0D7F8AC303E2B1CD8D7F8AC305B0809
:10565000C7F89C30D7F8AC3003F00103002B04D01E
:10566000D7F89C300133C7F89C307B6B1B889AB20B
:10567000D7F89C309BB29B029BB213439AB27B6BD0
:105680001A803AE0D7F8AC305B09C7F89C30D7F8FD
:10569000AC3003F01F03002B04D1D7F89C30013B42
:1056A000C7F89C307B6B1B889AB2D7F89C309BB2B2
:1056B0009B029BB213439BB26FEA43436FEA53438F
:1056C0009AB27B6B1A8018E03B685B78012B14D18F
:1056D0007B68B3F850309BB21A463B6C13443B6472
:1056E0003B681B78DA003B6C134403F20643FB6310
:1056F000D7F8AC309AB2FB6B1A803B685B89A7F88D
:1057000076303B685969D7F8AC309BB2B7F8762051
:10571000786800F0CAFB93E13B681B6AC7F8AC30BD
:105720007A683B681B789B0013441B889BB223F468
:10573000E24323F07003A7F862307A683B681B7875
:105740009B001A44B7F8623043F07F4343F47F0371
:1057500043F4004343F080039BB213807B68FB65F6
:105760007B68B3F850309BB21A46FB6D1344FB655F
:105770003B681B78DA00FB6D134403F20243BB6500
:10578000D7F8AC309AB2BB6D1A803B681B89A7F87A
:1057900076303B685969D7F8AC309BB2B7F87620C1
:1057A000786800F082FB4BE13B681A6AD7F8AC30AE
:1057B000D21A3B681A627A683B681B789B001344D4
:1057C0001B889BB203F04003002B00F09A807B689B
:1057D0003B673B685B78002B6BD17B68BB667B6863
:1057E000B3F850309BB21A46BB6E1344BB663B689D
:1057F0001B78DA00BB6E134403F206437B667B6EB4
:105800001B889BB2C3F309039AB27B6E1A80D7F848
:10581000AC30002B0AD17B6E1B889BB26FEA4343EE
:105820006FEA53439AB27B6E1A805BE0D7F8AC30D4
:105830003E2B1CD8D7F8AC305B08C7F89830D7F8A7
:10584000AC3003F00103002B04D0D7F898300133BB
:10585000C7F898307B6E1B889AB2D7F898309BB205
:105860009B029BB213439AB27B6E1A803AE0D7F840
:10587000AC305B09C7F89830D7F8AC3003F01F03A1
:10588000002B04D1D7F89830013BC7F898307B6ED5
:105890001B889AB2D7F898309BB29B029BB21343F5
:1058A0009BB26FEA43436FEA53439AB27B6E1A800E
:1058B00018E03B685B78012B14D17B68B3F850305B
:1058C0009BB21A463B6F13443B673B681B78DA0078
:1058D0003B6F134403F20643FB66D7F8AC309AB231
:1058E000FB6E1A803B685B89A7F876303B68596984
:1058F000D7F8AC309BB2B7F87620786800F0D5FACC
:105900009EE03B685B78002B6BD17B68FB677B6814
:10591000B3F850309BB21A46FB6F1344FB673B68E9
:105920001B78DA00FB6F134403F20243BB67BB6FC3
:105930001B889BB2C3F309039AB2BB6F1A80D7F8D6
:10594000AC30002B0AD1BB6F1B889BB26FEA43437C
:105950006FEA53439AB2BB6F1A8063E0D7F8AC305A
:105960003E2B1CD8D7F8AC305B08C7F89430D7F87A
:10597000AC3003F00103002B04D0D7F8943001338E
:10598000C7F89430BB6F1B889AB2D7F894309BB29B
:105990009B029BB213439AB2BB6F1A8042E0D7F8C6
:1059A000AC305B09C7F89430D7F8AC3003F01F0374
:1059B000002B04D1D7F89430013BC7F89430BB6F6B
:1059C0001B889AB2D7F894309BB29B029BB21343C8
:1059D0009BB26FEA43436FEA53439AB2BB6F1A809C
:1059E00020E03B685B78012B1CD17B68C7F88430D2
:1059F0007B68B3F850309BB21A46D7F88430134412
:105A0000C7F884303B681B78DA00D7F88430134439
:105A100003F20243C7F88030D7F8AC309AB2D7F817
:105A200080301A803B681B89A7F876303B6859693B
:105A3000D7F8AC309BB2B7F87620786800F035FA2A
:105A40007A683B681B789B0013441B889BB223F445
:105A5000E04323F040037B817B8983F010037B814B
:105A60007B8983F020037B817A683B681B789B00ED
:105A70001A447B8943F07F4343F47F0343F400439C
:105A800043F080039BB21380D5E03B681B7B002B67
:105A900056D13B689B69002B22D13B68DB78002BF9
:105AA0001ED17A683B681B789B0013441B889BB20D
:105AB00023F4E04323F07003A7F88E307A683B6844
:105AC0001B789B001A44B7F88E3043F07F4343F4B1
:105AD0007F0343F4014343F080039BB213801DE036
