:020000040800F2
:1000000000000320298C00081D89000825890008AC
:100010002D890008358900083D890008000000008E
:100020000000000000000000000000004175010811
:10003000458900080000000091770108913F010800
:10004000818C0008818C0008818C0008818C00085C
:10005000818C0008818C0008818C0008818C00084C
:10006000818C0008818C0008818C0008558900086B
:10007000818C0008818C0008818C0008818C00082C
:10008000818C0008818C000869890008818C000837
:100090007D890008818C0008818C0008818C000813
:1000A000818C000891890008818C0008818C0008EF
:1000B000A5890008818C0008B9890008CD8900084D
:1000C000818C0008818C0008818C0008818C0008DC
:1000D000818C0008818C0008818C0008818C0008CC
:1000E000818C0008818C0008818C0008818C0008BC
:1000F000818C0008818C0008818C0008818C0008AC
:10010000818C0008818C0008818C0008818C00089B
:10011000818C0008818C0008818C0008818C00088B
:10012000818C0008818C0008818C0008818C00087B
:0C013000818C0008818C0008818C000884
:1001400010B5054C237833B9044B13B10448AFF311
:1001500000800123237010BDE80200200000000091
:100160008CC4010808B5034B1BB103490348AFF326
:10017000008008BD00000000EC0200208CC40108D3
:1001800001F0FF01102A2BDB10F0070F08D010F848
:10019000013B013A8B422DD010F0070F42B3F6D14C
:1001A000F0B441EA012141EA014122F007047FF065
:1001B00000070023F0E80256083C85EA010586EABC
:1001C000010685FA47F5A3FA87F586FA47F6A5FAF8
:1001D00087F68EB9EED1F0BC01F0FF0102F0070204
:1001E00032B110F8013B013A83EA010313B1F8D1AF
:1001F0000020704701387047002D06BF3546033890
:10020000073815F0010F07D1013015F4807F02BFC8
:10021000013015F4C03F0130F0BC0138704700BF19
:10022000034613F8012B002AFBD1181A0138704736
:1002300081F0004102E000BF83F0004330B54FEA97
:1002400041044FEA430594EA050F08BF90EA020F04
:100250001FBF54EA000C55EA020C7FEA645C7FEA97
:10026000655C00F0E2804FEA5454D4EB5555B8BFBA
:100270006D420CDD2C4480EA020281EA030382EA2B
:10028000000083EA010180EA020281EA0303362DBD
:1002900088BF30BD11F0004F4FEA01314FF4801C90
:1002A0004CEA113102D0404261EB410113F0004FA2
:1002B0004FEA03334CEA133302D0524263EB430359
:1002C00094EA050F00F0A780A4F10104D5F1200EF7
:1002D0000DDB02FA0EFC22FA05F2801841F1000152
:1002E00003FA0EF2801843FA05F359410EE0A5F126
:1002F00020050EF1200E012A03FA0EFC28BF4CF057
:10030000020C43FA05F3C01851EBE37101F000450C
:1003100007D54FF0000EDCF1000C7EEB00006EEB19
:100320000101B1F5801F1BD3B1F5001F0CD34908A3
:100330005FEA30004FEA3C0C04F101044FEA4452FA
:1003400012F5800F80F09A80BCF1004F08BF5FEA81
:10035000500C50F1000041EB045141EA050130BD61
:100360005FEA4C0C404141EB0101013C28BFB1F573
:10037000801FE9D291F0000F04BF01460020B1FABE
:1003800081F308BF2033A3F10B03B3F120020CDA91
:100390000C3208DD02F1140CC2F10C0201FA0CF06F
:1003A00021FA02F10CE002F11402D8BFC2F1200CD4
:1003B00001FA02F120FA0CFCDCBF41EA0C0190408A
:1003C000E41AA2BF01EB0451294330BD6FEA0404D3
:1003D0001F3C1CDA0C340EDC04F11404C4F12002BE
:1003E00020FA04F001FA02F340EA030021FA04F3D0
:1003F00045EA030130BDC4F10C04C4F1200220FA27
:1004000002F001FA04F340EA0300294630BD21FA64
:1004100004F0294630BD94F0000F83F4801306BF2A
:1004200081F480110134013D4EE77FEA645C18BF1E
:100430007FEA655C29D094EA050F08BF90EA020FB5
:1004400005D054EA000C04BF1946104630BD91EAAD
:10045000030F1EBF0021002030BD5FEA545C05D1B0
:100460004000494128BF41F0004130BD14F58004EF
:100470003CBF01F5801130BD01F0004545F0FE4163
:1004800041F470014FF0000030BD7FEA645C1ABF98
:10049000194610467FEA655C1CBF0B46024650EACF
:1004A000013406BF52EA033591EA030F41F40021FB
:1004B00030BD00BF90F0000F04BF0021704730B581
:1004C0004FF4806404F132044FF000054FF0000156
:1004D00050E700BF90F0000F04BF0021704730B517
:1004E0004FF4806404F1320410F0004548BF4042EC
:1004F0004FF000013EE700BF42004FEAE2014FEA41
:1005000031014FEA02701FBF12F07F4393F07F4F1B
:1005100081F06051704732F07F4208BF704793F01E
:100520007F4F04BF41F40021704730B54FF4607431
:1005300001F0004521F000411CE700BF50EA010234
:1005400008BF704730B54FF000050AE050EA0102DD
:1005500008BF704730B511F0004502D5404261EB4D
:1005600041014FF4806404F132045FEA915C3FF48E
:10057000D8AE4FF003025FEADC0C18BF03325FEA2B
:10058000DC0C18BF033202EBDC02C2F1200300FADC
:1005900003FC20FA02F001FA03FE40EA0E0021FA01
:1005A00002F11444BDE600BF70B54FF0FF0C4CF4EF
:1005B000E06C1CEA11541DBF1CEA135594EA0C0FA1
:1005C00095EA0C0F00F0DEF82C4481EA030621EADC
:1005D0004C5123EA4C5350EA013518BF52EA033517
:1005E00041F4801143F4801338D0A0FB02CE4FF0C9
:1005F0000005E1FB02E506F00042E0FB03E54FF0F9
:100600000006E1FB03569CF0000F18BF4EF0010EF0
:10061000A4F1FF04B6F5007F64F5407404D25FEAEC
:100620004E0E6D4146EB060642EAC62141EA55519F
:100630004FEAC52040EA5E504FEACE2EB4F1FD0CE1
:1006400088BFBCF5E06F1ED8BEF1004F08BF5FEA5F
:10065000500E50F1000041EB045170BD06F0004611
:1006600046EA010140EA020081EA0301B4EB5C04BE
:10067000C2BFD4EB0C0541EA045170BD41F48011B6
:100680004FF0000E013C00F3AB8014F1360FDEBFDB
:10069000002001F0004170BDC4F10004203C35DAB7
:1006A0000C341BDC04F11404C4F1200500FA05F33A
:1006B00020FA04F001FA05F240EA020001F00042DB
:1006C00021F0004110EBD37021FA04F642EB060151
:1006D0005EEA430E08BF20EAD37070BDC4F10C047B
:1006E000C4F1200500FA04F320FA05F001FA04F23F
:1006F00040EA020001F0004110EBD37041F100012B
:100700005EEA430E08BF20EAD37070BDC4F1200535
:1007100000FA05F24EEA020E20FA04F301FA05F29D
:1007200043EA020321FA04F001F0004121FA04F245
:1007300020EA020000EBD3705EEA430E08BF20EA15
:10074000D37070BD94F0000F0FD101F0004640004F
:1007500041EB010111F4801F08BF013CF7D041EAD1
:10076000060195F0000F18BF704703F000465200D5
:1007700043EB030313F4801F08BF013DF7D043EAA6
:100780000603704794EA0C0F0CEA135518BF95EA5C
:100790000C0F0CD050EA410618BF52EA4306D1D1E3
:1007A00081EA030101F000414FF0000070BD50EA02
:1007B000410606BF1046194652EA430619D094EA8C
:1007C0000C0F02D150EA013613D195EA0C0F05D176
:1007D00052EA03361CBF104619460AD181EA0301CA
:1007E00001F0004141F0FE4141F470014FF0000082
:1007F00070BD41F0FE4141F4780170BD70B54FF01D
:10080000FF0C4CF4E06C1CEA11541DBF1CEA13559C
:1008100094EA0C0F95EA0C0F00F0A7F8A4EB05047E
:1008200081EA030E52EA03354FEA013100F0888075
:100830004FEA03334FF0805545EA131343EA12633E
:100840004FEA022245EA111545EA10654FEA0026F3
:100850000EF000419D4208BF964244F1FD0404F5AC
:10086000407402D25B084FEA3202B61A65EB030508
:100870005B084FEA32024FF480104FF4002CB6EBC5
:10088000020E75EB030E22BFB61A754640EA0C0045
:100890005B084FEA3202B6EB020E75EB030E22BF85
:1008A000B61A754640EA5C005B084FEA3202B6EBC6
:1008B000020E75EB030E22BFB61A754640EA9C0085
:1008C0005B084FEA3202B6EB020E75EB030E22BF55
:1008D000B61A754640EADC0055EA060E18D04FEA13
:1008E000051545EA16754FEA06164FEAC30343EAB3
:1008F00052734FEAC2025FEA1C1CC0D111F4801F80
:100900000BD141EA00014FF000004FF0004CB6E778
:1009100011F4801F04BF01430020B4F1FD0C88BF17
:10092000BCF5E06F3FF6AFAEB5EB030C04BFB6EB22
:10093000020C5FEA500C50F1000041EB045170BD15
:100940000EF0004E4EEA113114EB5C04C2BFD4EB42
:100950000C0541EA045170BD41F480114FF0000EC6
:10096000013C90E645EA060E8DE60CEA135594EA42
:100970000C0F08BF95EA0C0F3FF43BAF94EA0C0F45
:100980000AD150EA01347FF434AF95EA0C0F7FF4BA
:1009900025AF104619462CE795EA0C0F06D152EA0E
:1009A00003353FF4FDAE1046194622E750EA4106F2
:1009B00018BF52EA43067FF4C5AE50EA41047FF403
:1009C0000DAF52EA43057FF4EBAE12E74FF0FF3C68
:1009D00006E000BF4FF0010C02E000BF4FF0010C39
:1009E0004DF804CD4FEA410C7FEA6C5C4FEA430CB2
:1009F00018BF7FEA6C5C1BD001B050EA410C0CBF01
:100A000052EA430C91EA030F02BF90EA020F002062
:100A1000704710F1000F91EA030F58BF994208BFC9
:100A200090422CBFD8176FEAE37040F00100704786
:100A30004FEA410C7FEA6C5C02D150EA013C07D1DD
:100A40004FEA430C7FEA6C5CD6D152EA033CD3D028
:100A50005DF8040B704700BF8446104662468C4622
:100A60001946634600E000BF01B5FFF7B7FF002855
:100A700048BF10F1000F01BD4DF808EDFFF7F4FF7E
:100A80000CBF012000205DF808FB00BF4DF808ED09
:100A9000FFF7EAFF34BF012000205DF808FB00BF2C
:100AA0004DF808EDFFF7E0FF94BF012000205DF84E
:100AB00008FB00BF4DF808EDFFF7CEFF94BF012003
:100AC00000205DF808FB00BF4DF808EDFFF7C4FFFC
:100AD00034BF012000205DF808FB00BF4FEA410C45
:100AE0007FEA6C5C02D150EA013C0AD14FEA430C28
:100AF0007FEA6C5C02D152EA033C02D14FF0000065
:100B000070474FF0010070474FEA410212F50012A2
:100B100015D211D56FF47873B3EB625212D94FEA44
:100B2000C12343F0004343EA505311F0004F23FA2E
:100B300002F018BF404270474FF00000704750EA83
:100B4000013005D111F0004008BF6FF00040704740
:100B50004FF00000704700BF4FEA4102B2F1E0439E
:100B600024BFB3F5001CDCF1FE5C0DD901F0004C94
:100B70004FEAC0024CEA5070B2F1004F40EB8300E4
:100B800008BF20F00100704711F0804F21D113F110
:100B90003872BCBF01F00040704741F480114FEA49
:100BA0005252C2F11802C2F1200C10FA0CF320FAD2
:100BB00002F018BF40F001004FEAC1234FEAD323EF
:100BC00003FA0CFC40EA0C0023FA02F34FEA430359
:100BD000CCE77FEA625307D150EA01331EBF4FF0E2
:100BE000FE4040F44000704701F0004040F0FE40FD
:100BF00040F40000704700BF80B584B000AF78605B
:100C00000023BB732B4A07F1080392E80300186026
:100C100004331980786801F075FF0346FB7397F978
:100C20000F30002B40D17B68012283F847207B687E
:100C30005B7A002B08D107F10E017B6801220020AE
:100C400000F03AF80346FB7397F90F30002B2BD1D5
:100C500007F10E017B680122002000F02DF8034609
:100C6000FB7397F90F30002B1ED17B681A78BB7B82
:100C70009A4214D17B6810221A737B680122DA76BB
:100C80007B68283307F1080292E8030018600433F8
:100C90001980786800F006F90346FB7304E0BA7B1C
:100CA0007B681A70FD23FB7397F90F3018461037D5
:100CB000BD4680BDA8C4010890B5A7B000AFB9601B
:100CC0007B600346FB731346BB810023A7F8943077
:100CD000786801F017FF034687F8973097F9973047
:100CE000002B53D1BB68002B50D07B685B7A002B64
:100CF00003D1FB7B63F07F03FB737B689C6BBB8939
:100D00007A68D27A13441A467B685B6807F114014B
:100D1000F87BA04703461A467B689A727B6893F873
:100D20004730012B08D17B681B6C7A6852681146EA
:100D30004FF4E170984706E07B681B6C7A68526854
:100D40001146022098477B6893F90A30002B19D18D
:100D500012E0B7F894307A68D27A1A44B7F894302F
:100D6000B9680B4498323A4412F8842C1A70B7F8D8
:100D700094300133A7F89430B7F89420BB899A4295
:100D8000E7D306E0FE2387F8973002E0FF2387F8D9
:100D9000973097F9973018469C37BD4690BD90B56F
:100DA00087B000AFB9607B600346FB731346BB811D
:100DB000786801F0A7FE0346FB7597F91730002B02
:100DC00068D1BB68002B65D07B685B7A002B03D1B0
:100DD000FB7B03F07F03FB737B6893F84730012BA9
:100DE00029D10023BB8221E07B68DC6BBB8ADAB2AD
:100DF000FB7B1344D8B2BB8ABA68D1187B685B68A6
:100E00000122A04703461A467B689A727B681B6CD6
:100E10007A68526811464FF4E17098477B6893F9FD
:100E20000A30002B1BD1BB8A0133BB82BA8ABB8933
:100E30009A42D9D314E07B68DC6BBA897B685B6823
:100E4000F87BB968A04703461A467B689A727B68AC
:100E50001B6C7A68526811460220984700E000BF78
:100E6000FB7B7C2B0ED1BB681B7803F00103002BAE
:100E700004D07B68012283F8472003E07B680022CE
:100E800083F847207B6893F90A30002B04D0FE23B7
:100E9000FB7501E0FF23FB7597F9173018461C37E7
:100EA000BD4690BD80B584B000AF7860B623BB73FB
:100EB00000237B73786801F025FE0346FB7397F9E6
:100EC0000F30002B39D107F10E017B6801227E2003
:100ED000FFF765FF0346FB737B681B6C7A685268FB
:100EE00011464FF4FA6098477B68012283F8472047
:100EF00097F90F30002B0CD17B685B7A002B08D15F
:100F000007F10D017B6801220020FFF7D5FE0346A3
:100F1000FB7397F90F30002B04D1786800F05FF86D
:100F20000346FB7397F90F30002B06D179684FF019
:100F300000024FF00003C1E90C2397F90F30184667
:100F40001037BD4680BD80B584B000AF0346396020
:100F5000FB710023BB73386801F0D4FD0346FB73BB
:100F600097F90F30002B34D107F10E013B680122B5
:100F70007C20FFF7A1FE0346FB7397F90F30002B8F
:100F800027D1BB7B5BB223F001035AB297F907303C
:100F900003F001035BB213435BB2DBB2BB7307F137
:100FA0000E013B6801227C20FFF7F9FE0346FB732C
:100FB00097F90F30002B01D0F323FB7397F90F3013
:100FC000002B06D1BB7B03F00103DAB23B6883F848
:100FD000472097F90F3018461037BD4680BD80B5C1
:100FE00084B000AF78600023BB73786801F08AFD9D
:100FF0000346FB7397F90F30002B3BD17B68B3F8A6
:101000004A30002B36D07B68DB8903F001039BB2AA
:10101000002B05D07B68DB89013B9AB27B68DA81C3
:101020007B68DB89012B02D87B680222DA81786831
:1010300000F0ABFC0346FB7397F90F30002B1CD17B
:1010400007F10E037968184600F0AEFB0346FB7308
:10105000BB7B03F00F03DBB2BB73BA7B7B681A74F4
:1010600097F90F30002B08D1BB7B012B05D0F7235C
:10107000FB7302E0FF23FB7300E000BF97F90F3022
:1010800018461037BD4680BD80B588B000AFF86007
:101090000B467A60FB724FF000024FF00003C7E985
:1010A0000423786801F02EFD0346FB7797F91F3083
:1010B000002B17D1FB68002B14D007F11002FB7A2C
:1010C0001946F86801F05EFE0346FB7797F91F307A
:1010D000002B09D1D7E904017A6801F0AEFE03467E
:1010E000FB7701E0FF23FB7797F91F301846203785
:1010F000BD4680BD80B586B000AFF8600B467A6013
:10110000FB7200237B75786801F0FCFC0346FB75DD
:1011100097F91730002B40F09980FB68002B00F006
:1011200095807B6893F847307B750023BB7579E029
:101130007B7D012B05D179680020FFF704FF034672
:10114000FB7597F91730002B65D1BA7D1346DB008C
:101150009B1ADB001A46FB6813441B78092B57D8EF
:1011600001A252F823F000BF91110008B11100084C
:10117000D111000811120008111200081112000804
:10118000111200081112000811120008F1110008D4
:10119000BA7D1346DB009B1ADB001A46FB6813443A
:1011A00004337968184601F0B0FB0346FB7532E062
:1011B000BA7D1346DB009B1ADB001A46FB6813441A
:1011C00004337968184601F017FC0346FB7522E0EA
:1011D000BA7D1346DB009B1ADB001A46FB681344FA
:1011E00004337968184600F0C9FD0346FB7512E028
:1011F000BA7D1346DB009B1ADB001A46FB681344DA
:1012000004337968184600F0E8FD0346FB7502E0F8
:10121000F823FB7500BF97F91730002B07D1BB7D72
:101220000133BB75BA7DFB7A9A4281D300E000BFDF
:101230007B7D012B0DD197F91730002B09D17968EF
:101240000120FFF780FE0346FB7502E0FF23FB75DC
:1012500000E000BF97F9173018461837BD4680BD2B
:1012600080B586B000AFF8600B467A60FB72002351
:101270007B75786801F046FC0346FB7597F91730DB
:10128000002B40F0B080FB68002B00F0AC807B6846
:1012900093F847307B750023BB758FE0BA7D13460A
:1012A000DB009B1ADB001A46FB6813441B78032BF8
:1012B0000AD8BA7D1346DB009B1ADB001A46FB688E
:1012C00013441B78022B08D17B7D012B05D1796853
:1012D0000020FFF738FE0346FB7597F91730002B07
:1012E00065D1BA7D1346DB009B1ADB001A46FB680A
:1012F00013441B78092B57D801A252F823F000BFE2
:10130000291300084913000869130008A9130008ED
:10131000A9130008A9130008A9130008A9130008BD
:10132000A913000889130008BA7D1346DB009B1A35
:10133000DB001A46FB68134404337968184600F052
:1013400079FF0346FB7532E0BA7D1346DB009B1A3A
:10135000DB001A46FB68134404337968184600F032
:10136000ABFF0346FB7522E0BA7D1346DB009B1AF8
:10137000DB001A46FB68134404337968184600F012
:10138000EDFF0346FB7512E0BA7D1346DB009B1AA6
:10139000DB001A46FB68134404337968184601F0F1
:1013A00013F80346FB7502E0F823FB7500BF97F9BD
:1013B0001730002B08D1BB7D0133BB75BA7DFB7A9A
:1013C0009A42FFF46BAF00E000BF7B7D012B0DD193
:1013D00097F91730002B09D179680120FFF7B3FD89
:1013E0000346FB7502E0FF23FB7500E000BF97F9A1
:1013F000173018461837BD4680BD00BF80B586B08F
:1014000000AFF8600B467A60FB7200237B7578684A
:1014100001F078FB0346FB7597F91730002B5CD180
:10142000FB68002B59D07B6893F847307B7500230D
:10143000BB754BE0BB7D1B01FA6813441B78032B83
:1014400008D97B7D012B05D179680020FFF77BFD52
:101450000346FB7597F91730002B27D1BB7D1B0185
:10146000FA6813441B78092B0DD0292B17D1BB7DAB
:101470001B01FA68134404337968184601F0FCFB39
:101480000346FB750EE0BB7D1B01FA681344043371
:101490007968184601F055FB0346FB7502E0F82316
:1014A000FB7500BF97F91730002B14D17B7D012B02
:1014B00009D197F91730002B05D179680120FFF782
:1014C00042FD0346FB75BB7D0133BB75BA7DFB7ADC
:1014D0009A42AFD303E000BF01E0FF23FB7597F909
:1014E000173018461837BD4680BD80B58AB000AFAA
:1014F000786039607B68002B18D007F10C013B68DD
:1015000018220320FFF7D8FB034687F8273097F906
:101510002730002B0DD107F10C033A687968184683
:1015200000F00DF8034687F8273002E0FF2387F824
:10153000273097F9273018462837BD4680BD80B53B
:1015400088B000AFF860B9607A600023BB770023F1
:101550007B770023BB610023FB8200237B757868C7
:1015600001F0D0FA0346FB7797F91F30002B56D1D4
:10157000BB68002B53D001237B777B7F5A1C7A7783
:101580001A46FB681A44BB6803F11801BB7F581C5C
:10159000B8770B4412781A70BB7F072BEDD909235B
:1015A0007B77B8687B7FFA681344194601F036F8F8
:1015B000BB687968184601F095F80F237B77BB6804
:1015C00003F10C007B7FFA681344194601F026F8FA
:1015D000BB680C337968184601F037F9BB680C33E7
:1015E0007968184601F07EF8FB6817331B781B04F6
:1015F000BB61FB6816331B781B02FB82FB6815334B
:101600001B787B75FA8ABB691A437B7D1A43BB68DA
:101610001A62FB681A78BB6883F8242001E0FF2374
:10162000FB7797F91F3018462037BD4680BD80B53F
:1016300084B000AF78603960386801F063FA03461F
:10164000FB7397F90F30002B0BD17B68002B08D070
:101650003B68012279680320FFF72EFB0346FB73EA
:1016600001E0FF23FB7397F90F3018461037BD4692
:1016700080BD000080B584B000AF03463A60FB71C6
:101680000B46BB71FB79BB73FB791B017B7300239A
:101690003B7307F10C013B6801225820FFF70CFB5C
:1016A0000346FB7397F90F30002B41D1BB79032B15
:1016B0003CD8BB79032B2ED801A252F823F000BFEF
:1016C000D1160008ED160008F916000805170008E5
:1016D000BA7B7B7B1343DBB25BB2DB435AB23B7B0F
:1016E0005BB213405BB2DBB23B7315E03A7BBB7B72
:1016F0001343DBB23B730FE03A7B7B7B1343DBB2DC
:101700003B7309E0BA7B7B7B1343DAB23B7B134329
:10171000DBB23B7300E000BF07F10C013B68012224
:101720005820FFF73CFB0346FB7301E0F423FB73F7
:1017300097F90F3018461037BD4680BD80B588B088
:1017400000AF78600023FB777B68B3F8483003F084
:101750000203002B20D0786801F0D4F90346FB7710
:1017600097F91F30002B14D129233B7307F10C0389
:101770007A6801211846FFF741FE0346FB7797F987
:101780001F30002B0AD1B7F910207B68A3F8442042
:1017900004E0FF23FB7701E0F823FB7797F91F3084
:1017A00018462037BD4680BD80B584B000AF786054
:1017B0003960386801F0A6F90346FB7397F90F30DA
:1017C000002B13D17B68002B10D03B681B6C3A6850
:1017D0005268114644F6206098473B6801227968B8
:1017E0002120FFF769FA0346FB7301E0FF23FB7337
:1017F00097F90F3018461037BD4680BD80B586B0CA
:1018000000AF0346B9607A60FB731023BB750023F9
:101810007B7530233B750023FB74BB68002B02D023
:101820007B68002B02D1FF23FB7573E07B681A7E77
:10183000FB7B9A426CD907F10F017B6801222F20B4
:10184000FFF7ADFA0346FB7597F91730002B52D11D
:101850007B68DB890F2B4ED87B68DB8903F00103A3
:101860009BB2002B41D07B68DB89013B9AB27B683D
:10187000DA813AE0BB7D9AB27B68DB899A421DD35C
:10188000FB7CBA68D1187B68DA89387D7B68FFF702
:1018900013FA0346FB757B68DB89DAB2FB7C1344E1
:1018A000FB747B68DB89DAB23B7D13443B757B6854
:1018B000DB89DAB27B7D13447B750EE0FB7CBA6872
:1018C000D118BB7D9AB2387D7B68FFF7F5F90346E6
:1018D000FB757A7DBB7D13447B757B7DC3F1100363
:1018E000BB7597F91730002B03D1BB7D002BC1D1FD
:1018F00010E000BF0EE097F91730002B0AD17B688B
:101900001022B9683020FFF7D7F90346FB7501E0D4
:10191000F623FB7597F9173018461837BD4680BD7A
:1019200080B487B000AFF8600B467A60FB7200238A
:10193000FB750023BB751CE07B68196AFA7D1346B2
:101940005B0013440B441B78FA7A9A420ED17B68F1
:10195000196AFA7D13465B001344CA18FB681188A4
:10196000927819809A700123BB7507E0FB7D0133E3
:10197000FB757B685B7EFA7D9A42DDD3BB7D1846A2
:101980001C37BD465DF8047B704780B586B000AF5C
:1019900078600023BB827B68B3F84A307B827B6827
:1019A000DA897B8AB3FBF2F101FB02F29B1A9BB24C
:1019B0007B740023FB810023BB8179680020FFF743
:1019C000C2FA0346FB7597F91730002B40F0888068
:1019D0007968002000F08AF80346FB7597F9173004
:1019E000002B7DD17B7C002B1CD10023BB8210E01F
:1019F0007B685A69BB8AD0187B68DA89B98A7B68A8
:101A000000F0A6F80346FB757B68DA89BB8A1344AD
:101A1000BB82BA8A7B8A9A424ED297F91730002B42
:101A2000E6D049E07B7C9BB27A8AD31AFB81002303
:101A3000BB8210E07B685A69BB8AD0187B68DA8960
:101A4000B98A7B6800F084F80346FB757B68DA8905
:101A5000BB8A1344BB82BA8AFB899A4203D297F9A4
:101A60001730002BE6D097F91730002B24D17B6874
:101A7000DB89BB817B680222DA81FB89BB8210E0B3
:101A80007B685A69BB8AD0187B68DA89B98A7B6817
:101A900000F05EF80346FB757B68DA89BB8A134465
:101AA000BB82BA8A7B8A9A4203D297F91730002BFD
:101AB000E6D07B68BA89DA8197F91730002B0FD10D
:101AC0007968012000F012F80346FB7597F917308A
:101AD000002B05D179680120FFF735FA0346FB7525
:101AE00097F9173018461837BD4680BD80B584B0C9
:101AF00000AF03463960FB710023BB7307F10E0191
:101B00003B6801225920FFF7D7F80346FB7397F98A
:101B10000F30002B16D1BB7B5BB223F001035AB20E
:101B200097F9073003F001035BB213435BB2DBB2FA
:101B3000BB7307F10E013B6801225920FFF72FF913
:101B40000346FB7397F90F3018461037BD4680BD2A
:101B500080B586B000AFF8607B600B467B81134692
:101B60003B810023BB82FB68002B24D07B895B0870
:101B70009BB2DBB203F00F03DBB23B757B895B08E2
:101B80009BB21B099BB2DBB27B7507F114017B682A
:101B900002225B20FFF703F90346FB7597F9173024
:101BA000002B0AD13A897B68F9685E20FFF7F7F8C5
:101BB0000346FB7501E0FF23FB7597F917301846C4
:101BC0001837BD4680BD80B586B000AFF860B960FB
:101BD0007A607B6801220021B86800F05FFE03464E
:101BE000FB7597F91730002B14D1BB681B78012BBC
:101BF00008D17B6803220021F86800F04FFE0346FD
:101C0000FB7507E07B6807220021F86800F046FEBC
:101C10000346FB7597F9173018461837BD4680BD47
:101C200080B586B000AFF860B9607A607B680C223E
:101C30000121F86800F032FE0346FB7597F9173072
:101C4000002B07D17B6803220021B86800F026FE34
:101C50000346FB7597F9173018461837BD4680BD07
:101C600080B584B000AF786039607B68981C3B68B1
:101C70000122002100F012FE0346FB7397F90F309A
:101C8000002B3BD17B68581C3B680322002100F0ED
:101C900005FE0346FB7397F90F30002B2ED17B68AE
:101CA000581D3B680122002100F0F8FD0346FB733C
:101CB00097F90F30002B21D178683B680D2206215F
:101CC00000F0ECFD0346FB7397F90F30002B15D1A4
:101CD0007B68D81C3B680122002100F0DFFD034631
:101CE000FB7397F90F30002B08D17B68181D3B68F8
:101CF0000422002100F0D2FD0346FB7397F90F3058
:101D000018461037BD4680BD80B584B000AF7860FE
:101D100007F10E017B6801221B20FEF7CDFF034671
:101D2000FB7397F90F30002B21D1BB7B9B10DBB2EB
:101D300003F00703DBB2BB73BB7B032B16D801A2F6
:101D400052F823F0551D00085B1D0008611D0008B6
:101D5000671D00080023FB7309E0FB23FB7306E00B
:101D6000FA23FB7303E0F923FB7300E000BF97F94C
:101D70000F3018461037BD4680BD00BF80B584B017
:101D800000AF786039603968786800F03FFA034640
:101D9000FB7397F90F30002B19D13968786800F080
:101DA000F7F80346FB7397F90F30002B0FD1396812
:101DB000786800F01FF90346FB7397F90F30002B8A
:101DC00005D13968786800F0DBF90346FB7397F9B1
:101DD0000F3018461037BD4680BD80B58AB000AFC1
:101DE0007860396007F10C0300221A605A609A602B
:101DF000DA60002387F82530002387F82630002397
:101E00003B7200237B720023BB7207F10C033B6221
:101E100007F108033A6809211846FFF781FD0346D8
:101E2000FB77FB7F002B00F0AA807B7A07F10C0187
:101E30003A681846FFF7E2FC034687F8273097F91F
:101E40002730002B40F09E80BB7A87F8253097F82A
:101E500025305B0887F8253097F825305B003A6A13
:101E600013441B881BB223F4FF6323F007031AB249
:101E70007B681B881BB2C3F30A031BB2134319B25E
:101E800097F825305B003A6A13448AB21A8097F8B3
:101E90002530013387F8253097F825305B003A6A02
:101EA00013441B881BB223F4FF6323F007031AB209
:101EB0007B685B881BB2C3F30A031BB2134319B2DE
:101EC00097F825305B003A6A13448AB21A8097F873
:101ED0002530013387F8253097F825305B003A6AC2
:101EE00013441B881BB223F4FF6323F007031AB2C9
:101EF0007B689B881BB2C3F30A031BB2134319B25E
:101F000097F825305B003A6A13448AB21A8097F832
:101F10002530013387F8253097F825305B00DAB299
:101F2000BB7AD31A87F82530002387F8263015E0CE
:101F3000BB7A1A4697F8263013443A6A1A44BB7A99
:101F4000194697F826300B44127828333B4403F89F
:101F50001C2C97F82630013387F8263097F8262076
:101F600097F825309A42E3D307F10C013B68102221
:101F70003020FEF714FF034687F8273002E0F823ED
:101F800087F8273097F9273018462837BD4680BD97
:101F900080B584B000AF7860396007F10E013B680E
:101FA00001226B20FEF788FE0346FB7397F90F3082
:101FB000002B19D1BB7B5BB223F020035AB27B68A4
:101FC0001B785BB25B015BB203F020035BB213438F
:101FD0005BB2DBB2BB7307F10E013B6801226B20E1
:101FE000FEF7DDFE0346FB7397F90F3018461037F6
:101FF000BD4680BD80B584B000AF786039600023F5
:10200000BB810023FB720023BB7307F10C013B680B
:1020100002224B20FEF750FE0346FB7397F90F3068
:10202000002B40F0A7803B7B5BB203F001035AB268
:102030007B68DB795BB25B005BB213435BB2DBB204
:102040003B737B7B5BB203F07F035AB27B685B78A8
:102050005BB2DB015BB213435BB2DBB27B737B7BB6
:102060005BB223F040035AB27B689B785BB29B0162
:102070005BB203F040035BB213435BB2DBB27B7332
:102080007B7B5BB223F00C035AB27B68DB785BB2DC
:102090009B005BB203F00C035BB213435BB2DBB299
:1020A0007B737B7B5BB223F003035AB27B681B79A3
:1020B0005BB203F003035BB213435BB2DBB27B732F
:1020C00007F10B0339681846FFF7B1FA0346FB73B3
:1020D00097F90F30002B3BD1FB7A03F00403002B60
:1020E00036D107F10C013B6802224B20FEF757FE68
:1020F0000346FB733B681B6C3A68526811464FF409
:102100007A70984797F90F30002B32D17B685B7853
:10211000002B15D13B680022DA767B6803F10801B9
:102120003B6801224D20FEF73AFE0346FB733B68F5
:102130001B6C3A68526811464FF47A70984718E061
:102140003B680122DA767B68DA783B681A7710E020
:102150003B681B6C3A685268114642F2107098470F
:10216000BB7B0133BB73BB7B142BA9D9F123FB735E
:1021700000E000BF97F90F3018461037BD4680BD0C
:1021800080B584B000AF7860396007F10E013B681C
:1021900001224420FEF790FD0346FB7397F90F30B0
:1021A000002B2DD1BB7B5BB203F00F035AB27B68CF
:1021B0009B795BB21B015BB213435BB2DBB2BB73B7
:1021C000BB7B5BB223F00F035AB27B685B795BB2D7
:1021D00003F00F035BB213435BB2DBB2BB7307F1D7
:1021E0000E013B6801224420FEF7D9FD0346FB7334
:1021F0003B681B6C3A68526811464FF47A709847F6
:1022000097F90F3018461037BD4680BD80B584B0B1
:1022100000AF786039607B68581D3B680B22012154
:1022200000F03CFB0346FB7397F90F30184610375C
:10223000BD4680BD80B584B000AF786039600023B2
:10224000BB81386800F05EFC0346FB7397F90F30E2
:10225000002B29D17B68002B26D007F10C013B68AD
:1022600002224020FEF728FD0346FB7397F90F304A
:10227000002B1BD13B7BDB09DAB27B689A703B7B7E
:102280001B11DBB203F00703DAB27B685A703B7BA9
:1022900003F00F03DAB27B681A707B7B03F0030351
:1022A000DAB27B68DA7001E0FF23FB7397F90F3035
:1022B00018461037BD4680BD80B584B000AF786049
:1022C00039600023BB81386800F01CFC0346FB73B7
:1022D00097F90F30002B39D17B68002B36D007F1EE
:1022E0000C013B6802224220FEF7E6FC0346FB732A
:1022F00097F90F30002B2BD13B7BDB09DAB27B68DF
:102300009A703B7B9B11DBB203F00103DAB27B686E
:102310005A713B7B1B11DBB203F00303DAB27B681B
:102320005A703B7B03F00F03DAB27B681A707B7B39
:10233000DB10DBB203F00103DAB27B68DA707B7B7F
:1023400003F00703DAB27B681A7101E0FF23FB7325
:1023500097F90F3018461037BD4680BD80B584B060
:1023600000AF78603960386800F0CCFB0346FB733F
:1023700097F90F30002B1DD17B68002B1AD03968DC
:10238000786800F0C0F80346FB7397F90F30002B14
:1023900013D13968786800F0D6F80346FB7397F9D3
:1023A0000F30002B09D13968786800F014F9034622
:1023B000FB7302E0FF23FB7300E000BF97F90F30CF
:1023C00018461037BD4680BD80B58AB000AF786032
:1023D000396007F10C0300221A605A609A60DA60D3
:1023E000002387F826300023BB8400237B8400234E
:1023F0003B8400233B7200237B720023BB7207F1F6
:1024000008033A6809211846FFF78AFA0346FB7762
:10241000FB7F002B6ED07B7A07F10C013A681846DF
:10242000FFF7ECF9034687F8273097F92730002BA0
:1024300063D1BB7A87F8263097F826305A1C87F884
:10244000262028333B4413F81C3CBB8497F82630E5
:102450005A1C87F8262028333B4413F81C3C1B02E7
:102460007B84BA8C7B8C13433B843B8CC3F30A0381
:102470009AB27B681A8097F826305A1C87F8262073
:1024800028333B4413F81C3CBB8497F826305A1C75
:1024900087F8262028333B4413F81C3C1B027B841E
:1024A000BA8C7B8C13433B843B8CC3F30A039AB2F4
:1024B0007B685A8097F826305A1C87F826202833E4
:1024C0003B4413F81C3CBB8497F826305A1C87F811
:1024D000262028333B4413F81C3C1B027B84BA8C17
:1024E0007B8C13433B843B8CC3F30A039AB27B6817
:1024F0009A8002E0F82387F8273097F927301846AA
:102500002837BD4680BD80B584B000AF78603960A3
:1025100007F10E013B6801226B20FEF7CDFB03465D
:10252000FB7397F90F30002B07D1BB7B5B11DBB23C
:1025300003F00103DAB27B681A7097F90F3018467E
:102540001037BD4680BD80B584B000AF786039607B
:102550000023BB8107F10C013B6802224B20FEF7F0
:10256000ABFB0346FB7397F90F30002B2DD13B7B60
:102570005B08DAB27B68DA717B7BDB09DAB27B68F5
:102580005A707B7B9B11DBB203F00103DAB27B68EC
:102590009A707B7B9B10DBB203F00303DAB27B689B
:1025A000DA707B7B03F00303DAB27B681A717B6815
:1025B0005B78002B09D17B6803F108013B6801229D
:1025C0004D20FEF779FB0346FB7397F90F30184651
:1025D0001037BD4680BD80B584B000AF78603960EB
:1025E00007F10E013B6801224420FEF765FB03461C
:1025F000FB7397F90F30002B0AD1BB7B1B09DAB2B2
:102600007B689A71BB7B03F00F03DAB27B685A7167
:1026100097F90F3018461037BD4680BD80B485B09D
:1026200000AF786039600023FB73FB7B5A1CFA73A0
:102630001A463B6813441B78BB73FB7B5A1CFA7326
:102640001A463B6813441B787B737B7B1BB21B02CF
:102650001AB2BB7B1BB213431BB27B81B7F90A20B2
:102660007B681A80FB7B5A1CFA731A463B6813443A
:102670001B78BB73FB7B5A1CFA731A463B681344E6
:102680001B787B737B7B1BB21B021AB2BB7B1BB21A
:1026900013431BB27B81B7F90A207B685A80FB7B0E
:1026A0005A1CFA731A463B6813441B78BB73FB7BB6
:1026B0005A1CFA731A463B6813441B787B737B7B66
:1026C0001BB21B021AB2BB7B1BB213431BB27B8132
:1026D000B7F90A207B689A8000BF1437BD465DF8C1
:1026E000047B704780B487B000AF7860396007F131
:1026F0000C0300221A609A800123FB824FF6FF73BD
:10270000BB827B68B3F90030BB817B68B3F90230D0
:10271000FB817B68B3F904303B823B6893F82B3034
:10272000002B10D13B6893F828305B0018333B44F2
:1027300033F90C3C9AB2FB8A12FB03F39BB21AB238
:102740007B681A800FE03B6893F828305B001833F1
:102750003B4433F90C3C9AB2BB8A12FB03F39BB2A5
:102760001AB27B681A803B6893F82C30002B10D18A
:102770003B6893F829305B0018333B4433F90C3C39
:102780009AB2FB8A12FB03F39BB21AB27B685A809F
:102790000FE03B6893F829305B0018333B4433F972
:1027A0000C3C9AB2BB8A12FB03F39BB21AB27B6851
:1027B0005A803B6893F82D30002B10D13B6893F87A
:1027C0002A305B0018333B4433F90C3C9AB2FB8A45
:1027D00012FB03F39BB21AB27B689A800FE03B684E
:1027E00093F82A305B0018333B4433F90C3C9AB21F
:1027F000BB8A12FB03F39BB21AB27B689A8000BFBC
:102800001C37BD465DF8047B704780B485B000AFCF
:1028100078600B467B807B68FB817B887A689A4274
:1028200002DD7B88FB8108E07B88DB437A689A4283
:1028300003DAB7F90230DB43FB81B7F90E301846F3
:102840001437BD465DF8047B704780B584B000AF97
:102850007860396047F6FF73FB817B68B3F900301D
:102860001A463B68B3F9443019467B68B3F9043023
:1028700001FB03F3002B01DA03F2FF135B121BB21F
:10288000D31AFA8911461846FFF7BFFF03461A46C6
:102890007B681A8000BF1037BD4680BD80B487B00A
:1028A00000AFF8607B600B46FB721346BB720023DF
:1028B000FB75FB68002B1ED0FB681B78FA7A9A42E6
:1028C00009D9FB68FA7A1A707B681B7A43F0010316
:1028D000DAB27B681A72FB681B78BA7A9A420CD219
:1028E000FB68BA7A1A707B681B7A43F00203DAB28B
:1028F0007B681A7201E0FF23FB7597F917301846C1
:102900001C37BD465DF8047B704780B584B000AFCE
:10291000786039600023BB817B68581C7B68023378
:102920003A681946FFF74FF90346FB7397F90F30E2
:10293000002B5BD178687B6803333A681946FFF750
:102940006FF90346FB7397F90F30002B4ED13B7B99
:102950005BB203F07F035AB27B689B785BB2DB010A
:102960005BB213435BB2BB7397F90E3023F0700375
:102970005AB27B685B785BB21B015BB203F07003F9
:102980005BB213435BB2BB7397F90E3023F00F03B6
:102990005AB27B681B785BB203F00F035BB2134340
:1029A0005BB2BB73BB7B3B737B7B5BB223F00303EC
:1029B0005AB27B68DB785BB203F003035BB213436C
:1029C0005BB2BB73BB7B7B7307F10C013B680222DC
:1029D0004020FEF7E4F90346FB7397F90F30002B14
:1029E00004D13868FFF790F90346FB7397F90F306D
:1029F00018461037BD4680BD80B584B000AF786002
:102A000039600023BB8139687868FFF729F90346EC
:102A1000FB7397F90F30002B6ED13B7B5BB203F059
:102A20007F035AB27B689B785BB2DB015BB21343D6
:102A30005BB2BB7397F90E3023F040035AB27B6848
:102A40005B795BB29B015BB203F040035BB2134363
:102A50005BB2BB7397F90E3023F030035AB27B6838
:102A60005B785BB21B015BB203F030035BB21343D4
:102A70005BB2BB7397F90E3023F00F035AB27B6839
:102A80001B785BB203F00F035BB213435BB2BB7303
:102A9000BB7B3B737B7B5BB223F008035AB27B6842
:102AA000DB785BB2DB005BB203F008035BB213437D
:102AB0005BB2BB7397F90E3023F007035AB27B6801
:102AC0001B795BB203F007035BB213435BB2BB73CA
:102AD000BB7B7B7307F10C013B6802224220FEF7AF
:102AE0005EF90346FB7397F90F30002B04D1386869
:102AF000FFF70AF90346FB7397F90F3018461037B2
:102B0000BD4680BD80B485B000AF78600023FB7304
:102B10007B68002B0BD07B689B6B002B07D07B68FE
:102B2000DB6B002B03D07B681B6C002B01D1FF23D8
:102B3000FB7397F90F3018461437BD465DF8047BD8
:102B4000704780B588B000AF7860396007F10C033A
:102B500000221A605A609A60DA600023BB77002373
:102B60003B7200237B720023BB7207F108033A68B3
:102B70000921184600F04BF803467B777B7F002B3A
:102B80003DD07B7A07F10C013A681846FEF736FE15
:102B90000346FB7797F91F30002B32D1BB7ABB7706
:102BA000BB7F20333B4413F8143C03F00103DAB23B
:102BB0007B681A70BB7F20333B4413F8143C5B10D6
:102BC000DBB203F00103DAB27B685A70BB7F2033BB
:102BD0003B4413F8143C9B10DBB203F00103DAB260
:102BE0007B689A70BB7F20333B4413F8143CDB10A6
:102BF000DBB203F00703DAB27B68DA7001E0F82396
:102C0000FB7797F91F3018462037BD4680BD80B44A
:102C100087B000AFF8600B467A60FB720023FB754B
:102C20000023BB751CE07B68596AFA7D13465B0084
:102C300013440B441B78FA7A9A420ED17B68596A86
:102C4000FA7D13465B001344CA18FB68118892781A
:102C500019809A700123BB7507E0FB7D0133FB757A
:102C60007B689B7EFA7D9A42DDD3BB7D18461C377C
:102C7000BD465DF8047B704780B588B000AF7860D2
:102C8000396007F10C0300221A605A609A60DA601A
:102C90000023BB7700233B7200237B720023BB72AF
:102CA0003B68B3F8483003F02003002B1DD007F138
:102CB0000B013B6801221E20FDF7FEFF0346FB7758
:102CC00097F91F30002B57D1FB7A03F04003002BFC
:102CD00006D0FB7A803B9BB21AB27B681A804BE02D
:102CE000FB7A1AB27B681A8046E007F108033A685B
:102CF00029211846FFF78BFF03467B777B7F002B4C
:102D000038D07B7A07F10C013A681846FEF776FD59
:102D10000346FB7797F91F30002B2DD1BB7ABB7789
:102D2000BB7F20333B4413F8142CBB7F02F07F029F
:102D3000D2B220333B4403F8142CBB7F20333B44F6
:102D400013F8143C03F04003002B0AD0BB7F203360
:102D50003B4413F8143C803B9BB21AB27B681A8048
:102D60000AE0BB7F20333B4413F8143C1AB27B6863
:102D70001A8001E0F823FB7797F91F3018462037B7
:102D8000BD4680BD2DE9B00F89B000AF78610B461C
:102D9000FA60FB740023FB770023BB7741E0BB7F25
:102DA0007A6913441B78202B28D0202B33DC022B8C
:102DB0001AD0022B2FDC002B02D0012B0AD02AE0E4
:102DC000FB68D3E9002342F001041D46FB68C3E918
:102DD000004523E0FB68D3E9002342F0020899464E
:102DE000FB68C3E9008919E0FB68D3E9002342F0DE
:102DF000040A9B46FB68C3E900AB0FE0FB68D3E91C
:102E000000233A6043F001037B60FB68D7E90012BE
:102E1000C3E9001202E0F823FB7700BFBB7F013358
:102E2000BB77BA7FFB7C9A42B9D397F91F3018461B
:102E30002437BD46BDE8B00F70472DE9B04F8AB0CA
:102E400000AFC7E906017A61002387F8263007F151
:102E500026017B6901227D20FDF72EFF034687F8BE
:102E6000273097F92730002B58D1D7E9062302F0F5
:102E70000103BB600023FB60D7E902120B4613433A
:102E800006D097F8263043F00403DBB287F82630EB
:102E9000D7E9062302F002033B6000237B60D7E9F9
:102EA00000120B46134306D097F8263043F0020376
:102EB000DBB287F82630D7E9062302F0040A4FF088
:102EC000000B5AEA0B0306D097F8263043F00103B3
:102ED000DBB287F82630D7E906234FF0000803F06D
:102EE000010958EA090306D097F8263043F0080391
:102EF000DBB287F82630D7E9062302F0070403F097
:102F0000010554EA050309D007F126017B69012276
:102F10007D20FDF744FF034687F8273097F92730D7
:102F200018462837BD46BDE8B08F000080B584B094
:102F300000AF7860786800F0E5F80346FB7397F916
:102F40000F30002B41D17B6824221A707B684FF42C
:102F50000052A3F84A207B680322A3F848207B682C
:102F60005B7A002B03D17B680122DA7202E07B6876
:102F70000022DA727B685B69002B02D17B68164AFB
:102F80005A617868FDF738FE0346FB7397F90F30F6
:102F9000002B1AD17B68114A1A627B68104A5A6268
:102FA0007B6808221A767B6811225A767B68072292
:102FB0009A767B680B4ADA657B68082283F8602082
:102FC0007868FEF7BBFB0346FB7397F90F30184692
:102FD0001037BD4680BD00BFDCD40108DCF4010819
:102FE00010F501080800002080B586B000AFF86039
:102FF0000B467A60FB7200237B75786800F082F8DC
:103000000346FB7597F91730002B71D1FB68002B35
:103010006ED07B6893F847307B750023BB7553E017
:10302000BA7D1346DB009B1ADB001A46FB6813448B
:103030001B78002B20D0BA7D1346DB009B1ADB00E7
:103040001A46FB6813441B78012B15D0BA7D134632
:10305000DB009B1ADB001A46FB6813441B78022B2B
:103060000AD0BA7D1346DB009B1ADB001A46FB68C8
:1030700013441B78092B0FD1BA7D1346DB009B1A32
:10308000DB001A46FB6813447A6801211846FEF7F4
:1030900031F80346FB7514E07B7D012B05D179687F
:1030A0000020FDF750FF0346FB7597F91730002B02
:1030B0000FD1BB7D7A681946F86800F0F7FD03462A
:1030C000FB75BB7D0133BB75BA7DFB7A9A42A7D3F2
:1030D00000E000BF7B7D012B0DD197F91730002B4D
:1030E00009D179680120FDF72EFF0346FB7502E048
:1030F000FF23FB7500E000BF97F91730184618371B
:10310000BD4680BD80B485B000AF78600023FB73FE
:103110007B68002B0BD07B689B6B002B07D07B68F8
:10312000DB6B002B03D07B681B6C002B01D1FF23D2
:10313000FB7397F90F3018461437BD465DF8047BD2
:10314000704780B58AB000AF7860396007F10C0332
:1031500000221A605A609A60DA60002387F82530EE
:10316000002387F8263000233B7200237B72002364
:10317000BB7207F10C033B6207F108033A680421B4
:103180001846FEF7CDFB0346FB77FB7F002B00F0D4
:10319000D8807B7A07F10C013A681846FEF72EFBBF
:1031A000034687F8273097F92730002B40F0CC8072
:1031B000BB7A87F8253097F825305B0887F82530EB
:1031C00097F825305B003A6A13441B881BB223F43E
:1031D000FF5323F01F031AB27B681B881BB2C3F393
:1031E0000C031BB2134319B297F825305B003A6AFF
:1031F00013448AB21A8097F825305B003A6A134468
:103200001B881BB223F400531AB27B689B881BB245
:103210005B031BB203F400531BB2134319B297F8BC
:1032200025305B003A6A13448AB21A8097F8253039
:103230005B003A6A13441B881BB223F480431AB222
:103240007B68DB881BB29B031BB203F480431BB279
:10325000134319B297F825305B003A6A13448AB2D7
:103260001A8097F825305B003A6A13441B881BB21A
:10327000C3F30E031AB27B681B891BB2DB031BB2BC
:10328000134319B297F825305B003A6A13448AB2A7
:103290001A8097F82530013387F8253097F82530C4
:1032A0005B003A6A13441B881BB223F4FF6323F0CC
:1032B00007031AB27B685B881BB2C3F30A031BB215
:1032C000134319B297F825305B003A6A13448AB267
:1032D0001A8097F82530013387F8253097F8253084
:1032E0005B00DAB2BB7AD31A87F82530002387F85F
:1032F000263015E0BB7A1A4697F8263013443A6A0E
:103300001A44BB7A194697F826300B4412782833B2
:103310003B4403F81C2C97F82630013387F82630FD
:1033200097F8262097F825309A42E3D307F10C014D
:103330003B6810223020FDF732FD034687F8273026
:1033400002E0F82387F8273097F927301846283706
:10335000BD4680BD80B58AB000AF7860396007F1A6
:103360000C0300221A605A609A60DA60002387F822
:103370002530002387F8263000233B7200237B7220
:103380000023BB7207F10C033B6207F108033A68A4
:1033900005211846FEF7C4FA0346FB77FB7F002B96
:1033A00000F0D8807B7A07F10C013A681846FEF7E6
:1033B00025FA034687F8273097F92730002B40F08D
:1033C000CC80BB7A87F8253097F825305B0887F8E2
:1033D000253097F825305B003A6A13441B881BB2EE
:1033E00023F4FF5323F01F031AB27B681B881BB220
:1033F000C3F30C031BB2134319B297F825305B00DB
:103400003A6A13448AB21A8097F825305B003A6A08
:1034100013441B881BB223F400531AB27B689B88A9
:103420001BB25B031BB203F400531BB2134319B26C
:1034300097F825305B003A6A13448AB21A8097F8ED
:1034400025305B003A6A13441B881BB223F4804387
:103450001AB27B68DB881BB29B031BB203F4804368
:103460001BB2134319B297F825305B003A6A134434
:103470008AB21A8097F825305B003A6A13441B8899
:103480001BB2C3F30E031AB27B681B891BB2DB03AA
:103490001BB2134319B297F825305B003A6A134404
:1034A0008AB21A8097F82530013387F8253097F8CB
:1034B00025305B003A6A13441B881BB223F4FF6378
:1034C00023F007031AB27B685B881BB2C3F30A03BD
:1034D0001BB2134319B297F825305B003A6A1344C4
:1034E0008AB21A8097F82530013387F8253097F88B
:1034F00025305B00DAB2BB7AD31A87F82530002377
:1035000087F8263015E0BB7A1A4697F82630134420
:103510003A6A1A44BB7A194697F826300B44127857
:1035200028333B4403F81C2C97F82630013387F8E6
:10353000263097F8262097F825309A42E3D307F1F2
:103540000C013B6810223020FDF729FC034687F868
:10355000273002E0F82387F8273097F927301846FC
:103560002837BD4680BD80B58AB000AF786039602D
:1035700007F10C0300221A605A609A60DA60002397
:1035800087F82530002387F8263000233B7200237C
:103590007B720023BB7207F10C033B6207F1080347
:1035A0003A6803211846FEF7BBF90346FB77FB7F19
:1035B000002B55D07B7A07F10C013A681846FEF7CC
:1035C0001DF9034687F8273097F92730002B4AD199
:1035D000BB7A87F8253097F825305B0887F82530C7
:1035E00097F825305B003A6A13447A6812881A808B
:1035F00097F82530013387F8253097F825305B00A0
:10360000DAB2BB7AD31A87F82530002387F8263040
:1036100015E0BB7A1A4697F8263013443A6A1A44E2
:10362000BB7A194697F826300B44127828333B446E
:1036300003F81C2C97F82630013387F8263097F8CA
:10364000262097F825309A42E3D307F10C013B6816
:1036500010223020FDF7A3FB034687F8273002E055
:10366000F82387F8273097F9273018462837BD46C2
:1036700080BD80B58CB000AF78603960002387F8DA
:103680002F3007F10C0300221A605A609A60DA604A
:10369000002387F82E3000233B7200237B72002327
:1036A000BB72322387F8283097F828301B0987F837
:1036B0002730082387F82B30002387F8293007F1BB
:1036C0000C033B6207F108033A681D211846FEF718
:1036D00027F90346FB77FB7F002B00F099807B7A6C
:1036E000BB77BA7F97F8273013447B77BB7A87F88C
:1036F0002C3097F827301B01DBB297F82820D31A1B
:10370000DAB297F82C3013443B77BB7F87F82D3023
:1037100078E007F10C0197F82D303A681846FEF76B
:103720006DF8034687F82F3097F92F30002B64D1BE
:1037300097F82D20BB7F9A4202D9002387F82C30BE
:1037400097F82D207B7F9A4203D13B7F5B0887F857
:103750002B3097F82C305B0887F82A3015E097F863
:1037600029305B007A681A4497F82A305B00396A7E
:103770000B4412881A8097F82A30013387F82A30D0
:1037800097F82930013387F8293097F82A2097F8DD
:103790002B309A42E3D397F82A305B00DAB2BB7A37
:1037A000D31A87F82A30002387F82E3015E0BB7A29
:1037B0001A4697F82E3013443A6A1A44BB7A1946CF
:1037C00097F82E300B44127830333B4403F8242C06
:1037D00097F82E30013387F82E3097F82E2097F87F
:1037E0002A309A42E3D307F10C013B6810223020C3
:1037F000FDF7D5FA034687F82F3097F82D300133BF
:1038000087F82D3097F82D207B7F9A4281D902E0EE
:10381000F82387F82F3097F92F3018463037BD46F8
:1038200080BD80B58AB000AF7860396007F10C03C5
:1038300000221A605A609A60DA60002387F8253007
:10384000002387F8263000233B7200237B7200237D
:10385000BB7207F10C033B6207F108033A680721CA
:103860001846FEF75DF80346FB77FB7F002B00F060
:1038700084807B7A07F10C013A681846FDF7BEFF99
:10388000034687F8273097F92730002B78D1BB7A89
:1038900087F8253097F825305B0887F8253097F8AA
:1038A00025305B003A6A13441B881BB223F47F73F4
:1038B00023F003031AB27B681B881BB2C3F309030E
:1038C0001BB2134319B297F825305B003A6A1344D0
:1038D0008AB21A8097F825305B003A6A13441B8835
:1038E0001BB223F480631AB27B685B881BB29B0215
:1038F0001BB203F480631BB2134319B297F825304F
:103900005B003A6A13448AB21A8097F82530013373
:1039100087F8253097F825305B00DAB2BB7AD31AE6
:1039200087F82530002387F8263015E0BB7A1A4641
:1039300097F8263013443A6A1A44BB7A194697F826
:1039400026300B44127828333B4403F81C2C97F89C
:103950002630013387F8263097F8262097F825304F
:103960009A42E3D307F10C013B6810223020FDF7A7
:1039700016FA034687F8273002E0F82387F8273045
:1039800097F9273018462837BD4680BD80B58AB0E4
:1039900000AF7860396007F10C0300221A605A60AA
:1039A0009A60DA60002387F82530002387F82630F4
:1039B00000233B7200237B720023BB7207F10C03D0
:1039C0003B6207F108033A6813211846FDF7A8FF88
:1039D0000346FB77FB7F002B00F091807B7A07F199
:1039E0000C013A681846FDF709FF034687F82730AF
:1039F00097F92730002B40F08580BB7A87F8253077
:103A000097F825305B0887F8253097F825305B005C
:103A10003A6A13441B881BB223F010031AB27B6866
:103A20001B881BB21B011BB203F010031BB2134314
:103A300019B297F825305B003A6A13448AB21A80AB
:103A400097F82530013387F8253097F825305B004B
:103A50003A6A13447A6852881A8097F825300133FD
:103A600087F8253097F825305B003A6A13447A6866
:103A700092881A8097F82530013387F8253097F817
:103A800025305B003A6A13447A68D2881A8097F826
:103A90002530013387F8253097F825305B00DAB2FE
:103AA000BB7AD31A87F82530002387F8263015E033
:103AB000BB7A1A4697F8263013443A6A1A44BB7AFE
:103AC000194697F826300B44127828333B4403F804
:103AD0001C2C97F82630013387F8263097F82620DB
:103AE00097F825309A42E3D307F10C013B68102286
:103AF0003020FDF754F9034687F8273002E0F82319
:103B000087F8273097F9273018462837BD4680BDFB
:103B100080B58AB000AF7860396007F10C030022ED
:103B20001A605A609A60DA60002387F82530002313
:103B300087F8263000233B7200237B720023BB7280
:103B400007F10C033B6207F108033A681421184699
:103B5000FDF7E6FE0346FB77FB7F002B00F09D8020
:103B60007B7A07F10C013A681846FDF747FE0346D9
:103B700087F8273097F92730002B40F09180BB7AE7
:103B800087F8253097F825305B0887F8253097F8B7
:103B90002530013387F8253097F825305B003A6AE5
:103BA00013447A6812881A8097F82530013387F811
:103BB000253097F825305B003A6A13447A685288BA
:103BC0001A8097F82530013387F8253097F825308B
:103BD0005B003A6A13447A6892881A8097F8253015
:103BE000013387F8253097F825305B003A6A134493
:103BF0007A68D2881A8097F82530013387F8253003
:103C000097F825305B003A6A13447A6812891A8063
:103C100097F82530013387F8253097F825305B0079
:103C20003A6A13447A6852891A8097F8253001332A
:103C300087F8253097F825305B00DAB2BB7AD31AC3
:103C400087F82530002387F8263015E0BB7A1A461E
:103C500097F8263013443A6A1A44BB7A194697F803
:103C600026300B44127828333B4403F81C2C97F879
:103C70002630013387F8263097F8262097F825302C
:103C80009A42E3D307F10C013B6810223020FDF784
:103C900086F8034687F8273002E0F82387F82730B4
:103CA00097F9273018462837BD4680BD80B586B0C5
:103CB00000AFF8600B467A60FB72FA7A1346DB00BD
:103CC0009B1ADB001A46FB6813441B78033B1A2B34
:103CD00000F2AA8001A252F823F000BF893D00083B
:103CE000493D0008693D0008C93D0008C93D00087C
:103CF000C93D0008293E0008293E0008293E000869
:103D0000293E0008293E0008293E0008293E0008F7
:103D1000293E0008293E0008293E0008E93D000828
:103D2000093E0008293E0008293E0008293E0008F7
:103D3000293E0008293E0008293E0008293E0008C7
:103D4000293E0008A93D0008FA7A1346DB009B1AB9
:103D5000DB001A46FB681344043379681846FFF702
:103D6000F0F90346FB7562E0FA7A1346DB009B1A12
:103D7000DB001A46FB681344043379681846FFF7E2
:103D8000E9FA0346FB7552E0FA7A1346DB009B1A08
:103D9000DB001A46FB681344043379681846FFF7C2
:103DA000E2FB0346FB7542E0FA7A1346DB009B1AFE
:103DB000DB001A46FB681344043379681846FFF7A2
:103DC00058FC0346FB7532E0FA7A1346DB009B1A77
:103DD000DB001A46FB681344043379681846FFF782
:103DE00020FD0346FB7522E0FA7A1346DB009B1A9E
:103DF000DB001A46FB681344043379681846FFF762
:103E0000C5FD0346FB7512E0FA7A1346DB009B1AE8
:103E1000DB001A46FB681344043379681846FFF741
:103E200077FE0346FB7502E0F823FB7500BF97F9A8
:103E3000173018461837BD4680BD00BF80B586B024
:103E400000AFB9607A603B600346FB733A6807F1E4
:103E5000140312881A80387D7B689BB2F97BBA689C
:103E600003F0CEFD034618461837BD4680BD80B529
:103E700086B000AFB9607A603B600346FB733A6876
:103E800007F1140312881A80387D7B689BB2F97B96
:103E9000BA6803F0D7FD034618461837BD4680BD03
:103EA00080B582B000AF78603960786803F08EFD2D
:103EB00000BF0837BD4680BD80B584B000AF7860D4
:103EC0000B46FB700023FB737B68002B26D0FB782E
:103ED000012B0ED1154815F0DFF9154B69221A7028
:103EE0007B6801225A727B68124A9A637B68124A85
:103EF000DA63124B1A78124B5A700D4B1A78104B2A
:103F00001A707B680E4A5A607B680E4A1A647B6896
:103F10002E22DA817B6800225A6101E0FF23FB73C5
:103F200097F90F3018461037BD4680BDB0C4010860
:103F3000040300203D3E00086F3E000805030020FA
:103F400008030020A13E000880B582B000AF034600
:103F5000FB7197F907302233242B00F22D8101A247
:103F600052F823F0AB4100089D4100088F41000842
:103F7000B941000881410008B9410008B941000871
:103F80007341000865410008574100084941000895
:103F90003B4100082D4100081F4100081141000865
:103FA00003410008F5400008E74000084D400008C4
:103FB000D9400008CB400008BD4000085B40000825
:103FC000B9410008AF400008A14000083F40000888
:103FD00093400008854000087740000869400008C9
:103FE000314000082340000815400008C741000880
:103FF000F93F00080740000897F907301946744850
:1040000015F0E2F8E0E097F907301946714815F02D
:10401000DBF8D9E097F9073019466F4815F0D4F866
:10402000D2E097F9073019466C4815F0CDF8CBE08F
:1040300097F9073019466A4815F0C6F8C4E097F9B1
:1040400007301946674815F0BFF8BDE097F907300B
:104050001946654815F0B8F8B6E097F907301946E3
:10406000624815F0B1F8AFE097F90730194660489B
:1040700015F0AAF8A8E097F9073019465D4815F041
:10408000A3F8A1E097F9073019465B4815F09CF8B2
:104090009AE097F907301946584815F095F893E0DB
:1040A00097F907301946564815F08EF88CE097F9C5
:1040B00007301946534815F087F885E097F907301F
:1040C0001946514815F080F87EE097F907301946F7
:1040D0004E4815F079F877E097F9073019464C48C3
:1040E00015F072F870E097F907301946494815F055
:1040F0006BF869E097F907301946474815F064F8FE
:1041000062E097F907301946444815F05DF85BE026
:1041100097F907301946424815F056F854E097F9D8
:10412000073019463F4815F04FF84DE097F9073032
:1041300019463D4815F048F846E097F9073019460A
:104140003A4815F041F83FE097F9073019463848EA
:1041500015F03AF838E097F907301946354815F068
:1041600033F831E097F907301946334815F02CF849
:104170002AE097F907301946304815F025F823E072
:1041800097F9073019462E4815F01EF81CE097F9EC
:10419000073019462B4815F017F815E097F9073046
:1041A0001946294815F010F80EE097F9073019461E
:1041B000264815F009F807E097F907301946244812
:1041C00015F002F800E000BF00BF0837BD4680BD13
:1041D000C0C40108DCC4010800C5010894C5010879
:1041E00024C6010884C60108FCC601086CC7010882
:1041F000ECC70108B4C8010874C9010830CA010835
:1042000008CB010884CB010800CC010874CC01085C
:10421000F0CC010864CD0108ECCD01085CCE0108AA
:10422000C8CE01081CCF010874CF0108B8CF01081F
:1042300038D00108B4D0010818D1010884D1010890
:10424000D8D1010854D20108C4D2010854D30108BE
:10425000C0D3010890B587B000AFB9607B6003465A
:10426000FB731346BB810023FB757B68002B03D0D7
:104270007B68DB69002B02D1FF23FB7517E0BB894C
:10428000002B02D1F423FB7511E07B689B78012B96
:1042900003D1FB7B63F07F03FB737B68DC697B6886
:1042A0005878BB89F97BBA68A0470346FB7597F934
:1042B000173018461C37BD4690BD90B587B000AF8B
:1042C000B9607B600346FB731346BB810023FB751B
:1042D0000023BB757B68002B03D07B681B6A002B17
:1042E00002D1FF23FB7545E0BB89002B02D1F423EB
:1042F000FB753FE07B689B78012B03D1FB7B03F0D0
:104300007F03FB737B681B7A112B03D07B681B7CBC
:10431000152B24D17B681C6A7B685878BB89F97B94
:10432000BA68A0470346FB757B685B6A0120984723
:104330001AE07B681C6A7B685878BB7DBA681A44AF
:10434000F97B0123A0470346FB75FB7B0133FB731D
:104350007B685B6A01209847BB7D0133BB75BB7DE1
:104360009BB2BA899A42E4D897F91730002B01D052
:10437000FE23FB7597F9173018461C37BD4690BDD4
:1043800080B584B000AF78600323BB73786800F019
:104390003CFD0346FB7397F90F30002B0CD17B6873
:1043A0009B78012B08D107F10D017B6801227F204A
:1043B000FFF750FF0346FB7397F90F30002B27D10F
:1043C0007B6800221A7007E079687B68012224204C
:1043D000FFF740FF0346FB73BB7B5A1EBA73002BEB
:1043E00003D07B681B78D12BEED197F90F30002BCF
:1043F0000CD17B681B78D12B08D17B68FF22DA7047
:10440000786800F00BF80346FB7301E0FD23FB73B3
:1044100097F90F3018461037BD4680BD80B584B07F
:1044200000AF7860B623BB737B68002B03D07B683A
:104430005B6A002B02D1FF23FB7324E007F10E011E
:104440007B6801227E20FFF738FF0346FB737B6801
:104450005B6A0120984797F90F30002B0CD17B68DD
:104460009B78012B08D107F10E017B6801227F2088
:10447000FFF7F0FE0346FB7397F90F30002B02D1D4
:10448000786800F0E2FC97F90F3018461037BD4607
:1044900080BD80B584B000AF78600023FB737B687B
:1044A000002B03D07B685B6A002B02D1FF23FB73D8
:1044B0001FE0786800F0F3FC0346FB7397F90F30B8
:1044C000002B16D1786800F02FFE0346FB7397F996
:1044D0000F30002B0DD1786800F011F80346FB7304
:1044E00097F90F30002B04D1786800F0E8FD0346FF
:1044F000FB7397F90F3018461037BD4680BD80B565
:1045000084B000AF78600023FB737B68002B03D07E
:104510007B685B6A002B02D1FF23FB730DE0786898
:1045200000F00CFF0346FB7397F90F30002B04D10A
:10453000786800F09AFF0346FB7397F90F3018462E
:104540001037BD4680BD80B586B000AFB9607A60D7
:104550003B600346FB730023FB750023BB75FB7BAD
:1045600003F007037B757B7D9B10DBB203F0010337
:104570003B757B7D03F003037B753B7D012B01D1F4
:104580000323BB753B68002B3CD07B7D032B24D0E1
:10459000032B34DC012B02D0022B0FD02FE0BB68A1
:1045A000002B02D1FF23FB752EE0BB7D3A68B96872
:1045B000184600F09EFF0346FB7525E07B68002B44
:1045C00002D1FF23FB751FE0BB7D3A68796818466E
:1045D00001F05BF80346FB7516E07B68002B02D008
:1045E000BB68002B02D1FF23FB750DE0B87D3B6853
:1045F0007A68B96801F097F90346FB7504E0FB237C
:10460000FB7501E0FF23FB7597F917301846183743
:10461000BD4680BD80B584B000AF786039600023AE
:10462000FB737B685B780D2B79D801A252F823F0DD
:104630006946000877460008A1460008934600082E
:1046400093460008AF460008BD460008D94600085A
:10465000CB46000885460008E7460008F5460008F6
:1046600003470008114700083968786800F063F9CB
:104670000346FB7354E03968786800F0F6F90346A6
:10468000FB734DE03968786800F01DFA0346FB7350
:1046900046E03968786800F07CF90346FB733FE038
:1046A0003968786800F03DFA0346FB7338E03968F2
:1046B000786800F077FA0346FB7331E03968786870
:1046C00000F0B1FA0346FB732AE03968786800F01D
:1046D000EBFA0346FB7323E03968786800F02FFBA0
:1046E0000346FB731CE03968786800F08BF90346D9
:1046F000FB7315E03968786802F07DFD0346FB73B3
:104700000EE03968786802F0DEFD0346FB7307E0CF
:104710003968786800F05EFB0346FB7300E000BF79
:1047200097F90F3018461037BD4680BD80B586B06A
:1047300000AFF860B9607A60786800F066FB034605
:10474000FB7597F91730002B02D0FF23FB756BE048
:104750007968F86802F03FFE0346FB7597F9173059
:10476000002B61D107F116017B6801226920FFF758
:1047700071FD0346FB75BB7D5BB223F040035AB26B
:10478000FB681B785BB29B015BB203F040035BB23A
:1047900013435BB2DBB2BB75BB7D5BB223F030036E
:1047A0005AB2FB685B785BB21B015BB203F030036B
:1047B0005BB213435BB2DBB2BB75BB7D5BB223F074
:1047C0000C035AB2FB689B785BB29B005BB203F0B0
:1047D0000C035BB213435BB2DBB2BB75BB7D5BB258
:1047E00023F003035AB2FB68DB785BB203F00303E8
:1047F0005BB213435BB2DBB2BB7597F91730002B8A
:1048000012D107F116017B6801226920FFF755FDDF
:104810000346FB7597F91730002B05D17968B86806
:1048200002F025FE0346FB7597F917301846183736
:10483000BD4680BD80B588B000AF7860396038680B
:1048400000F0E3FA0346FB7797F91F30002B02D004
:10485000FF23FB7769E007F10C013B680722712019
:10486000FFF7F8FC0346FB773B7B5AB27B681A7074
:104870007B7B5AB27B685A70BB7B5AB27B689A705A
:10488000FB7BBB77BB7C03F003037B777B7F1BB297
:104890009B037B83BB7F1BB29B013B837A8B3B8B50
:1048A0001343FB82B7F91630002B00DA3F339B111C
:1048B0001AB27B689A803B7CBB77BB7C9B10DBB2D7
:1048C00003F003037B777B7F1BB29B037B83BB7F60
:1048D0001BB29B013B837A8B3B8B1343FB82B7F963
:1048E0001630002B00DA3F339B111AB27B68DA8056
:1048F0007B7CBB77BB7C1B11DBB203F003037B77B4
:104900007B7F1BB29B037B83BB7F1BB29B013B83E3
:104910007A8B3B8B1343FB82B7F91630002B00DAFE
:104920003F339B111AB27B681A8197F91F301846E2
:104930002037BD4680BD80B584B000AF7860396057
:10494000386800F062FA0346FB7397F90F30002BCA
:1049500002D17B68002B02D1FF23FB7313E07B683D
:104960000433BB603968B86801F020F90346FB7373
:1049700097F90F30002B06D13A68B968786801F0D2
:104980004BFB0346FB7397F90F3018461037BD46B3
:1049900080BD80B584B000AF78603960386800F0C1
:1049A00034FA0346FB7397F90F30002B02D17B6872
:1049B000002B02D1FF23FB731EE07B680433BB6036
:1049C0003A68B968786801F08DFE0346FB7397F981
:1049D0000F30002B10D13968786800F0FBF90346DE
:1049E000FB7397F90F30002B06D13A68B9687868E5
:1049F00001F0CDFE0346FB7397F90F3018461037D0
:104A0000BD4680BD80B584B000AF7860396038683D
:104A100000F0FBF90346FB7397F90F30002B02D12E
:104A20007B68002B02D1FF23FB7318E0386801F08C
:104A30002CFB0346FB7397F90F30002B0FD139681D
:104A4000786800F0C7F90346FB7397F90F30002B25
:104A500005D13968786801F0DFF90346FB7397F9EF
:104A60000F3018461037BD4680BD80B584B000AF0A
:104A700078603960386800F0C8F90346FB7397F92D
:104A80000F30002B02D17B68002B02D1FF23FB7378
:104A900013E07B680433BB603968B86801F04DFCF3
:104AA0000346FB7397F90F30002B06D13A68B968BB
:104AB000786801F083FC0346FB7397F90F301846C2
:104AC0001037BD4680BD80B584B000AF78603960D6
:104AD000386800F09AF90346FB7397F90F30002B02
:104AE00002D17B68002B02D1FF23FB7313E07B68AC
:104AF0000433BB603968B86801F0F4FA0346FB730D
:104B000097F90F30002B06D13A68B968786801F040
:104B10003EFB0346FB7397F90F3018461037BD462E
:104B200080BD80B584B000AF78603960386800F02F
:104B30006CF90346FB7397F90F30002B02D17B68A9
:104B4000002B02D1FF23FB7326E07B680433BB609C
:104B50003968B86801F00BFD0346FB7397F90F3015
:104B6000002B19D13968786800F034F90346FB73DB
:104B700097F90F30002B0FD13968786801F0B8F839
:104B80000346FB7397F90F30002B05D13968B868DD
:104B900001F027FD0346FB7397F90F3018461037D5
:104BA000BD4680BD80B584B000AF7860396038689C
:104BB00000F02BF90346FB7397F90F30002B02D15D
:104BC0007B68002B02D1FF23FB7326E07B68043354
:104BD000BB603968B86801F0E1FE0346FB7397F9E2
:104BE0000F30002B19D13968786800F0F3F80346CC
:104BF000FB7397F90F30002B0FD13968786801F0FB
:104C000077F80346FB7397F90F30002B05D139680D
:104C1000B86801F0FDFE0346FB7397F90F301846A4
:104C20001037BD4680BD80B584B000AF7860396074
:104C3000386800F0EAF80346FB7397F90F30002B51
:104C400002D17B68002B02D1FF23FB7326E07B6837
:104C50000433BB603968B86801F06DFF0346FB732D
:104C600097F90F30002B19D13968786800F0B2F845
:104C70000346FB7397F90F30002B0FD13968786822
:104C800001F036F80346FB7397F90F30002B05D17E
:104C90003968B86801F086FF0346FB7397F90F3057
:104CA00018461037BD4680BD80B584B000AF78602F
:104CB0003960386800F0A9F80346FB7397F90F30A4
:104CC000002B02D17B68002B02D1FF23FB7330E065
:104CD0007B680433BB603968B86801F0C0FF0346E5
:104CE000FB7397F90F30002B23D13968786800F0F7
:104CF00071F80346FB7397F90F30002B19D139680F
:104D0000786800F0F5FF0346FB7397F90F30002B2E
:104D10000FD13968B86801F0DCFF0346FB7397F9DF
:104D20000F30002B05D13968B86802F009F8034646
:104D3000FB7397F90F3018461037BD4680BD80B51C
:104D400084B000AF78603960386800F05EF80346E0
:104D5000FB7397F90F30002B02D17B68002B02D137
:104D6000FF23FB7330E07B680433BB603968B868AD
:104D700002F03AF80346FB7397F90F30002B23D16A
:104D80003968786800F026F80346FB7397F90F300E
:104D9000002B19D13968786800F0AAFF0346FB732D
:104DA00097F90F30002B0FD13968B86802F079F805
:104DB0000346FB7397F90F30002B05D13968B868AB
:104DC00002F0A6F80346FB7397F90F301846103728
:104DD000BD4680BD80B584B000AF78603960396869
:104DE000786802F0D7F80346FB7397F90F30002B71
:104DF00005D13968786802F099F90346FB7397F991
:104E00000F3018461037BD4680BD80B485B000AF66
:104E100078607B68002B0BD07B68DB69002B07D0A8
:104E20007B681B6A002B03D07B685B6A002B02D176
:104E3000FF23FB7301E00023FB7397F90F30184643
:104E40001437BD465DF8047B704780B483B000AF73
:104E500078607B680222DA717B6808225A717B686D
:104E600010221A717B6803229A717B680222DA731E
:104E70007B6808225A737B6814221A737B680022AD
:104E80009A737B687A6852689A607B687A68D2689D
:104E90001A6100BF0C37BD465DF8047B704780B5D2
:104EA00084B000AF78600023BB8107F10C03796800
:104EB000184600F033F80346FB7397F90F30002BC8
:104EC00026D107F10C017B6801224020FFF7F5F99C
:104ED0000346FB7397F90F30002B19D17B685A7981
:104EE0007B685A727B68DA797B68DA7207F10C03A7
:104EF000591C7B6801224120FFF7DFF90346FB7351
:104F000097F90F30002B03D17B689A797B689A72EE
:104F100097F90F3018461037BD4680BD80B584B074
:104F200000AF786039603B68022279684020FFF763
:104F300091F90346FB7397F90F30002B1BD13968A9
:104F4000786800F01EF80346FB7397F90F30002BCA
:104F500011D13968786800F048F80346FB7397F977
:104F60000F30002B07D17B6801333968184600F0F9
:104F700072F80346FB7397F90F3018461037BD4699
:104F800080BD80B485B000AF786039600023FB73CA
:104F90000023BB7300237B733B685B790C2B1AD80F
:104FA0003B685A793B685B7A9A4216D03B685B79DA
:104FB0007B737B681B7823F00F03BB7397F90D306D
:104FC00003F00F035AB297F90E3013435BB2DAB213
:104FD0007B681A7001E0FC23FB7397F90F301846C9
:104FE0001437BD465DF8047B704780B485B000AFD0
:104FF000786039600023FB730023BB7300237B734D
:105000003B68DB79072B1CD83B68DA793B68DB7A95
:105010009A4218D03B68DB797B737B681B7823F05E
:105020007003BB7397F90D301B015BB203F0700383
:105030005AB297F90E3013435BB2DAB27B681A703A
:1050400001E0FC23FB7397F90F3018461437BD4677
:105050005DF8047B704780B485B000AF786039603C
:105060000023FB730023BB7300237B733B689B7996
:105070000C2B1AD83B689A793B689B7A9A4216D0D7
:105080003B689B797B737B681B7823F00F03BB73B2
:1050900097F90D3003F00F035AB297F90E3013430E
:1050A0005BB2DAB27B681A7001E0FC23FB7397F9FC
:1050B0000F3018461437BD465DF8047B704780B545
:1050C00084B000AF78600023BB7307F10E017B68EA
:1050D00001220220FFF7BEF80346FB73BB7B5B088F
:1050E000DBB2BB73BB7B03F00F03DBB2BB73BB7BD9
:1050F000012B02D1FA23FB7310E0BB7B022B02D100
:10510000F923FB730AE0BB7B032B02D1F823FB736B
:1051100004E0BB7B072B01D1F723FB7397F90F301A
:1051200018461037BD4680BD80B584B000AF7860AA
:105130000023BB8107F10C037968184600F033F8AF
:105140000346FB7397F90F30002B26D107F10C01B2
:105150007B6801224220FFF7B0F80346FB7397F902
:105160000F30002B19D17B685A7B7B685A747B689F
:10517000DA7B7B68DA7407F10C03591C7B68012227
:105180004320FFF79AF80346FB7397F90F30002B83
:1051900003D17B689A7B7B689A7497F90F30184625
:1051A0001037BD4680BD80B584B000AF78603960EF
:1051B0003B68022279684220FFF74CF80346FB73F4
:1051C00097F90F30002B1BD13968786800F01EF872
:1051D0000346FB7397F90F30002B11D139687868BB
:1051E00000F048F80346FB7397F90F30002B07D106
:1051F0007B6801333968184600F06CF80346FB738E
:1052000097F90F3018461037BD4680BD80B485B081
:1052100000AF786039600023FB730023BB73002369
:105220007B733B685B7B0D2B1AD83B685A7B3B68D2
:105230005B7C9A4216D03B685B7B7B737B681B78F8
:1052400023F00F03BB7397F90D3003F00F035AB22D
:1052500097F90E3013435BB2DAB27B681A7001E043
:10526000FC23FB7397F90F3018461437BD465DF8E1
:10527000047B704780B485B000AF7860396000234C
:10528000FB730023BB7300237B733B68DB7B022B28
:1052900016D83B68DB7B7B737B681B7823F030037D
:1052A000BB7397F90D301B015BB203F030035AB2A8
:1052B00097F90E3013435BB2DAB27B681A7001E0E3
:1052C000FC23FB7397F90F3018461437BD465DF881
:1052D000047B704780B485B000AF786039600023EC
:1052E000FB730023BB7300237B733B689B7B042B06
:1052F0001AD83B689A7B3B689B7C9A4216D03B68E5
:105300009B7B7B737B681B7823F00703BB7397F948
:105310000D3003F007035AB297F90E3013435BB216
:10532000DAB27B681A7001E0FC23FB7397F90F3047
:1053300018461437BD465DF8047B704780B584B0CD
:1053400000AF78600023FB730023BB737B681B797D
:105350000F2B2BD97B681B79122B27D87B681A79E6
:105360007B681B7A9A4224D007F10E0379681846AD
:1053700000F026F80346FB7397F90F30002B18D185
:105380007B68191D7B6801227E20FEF796FF03468D
:10539000FB737B681B7A102B03D17B685B6A05204B
:1053A00098477B681A797B681A7202E0F323FB73D3
:1053B00000E000BF97F90F3018461037BD4680BD9A
:1053C00080B584B000AF786039600023BB730023E0
:1053D000BB813B68012279684020FEF73BFF034612
:1053E000FB7397F90F30002B39D13B681B79122BD7
:1053F00020D17B681B7803F07F03BB73BB7B63F01A
:105400007F03DAB27B681A703B680122796840201A
:10541000FEF753FF0346FB7397F90F30002B1ED1A5
:1054200007F10C013B6802225820FEF746FF0346B5
:10543000FB7314E07B681B785BB2002B0FDA7B6890
:105440001B7803F07F03BB737B68BA7B1A703B68E1
:10545000012279684020FEF730FF0346FB7397F97D
:105460000F3018461037BD4680BD80B584B000AF00
:1054700078600023FB737B681B7B142B07D07B6851
:105480001B7B152B03D07B681B7B172B29D17B68DB
:105490001A7B7B681B7C9A4225D07B6803F10C0148
:1054A0007B6801227E20FEF708FF0346FB737B68C2
:1054B0001B7C142B04D17B685B6A502098470BE05F
:1054C0007B681B7C172B07D17B681B7B152B03D1BB
:1054D0007B685B6A0A2098477B681A7B7B681A7432
:1054E00001E0F323FB7397F90F3018461037BD46E0
:1054F00080BD80B58CB000AF0346B9607A60FB73A5
:10550000002387F82E3007F1140300221A605A6036
:105510001A72002387F82D3000237B8500237B62DD
:10552000FB7B9BB206339AB207F114017B68122011
:10553000FEF790FE034687F82F3097F92F30002BA7
:1055400040F09A8097F82E305A1C87F82E2030337E
:105550003B4413F81C3C87F8233097F82E305A1C34
:1055600087F82E2030333B4413F81C3C87F8223058
:1055700097F822301BB21B021AB297F823301BB2E5
:1055800013433B84BB683A8C1A8097F82E305A1C20
:1055900087F82E2030333B4413F81C3C87F8233027
:1055A00097F82E305A1C87F82E2030333B4413F8DE
:1055B0001C3C87F8223097F822301BB21B021AB22B
:1055C00097F823301BB213433B84BB683A8C5A8054
:1055D00097F82E305A1C87F82E2030333B4413F8AE
:1055E0001C3C87F8233097F82E305A1C87F82E2061
:1055F00030333B4413F81C3C87F8223097F82230B4
:105600001BB21B021AB297F823301BB213433B8420
:10561000BB683A8C9A80FB7B032B29D197F82E30FC
:105620005A1C87F82E2030333B4413F81C3C87F873
:105630002D3097F82E305A1C87F82E2030333B44FB
:1056400013F81C3C1B027B8597F82E305A1C87F8F8
:105650002E2030333B4413F81C3C1B047B627A8DB4
:105660007B6A1A4397F82D301A43BB689A6006E0AC
:10567000BB6800229A6002E0FE2387F82F3097F97A
:105680002F3018463037BD4680BD80B58CB000AF96
:105690000346B9607A60FB73002387F82E3007F168
:1056A000100300221A605A609A60C3F80B2000238E
:1056B00087F82D3000237B8500237B62FB7B002B4A
:1056C0007ED107F110017B6806220C20FEF7C2FD97
:1056D000034687F82F3097F92F30002B6CD197F8BD
:1056E0002E305A1C87F82E2030333B4413F8203CD0
:1056F00087F8233097F82E305A1C87F82E20303345
:105700003B4413F8203C87F8223097F822301BB234
:105710001B021AB297F823301BB213433B84BB68B9
:105720003A8C1A8097F82E305A1C87F82E20303386
:105730003B4413F8203C87F8233097F82E305A1C4E
:1057400087F82E2030333B4413F8203C87F8223072
:1057500097F822301BB21B021AB297F823301BB203
:1057600013433B84BB683A8C5A8097F82E305A1CFE
:1057700087F82E2030333B4413F8203C87F8233041
:1057800097F82E305A1C87F82E2030333B4413F8FC
:10579000203C87F8223097F822301BB21B021AB245
:1057A00097F823301BB213433B84BB683A8C9A8032
:1057B000BB6800229A60B0E0FE2387F82F30ACE08F
:1057C000FB7B9BB20C339AB207F110017B680C2073
:1057D000FEF740FD034687F82F3097F92F30002B56
:1057E00040F0988097F82E305A1C87F82E203033DE
:1057F0003B4413F8203C87F8233097F82E305A1C8E
:1058000087F82E2030333B4413F8203C87F82230B1
:1058100097F822301BB21B021AB297F823301BB242
:1058200013433B84BB683A8C1A8097F82E305A1C7D
:1058300087F82E2030333B4413F8203C87F8233080
:1058400097F82E305A1C87F82E2030333B4413F83B
:10585000203C87F8223097F822301BB21B021AB284
:1058600097F823301BB213433B84BB683A8C5A80B1
:1058700097F82E305A1C87F82E2030333B4413F80B
:10588000203C87F8233097F82E305A1C87F82E20BA
:1058900030333B4413F8203C87F8223097F822300D
:1058A0001BB21B021AB297F823301BB213433B847E
:1058B000BB683A8C9A8097F82E30063387F82E30E2
:1058C00097F82E305A1C87F82E2030333B4413F8BB
:1058D000203C87F82D3097F82E305A1C87F82E2060
:1058E00030333B4413F8203C1B027B8597F82E3065
:1058F0005A1C87F82E2030333B4413F8203C1B04FD
:105900007B627A8D7B6A1A4397F82D301A43BB6805
:105910009A6002E0FE2387F82F3097F92F3018465F
:105920003037BD4680BD80B58CB000AFB9607A60BD
:105930003B600346FB73002387F82E3007F110030A
:1059400000221A605A609A60C3F80B20002387F87F
:105950002D3000237B8500237B62FB7B9BB20C33C5
:105960009AB207F110013B680C20FEF773FC034666
:1059700087F82F3097F92F30002B40F00E8197F8E1
:105980002E305A1C87F82E2030333B4413F8203C2D
:1059900087F8233097F82E305A1C87F82E203033A2
:1059A0003B4413F8203C87F8223097F822301BB292
:1059B0001B021AB297F823301BB213433B847B6857
:1059C0003A8C1A8097F82E305A1C87F82E203033E4
:1059D0003B4413F8203C87F8233097F82E305A1CAC
:1059E00087F82E2030333B4413F8203C87F82230D0
:1059F00097F822301BB21B021AB297F823301BB261
:105A000013433B847B683A8C5A8097F82E305A1C9B
:105A100087F82E2030333B4413F8203C87F823309E
:105A200097F82E305A1C87F82E2030333B4413F859
:105A3000203C87F8223097F822301BB21B021AB2A2
:105A400097F823301BB213433B847B683A8C9A80CF
:105A500097F82E305A1C87F82E2030333B4413F829
:105A6000203C87F8233097F82E305A1C87F82E20D8
:105A700030333B4413F8203C87F8223097F822302B
:105A80001BB21B021AB297F823301BB213433B849C
:105A9000BB683A8C1A8097F82E305A1C87F82E2053
:105AA00030333B4413F8203C87F8233097F82E30EE
:105AB0005A1C87F82E2030333B4413F8203C87F8DB
:105AC000223097F822301BB21B021AB297F823300B
:105AD0001BB213433B84BB683A8C5A8097F82E3034
